{
  "_format": "hh-sol-artifact-1",
  "contractName": "AuctionContract",
  "sourceName": "contracts/AuctionContract.sol",
  "abi": [
    {
      "inputs": [],
      "stateMutability": "nonpayable",
      "type": "constructor"
    },
    {
      "anonymous": false,
      "inputs": [
        {
          "indexed": true,
          "internalType": "address",
          "name": "account",
          "type": "address"
        },
        {
          "indexed": true,
          "internalType": "address",
          "name": "operator",
          "type": "address"
        },
        {
          "indexed": false,
          "internalType": "bool",
          "name": "approved",
          "type": "bool"
        }
      ],
      "name": "ApprovalForAll",
      "type": "event"
    },
    {
      "anonymous": false,
      "inputs": [
        {
          "indexed": true,
          "internalType": "address",
          "name": "previousOwner",
          "type": "address"
        },
        {
          "indexed": true,
          "internalType": "address",
          "name": "newOwner",
          "type": "address"
        }
      ],
      "name": "OwnershipTransferred",
      "type": "event"
    },
    {
      "anonymous": false,
      "inputs": [
        {
          "indexed": false,
          "internalType": "address",
          "name": "account",
          "type": "address"
        }
      ],
      "name": "Paused",
      "type": "event"
    },
    {
      "anonymous": false,
      "inputs": [
        {
          "indexed": true,
          "internalType": "address",
          "name": "operator",
          "type": "address"
        },
        {
          "indexed": true,
          "internalType": "address",
          "name": "from",
          "type": "address"
        },
        {
          "indexed": true,
          "internalType": "address",
          "name": "to",
          "type": "address"
        },
        {
          "indexed": false,
          "internalType": "uint256[]",
          "name": "ids",
          "type": "uint256[]"
        },
        {
          "indexed": false,
          "internalType": "uint256[]",
          "name": "values",
          "type": "uint256[]"
        }
      ],
      "name": "TransferBatch",
      "type": "event"
    },
    {
      "anonymous": false,
      "inputs": [
        {
          "indexed": true,
          "internalType": "address",
          "name": "operator",
          "type": "address"
        },
        {
          "indexed": true,
          "internalType": "address",
          "name": "from",
          "type": "address"
        },
        {
          "indexed": true,
          "internalType": "address",
          "name": "to",
          "type": "address"
        },
        {
          "indexed": false,
          "internalType": "uint256",
          "name": "id",
          "type": "uint256"
        },
        {
          "indexed": false,
          "internalType": "uint256",
          "name": "value",
          "type": "uint256"
        }
      ],
      "name": "TransferSingle",
      "type": "event"
    },
    {
      "anonymous": false,
      "inputs": [
        {
          "indexed": false,
          "internalType": "string",
          "name": "value",
          "type": "string"
        },
        {
          "indexed": true,
          "internalType": "uint256",
          "name": "id",
          "type": "uint256"
        }
      ],
      "name": "URI",
      "type": "event"
    },
    {
      "anonymous": false,
      "inputs": [
        {
          "indexed": false,
          "internalType": "address",
          "name": "account",
          "type": "address"
        }
      ],
      "name": "Unpaused",
      "type": "event"
    },
    {
      "inputs": [
        {
          "internalType": "uint256",
          "name": "id",
          "type": "uint256"
        },
        {
          "internalType": "uint256",
          "name": "amount",
          "type": "uint256"
        }
      ],
      "name": "addMint",
      "outputs": [],
      "stateMutability": "payable",
      "type": "function"
    },
    {
      "inputs": [
        {
          "internalType": "uint256",
          "name": "",
          "type": "uint256"
        }
      ],
      "name": "auctions",
      "outputs": [
        {
          "internalType": "uint256",
          "name": "id",
          "type": "uint256"
        },
        {
          "internalType": "uint256",
          "name": "tokenId",
          "type": "uint256"
        },
        {
          "internalType": "uint256",
          "name": "amount",
          "type": "uint256"
        },
        {
          "internalType": "address",
          "name": "owner",
          "type": "address"
        },
        {
          "internalType": "uint256",
          "name": "currentCost",
          "type": "uint256"
        },
        {
          "internalType": "address",
          "name": "currentBidder",
          "type": "address"
        },
        {
          "internalType": "uint256",
          "name": "timeStart",
          "type": "uint256"
        },
        {
          "internalType": "uint256",
          "name": "timeLimit",
          "type": "uint256"
        },
        {
          "internalType": "uint256",
          "name": "timeEnd",
          "type": "uint256"
        },
        {
          "internalType": "uint8",
          "name": "isEnd",
          "type": "uint8"
        }
      ],
      "stateMutability": "view",
      "type": "function"
    },
    {
      "inputs": [
        {
          "internalType": "address",
          "name": "account",
          "type": "address"
        },
        {
          "internalType": "uint256",
          "name": "id",
          "type": "uint256"
        }
      ],
      "name": "balanceOf",
      "outputs": [
        {
          "internalType": "uint256",
          "name": "",
          "type": "uint256"
        }
      ],
      "stateMutability": "view",
      "type": "function"
    },
    {
      "inputs": [
        {
          "internalType": "address[]",
          "name": "accounts",
          "type": "address[]"
        },
        {
          "internalType": "uint256[]",
          "name": "ids",
          "type": "uint256[]"
        }
      ],
      "name": "balanceOfBatch",
      "outputs": [
        {
          "internalType": "uint256[]",
          "name": "",
          "type": "uint256[]"
        }
      ],
      "stateMutability": "view",
      "type": "function"
    },
    {
      "inputs": [
        {
          "internalType": "uint256",
          "name": "idAuction",
          "type": "uint256"
        }
      ],
      "name": "bid",
      "outputs": [],
      "stateMutability": "payable",
      "type": "function"
    },
    {
      "inputs": [
        {
          "internalType": "uint256",
          "name": "tokenId",
          "type": "uint256"
        },
        {
          "internalType": "uint256",
          "name": "amount",
          "type": "uint256"
        },
        {
          "internalType": "uint256",
          "name": "currentCost",
          "type": "uint256"
        },
        {
          "internalType": "uint256",
          "name": "timeLimitDuration",
          "type": "uint256"
        },
        {
          "internalType": "uint256",
          "name": "timeEndDuration",
          "type": "uint256"
        }
      ],
      "name": "createAuction",
      "outputs": [],
      "stateMutability": "payable",
      "type": "function"
    },
    {
      "inputs": [
        {
          "internalType": "uint256",
          "name": "auctionId",
          "type": "uint256"
        }
      ],
      "name": "endAuction",
      "outputs": [],
      "stateMutability": "payable",
      "type": "function"
    },
    {
      "inputs": [
        {
          "internalType": "uint256",
          "name": "id",
          "type": "uint256"
        }
      ],
      "name": "exists",
      "outputs": [
        {
          "internalType": "bool",
          "name": "",
          "type": "bool"
        }
      ],
      "stateMutability": "view",
      "type": "function"
    },
    {
      "inputs": [],
      "name": "getAllTokenId",
      "outputs": [
        {
          "internalType": "uint256[]",
          "name": "",
          "type": "uint256[]"
        }
      ],
      "stateMutability": "view",
      "type": "function"
    },
    {
      "inputs": [
        {
          "internalType": "uint256",
          "name": "auctionId",
          "type": "uint256"
        }
      ],
      "name": "getBidder",
      "outputs": [
        {
          "internalType": "address[]",
          "name": "",
          "type": "address[]"
        }
      ],
      "stateMutability": "view",
      "type": "function"
    },
    {
      "inputs": [
        {
          "internalType": "uint256",
          "name": "auctionId",
          "type": "uint256"
        }
      ],
      "name": "getBiddingPrice",
      "outputs": [
        {
          "internalType": "uint256[]",
          "name": "",
          "type": "uint256[]"
        }
      ],
      "stateMutability": "view",
      "type": "function"
    },
    {
      "inputs": [
        {
          "internalType": "uint256",
          "name": "tokenId",
          "type": "uint256"
        }
      ],
      "name": "getToken",
      "outputs": [
        {
          "components": [
            {
              "internalType": "string",
              "name": "name",
              "type": "string"
            },
            {
              "internalType": "string",
              "name": "description",
              "type": "string"
            },
            {
              "internalType": "string",
              "name": "uri",
              "type": "string"
            },
            {
              "internalType": "uint256",
              "name": "limit",
              "type": "uint256"
            }
          ],
          "internalType": "struct AuctionContract.Token",
          "name": "",
          "type": "tuple"
        }
      ],
      "stateMutability": "view",
      "type": "function"
    },
    {
      "inputs": [],
      "name": "idAuctionsCount",
      "outputs": [
        {
          "internalType": "uint256",
          "name": "",
          "type": "uint256"
        }
      ],
      "stateMutability": "view",
      "type": "function"
    },
    {
      "inputs": [
        {
          "internalType": "address",
          "name": "account",
          "type": "address"
        },
        {
          "internalType": "address",
          "name": "operator",
          "type": "address"
        }
      ],
      "name": "isApprovedForAll",
      "outputs": [
        {
          "internalType": "bool",
          "name": "",
          "type": "bool"
        }
      ],
      "stateMutability": "view",
      "type": "function"
    },
    {
      "inputs": [
        {
          "internalType": "uint256",
          "name": "amount",
          "type": "uint256"
        },
        {
          "internalType": "uint256",
          "name": "_limit",
          "type": "uint256"
        },
        {
          "internalType": "string",
          "name": "_uri",
          "type": "string"
        },
        {
          "internalType": "string",
          "name": "name",
          "type": "string"
        },
        {
          "internalType": "string",
          "name": "description",
          "type": "string"
        }
      ],
      "name": "newMint",
      "outputs": [],
      "stateMutability": "payable",
      "type": "function"
    },
    {
      "inputs": [],
      "name": "owner",
      "outputs": [
        {
          "internalType": "address",
          "name": "",
          "type": "address"
        }
      ],
      "stateMutability": "view",
      "type": "function"
    },
    {
      "inputs": [],
      "name": "pause",
      "outputs": [],
      "stateMutability": "nonpayable",
      "type": "function"
    },
    {
      "inputs": [],
      "name": "paused",
      "outputs": [
        {
          "internalType": "bool",
          "name": "",
          "type": "bool"
        }
      ],
      "stateMutability": "view",
      "type": "function"
    },
    {
      "inputs": [],
      "name": "publicPrice",
      "outputs": [
        {
          "internalType": "uint256",
          "name": "",
          "type": "uint256"
        }
      ],
      "stateMutability": "view",
      "type": "function"
    },
    {
      "inputs": [],
      "name": "renounceOwnership",
      "outputs": [],
      "stateMutability": "nonpayable",
      "type": "function"
    },
    {
      "inputs": [
        {
          "internalType": "address",
          "name": "from",
          "type": "address"
        },
        {
          "internalType": "address",
          "name": "to",
          "type": "address"
        },
        {
          "internalType": "uint256[]",
          "name": "ids",
          "type": "uint256[]"
        },
        {
          "internalType": "uint256[]",
          "name": "amounts",
          "type": "uint256[]"
        },
        {
          "internalType": "bytes",
          "name": "data",
          "type": "bytes"
        }
      ],
      "name": "safeBatchTransferFrom",
      "outputs": [],
      "stateMutability": "nonpayable",
      "type": "function"
    },
    {
      "inputs": [
        {
          "internalType": "address",
          "name": "from",
          "type": "address"
        },
        {
          "internalType": "address",
          "name": "to",
          "type": "address"
        },
        {
          "internalType": "uint256",
          "name": "id",
          "type": "uint256"
        },
        {
          "internalType": "uint256",
          "name": "amount",
          "type": "uint256"
        },
        {
          "internalType": "bytes",
          "name": "data",
          "type": "bytes"
        }
      ],
      "name": "safeTransferFrom",
      "outputs": [],
      "stateMutability": "nonpayable",
      "type": "function"
    },
    {
      "inputs": [
        {
          "internalType": "address",
          "name": "operator",
          "type": "address"
        },
        {
          "internalType": "bool",
          "name": "approved",
          "type": "bool"
        }
      ],
      "name": "setApprovalForAll",
      "outputs": [],
      "stateMutability": "nonpayable",
      "type": "function"
    },
    {
      "inputs": [
        {
          "internalType": "string",
          "name": "newuri",
          "type": "string"
        }
      ],
      "name": "setURI",
      "outputs": [],
      "stateMutability": "nonpayable",
      "type": "function"
    },
    {
      "inputs": [
        {
          "internalType": "bytes4",
          "name": "interfaceId",
          "type": "bytes4"
        }
      ],
      "name": "supportsInterface",
      "outputs": [
        {
          "internalType": "bool",
          "name": "",
          "type": "bool"
        }
      ],
      "stateMutability": "view",
      "type": "function"
    },
    {
      "inputs": [
        {
          "internalType": "uint256",
          "name": "id",
          "type": "uint256"
        }
      ],
      "name": "totalSupply",
      "outputs": [
        {
          "internalType": "uint256",
          "name": "",
          "type": "uint256"
        }
      ],
      "stateMutability": "view",
      "type": "function"
    },
    {
      "inputs": [
        {
          "internalType": "address",
          "name": "newOwner",
          "type": "address"
        }
      ],
      "name": "transferOwnership",
      "outputs": [],
      "stateMutability": "nonpayable",
      "type": "function"
    },
    {
      "inputs": [],
      "name": "unpause",
      "outputs": [],
      "stateMutability": "nonpayable",
      "type": "function"
    },
    {
      "inputs": [
        {
          "internalType": "uint256",
          "name": "tokenId",
          "type": "uint256"
        }
      ],
      "name": "uri",
      "outputs": [
        {
          "internalType": "string",
          "name": "",
          "type": "string"
        }
      ],
      "stateMutability": "view",
      "type": "function"
    }
  ],
  "bytecode": "0x6080604052662386f26fc100006005556000600d556000600f553480156200002657600080fd5b506040518060400160405280601b81526020017f68747470733a2f2f697066732e696e667572612e696f3a3530303100000000008152506200006e81620000b060201b60201c565b506200008f62000083620000c560201b60201c565b620000cd60201b60201c565b6000600360146101000a81548160ff021916908315150217905550620004f4565b8060029081620000c191906200040d565b5050565b600033905090565b6000600360009054906101000a900473ffffffffffffffffffffffffffffffffffffffff16905081600360006101000a81548173ffffffffffffffffffffffffffffffffffffffff021916908373ffffffffffffffffffffffffffffffffffffffff1602179055508173ffffffffffffffffffffffffffffffffffffffff168173ffffffffffffffffffffffffffffffffffffffff167f8be0079c531659141344cd1fd0a4f28419497f9722a3daafe3b4186f6b6457e060405160405180910390a35050565b600081519050919050565b7f4e487b7100000000000000000000000000000000000000000000000000000000600052604160045260246000fd5b7f4e487b7100000000000000000000000000000000000000000000000000000000600052602260045260246000fd5b600060028204905060018216806200021557607f821691505b6020821081036200022b576200022a620001cd565b5b50919050565b60008190508160005260206000209050919050565b60006020601f8301049050919050565b600082821b905092915050565b600060088302620002957fffffffffffffffffffffffffffffffffffffffffffffffffffffffffffffffff8262000256565b620002a1868362000256565b95508019841693508086168417925050509392505050565b6000819050919050565b6000819050919050565b6000620002ee620002e8620002e284620002b9565b620002c3565b620002b9565b9050919050565b6000819050919050565b6200030a83620002cd565b620003226200031982620002f5565b84845462000263565b825550505050565b600090565b620003396200032a565b62000346818484620002ff565b505050565b5b818110156200036e57620003626000826200032f565b6001810190506200034c565b5050565b601f821115620003bd57620003878162000231565b620003928462000246565b81016020851015620003a2578190505b620003ba620003b18562000246565b8301826200034b565b50505b505050565b600082821c905092915050565b6000620003e260001984600802620003c2565b1980831691505092915050565b6000620003fd8383620003cf565b9150826002028217905092915050565b620004188262000193565b67ffffffffffffffff8111156200043457620004336200019e565b5b620004408254620001fc565b6200044d82828562000372565b600060209050601f83116001811462000485576000841562000470578287015190505b6200047c8582620003ef565b865550620004ec565b601f198416620004958662000231565b60005b82811015620004bf5784890151825560018201915060208501945060208101905062000498565b86831015620004df5784890151620004db601f891682620003cf565b8355505b6001600288020188555050505b505050505050565b6156d180620005046000396000f3fe6080604052600436106101c15760003560e01c80638456cb59116100f7578063a9a35ceb11610095578063e4b50cb811610064578063e4b50cb814610617578063e985e9c514610654578063f242432a14610691578063f2fde38b146106ba576101c1565b8063a9a35ceb14610577578063b9a2de3a146105a2578063bd85b039146105be578063d9fb8a23146105fb576101c1565b80638ce0519b116100d15780638ce0519b146104dc5780638da5cb5b146104f8578063a22cb46514610523578063a945bf801461054c576101c1565b80638456cb591461046c578063865109f2146104835780638a157df3146104c0576101c1565b80633f4ba83a116101645780634f558e791161013e5780634f558e79146103a7578063571a26a0146103e45780635c975abb1461042a578063715018a614610455576101c1565b80633f4ba83a14610337578063454a2ab31461034e5780634e1273f41461036a576101c1565b806304764089116101a057806304764089146102695780630e89341c146102945780632eb2c2d6146102d1578063388cd93f146102fa576101c1565b8062fdd58e146101c657806301ffc9a71461020357806302fe530514610240575b600080fd5b3480156101d257600080fd5b506101ed60048036038101906101e89190613288565b6106e3565b6040516101fa91906132d7565b60405180910390f35b34801561020f57600080fd5b5061022a6004803603810190610225919061334a565b6107ab565b6040516102379190613392565b60405180910390f35b34801561024c57600080fd5b50610267600480360381019061026291906134f3565b61088d565b005b34801561027557600080fd5b5061027e6108a1565b60405161028b91906135fa565b60405180910390f35b3480156102a057600080fd5b506102bb60048036038101906102b6919061361c565b6108f9565b6040516102c891906136c8565b60405180910390f35b3480156102dd57600080fd5b506102f860048036038101906102f39190613853565b61099e565b005b34801561030657600080fd5b50610321600480360381019061031c919061361c565b610a3f565b60405161032e91906135fa565b60405180910390f35b34801561034357600080fd5b5061034c610aad565b005b6103686004803603810190610363919061361c565b610abf565b005b34801561037657600080fd5b50610391600480360381019061038c91906139e5565b610d62565b60405161039e91906135fa565b60405180910390f35b3480156103b357600080fd5b506103ce60048036038101906103c9919061361c565b610e7b565b6040516103db9190613392565b60405180910390f35b3480156103f057600080fd5b5061040b6004803603810190610406919061361c565b610e8f565b6040516104219a99989796959493929190613a88565b60405180910390f35b34801561043657600080fd5b5061043f610f30565b60405161044c9190613392565b60405180910390f35b34801561046157600080fd5b5061046a610f47565b005b34801561047857600080fd5b50610481610f5b565b005b34801561048f57600080fd5b506104aa60048036038101906104a5919061361c565b610f6d565b6040516104b79190613be2565b60405180910390f35b6104da60048036038101906104d59190613c04565b611011565b005b6104f660048036038101906104f19190613c7f565b6112b0565b005b34801561050457600080fd5b5061050d6113f6565b60405161051a9190613cbf565b60405180910390f35b34801561052f57600080fd5b5061054a60048036038101906105459190613d06565b611420565b005b34801561055857600080fd5b50610561611436565b60405161056e91906132d7565b60405180910390f35b34801561058357600080fd5b5061058c61143c565b60405161059991906132d7565b60405180910390f35b6105bc60048036038101906105b7919061361c565b611442565b005b3480156105ca57600080fd5b506105e560048036038101906105e0919061361c565b611684565b6040516105f291906132d7565b60405180910390f35b61061560048036038101906106109190613d46565b6116a1565b005b34801561062357600080fd5b5061063e6004803603810190610639919061361c565b6119db565b60405161064b9190613ed0565b60405180910390f35b34801561066057600080fd5b5061067b60048036038101906106769190613ef2565b611bc8565b6040516106889190613392565b60405180910390f35b34801561069d57600080fd5b506106b860048036038101906106b39190613f32565b611c5c565b005b3480156106c657600080fd5b506106e160048036038101906106dc9190613fc9565b611cfd565b005b60008073ffffffffffffffffffffffffffffffffffffffff168373ffffffffffffffffffffffffffffffffffffffff1603610753576040517f08c379a000000000000000000000000000000000000000000000000000000000815260040161074a90614068565b60405180910390fd5b60008083815260200190815260200160002060008473ffffffffffffffffffffffffffffffffffffffff1673ffffffffffffffffffffffffffffffffffffffff16815260200190815260200160002054905092915050565b60007fd9b67a26000000000000000000000000000000000000000000000000000000007bffffffffffffffffffffffffffffffffffffffffffffffffffffffff1916827bffffffffffffffffffffffffffffffffffffffffffffffffffffffff1916148061087657507f0e89341c000000000000000000000000000000000000000000000000000000007bffffffffffffffffffffffffffffffffffffffffffffffffffffffff1916827bffffffffffffffffffffffffffffffffffffffffffffffffffffffff1916145b80610886575061088582611d80565b5b9050919050565b610895611dea565b61089e81611e68565b50565b6060600c8054806020026020016040519081016040528092919081815260200182805480156108ef57602002820191906000526020600020905b8154815260200190600101908083116108db575b5050505050905090565b6060600660008381526020019081526020016000208054610919906140b7565b80601f0160208091040260200160405190810160405280929190818152602001828054610945906140b7565b80156109925780601f1061096757610100808354040283529160200191610992565b820191906000526020600020905b81548152906001019060200180831161097557829003601f168201915b50505050509050919050565b6109a6611e7b565b73ffffffffffffffffffffffffffffffffffffffff168573ffffffffffffffffffffffffffffffffffffffff1614806109ec57506109eb856109e6611e7b565b611bc8565b5b610a2b576040517f08c379a0000000000000000000000000000000000000000000000000000000008152600401610a229061415a565b60405180910390fd5b610a388585858585611e83565b5050505050565b6060600e6000838152602001908152602001600020600a01805480602002602001604051908101604052809291908181526020018280548015610aa157602002820191906000526020600020905b815481526020019060010190808311610a8d575b50505050509050919050565b610ab5611dea565b610abd6121a4565b565b6000600e6000838152602001908152602001600020600b0160009054906101000a900460ff1660ff1614610b28576040517f08c379a0000000000000000000000000000000000000000000000000000000008152600401610b1f906141c6565b60405180910390fd5b600e6000828152602001908152602001600020600401543411610b80576040517f08c379a0000000000000000000000000000000000000000000000000000000008152600401610b7790614232565b60405180910390fd5b600f548110610bc4576040517f08c379a0000000000000000000000000000000000000000000000000000000008152600401610bbb9061429e565b60405180910390fd5b600e6000828152602001908152602001600020600801544210610c1c576040517f08c379a0000000000000000000000000000000000000000000000000000000008152600401610c13906141c6565b60405180910390fd5b6000600e60008381526020019081526020016000209050610c3c82612207565b348160040181905550338160050160006101000a81548173ffffffffffffffffffffffffffffffffffffffff021916908373ffffffffffffffffffffffffffffffffffffffff16021790555080600901339080600181540180825580915050600190039060005260206000200160009091909190916101000a81548173ffffffffffffffffffffffffffffffffffffffff021916908373ffffffffffffffffffffffffffffffffffffffff16021790555080600a013490806001815401808255809150506001900390600052602060002001600090919091909150553481600c0160003373ffffffffffffffffffffffffffffffffffffffff1673ffffffffffffffffffffffffffffffffffffffff168152602001908152602001600020819055505050565b60608151835114610da8576040517f08c379a0000000000000000000000000000000000000000000000000000000008152600401610d9f90614330565b60405180910390fd5b6000835167ffffffffffffffff811115610dc557610dc46133c8565b5b604051908082528060200260200182016040528015610df35781602001602082028036833780820191505090505b50905060005b8451811015610e7057610e40858281518110610e1857610e17614350565b5b6020026020010151858381518110610e3357610e32614350565b5b60200260200101516106e3565b828281518110610e5357610e52614350565b5b60200260200101818152505080610e69906143ae565b9050610df9565b508091505092915050565b600080610e8783611684565b119050919050565b600e6020528060005260406000206000915090508060000154908060010154908060020154908060030160009054906101000a900473ffffffffffffffffffffffffffffffffffffffff16908060040154908060050160009054906101000a900473ffffffffffffffffffffffffffffffffffffffff169080600601549080600701549080600801549080600b0160009054906101000a900460ff1690508a565b6000600360149054906101000a900460ff16905090565b610f4f611dea565b610f59600061236d565b565b610f63611dea565b610f6b612433565b565b6060600e600083815260200190815260200160002060090180548060200260200160405190810160405280929190818152602001828054801561100557602002820191906000526020600020905b8160009054906101000a900473ffffffffffffffffffffffffffffffffffffffff1673ffffffffffffffffffffffffffffffffffffffff1681526020019060010190808311610fbb575b50505050509050919050565b60016007600087815260200190815260200160002060009054906101000a900460ff1660ff1614611077576040517f08c379a000000000000000000000000000000000000000000000000000000000815260040161106e90614442565b60405180910390fd5b600184146110ba576040517f08c379a00000000000000000000000000000000000000000000000000000000081526004016110b1906144ae565b60405180910390fd5b60006110c633876106e3565b11611106576040517f08c379a00000000000000000000000000000000000000000000000000000000081526004016110fd90614540565b60405180910390fd5b600060096000878152602001908152602001600020541461115c576040517f08c379a0000000000000000000000000000000000000000000000000000000008152600401611153906145d2565b60405180910390fd5b60004290506000600e6000600f5481526020019081526020016000209050600f548160000181905550868160010181905550858160020181905550338160030160006101000a81548173ffffffffffffffffffffffffffffffffffffffff021916908373ffffffffffffffffffffffffffffffffffffffff16021790555084816004018190555060008160050160006101000a81548173ffffffffffffffffffffffffffffffffffffffff021916908373ffffffffffffffffffffffffffffffffffffffff160217905550838261123391906145f2565b8160070181905550828261124791906145f2565b8160080181905550428160060181905550600081600b0160006101000a81548160ff021916908360ff160217905550600f6000815480929190611289906143ae565b91905055506001600960008981526020019081526020016000208190555050505050505050565b6112b8611dea565b806005546112c69190614626565b341015611308576040517f08c379a00000000000000000000000000000000000000000000000000000000081526004016112ff906146b4565b60405180910390fd5b60016007600084815260200190815260200160002060009054906101000a900460ff1660ff161461136e576040517f08c379a000000000000000000000000000000000000000000000000000000000815260040161136590614720565b60405180910390fd5b60086000838152602001908152602001600020548161138c84611684565b61139691906145f2565b11156113d7576040517f08c379a00000000000000000000000000000000000000000000000000000000081526004016113ce906147b2565b60405180910390fd5b6113f233838360405180602001604052806000815250612496565b5050565b6000600360009054906101000a900473ffffffffffffffffffffffffffffffffffffffff16905090565b61143261142b611e7b565b8383612646565b5050565b60055481565b600f5481565b600f548110611486576040517f08c379a000000000000000000000000000000000000000000000000000000000815260040161147d9061481e565b60405180910390fd5b6000600e6000838152602001908152602001600020600b0160009054906101000a900460ff1660ff16146114ef576040517f08c379a00000000000000000000000000000000000000000000000000000000081526004016114e69061488a565b60405180910390fd5b600e6000828152602001908152602001600020600701544211611547576040517f08c379a000000000000000000000000000000000000000000000000000000000815260040161153e9061491c565b60405180910390fd5b6000600e6000838152602001908152602001600020905060008160050160009054906101000a900473ffffffffffffffffffffffffffffffffffffffff1690506000826004015490506115d88360030160009054906101000a900473ffffffffffffffffffffffffffffffffffffffff16838560010154866002015460405180602001604052806000815250611c5c565b8260030160009054906101000a900473ffffffffffffffffffffffffffffffffffffffff1673ffffffffffffffffffffffffffffffffffffffff166108fc829081150290604051600060405180830381858888f19350505050158015611642573d6000803e3d6000fd5b50600183600b0160006101000a81548160ff021916908360ff160217905550600060096000856001015481526020019081526020016000208190555050505050565b600060046000838152602001908152602001600020549050919050565b6116a9611dea565b846005546116b79190614626565b3410156116f9576040517f08c379a00000000000000000000000000000000000000000000000000000000081526004016116f0906146b4565b60405180910390fd5b600060076000600d54815260200190815260200160002060009054906101000a900460ff1660ff1614611761576040517f08c379a000000000000000000000000000000000000000000000000000000000815260040161175890614988565b60405180910390fd5b8385106117a3576040517f08c379a000000000000000000000000000000000000000000000000000000000815260040161179a906147b2565b60405180910390fd5b60008351116117e7576040517f08c379a00000000000000000000000000000000000000000000000000000000081526004016117de906149f4565b60405180910390fd5b6000600b846040516117f99190614a50565b908152602001604051809103902060009054906101000a900460ff1660ff1614611858576040517f08c379a000000000000000000000000000000000000000000000000000000000815260040161184f90614ab3565b60405180910390fd5b61187533600d548760405180602001604052806000815250612496565b600c600d549080600181540180825580915050600190039060005260206000200160009091909190915055600160076000600d54815260200190815260200160002060006101000a81548160ff021916908360ff1602179055508360086000600d548152602001908152602001600020819055506118f5600d54846127b2565b81600a6000600d548152602001908152602001600020600001908161191a9190614c7f565b5080600a6000600d54815260200190815260200160002060010190816119409190614c7f565b5082600a6000600d54815260200190815260200160002060020190816119669190614c7f565b5083600a6000600d548152602001908152602001600020600301819055506001600b846040516119969190614a50565b908152602001604051809103902060006101000a81548160ff021916908360ff160217905550600d60008154809291906119cf906143ae565b91905055505050505050565b6119e36131b8565b600a6000838152602001908152602001600020604051806080016040529081600082018054611a11906140b7565b80601f0160208091040260200160405190810160405280929190818152602001828054611a3d906140b7565b8015611a8a5780601f10611a5f57610100808354040283529160200191611a8a565b820191906000526020600020905b815481529060010190602001808311611a6d57829003601f168201915b50505050508152602001600182018054611aa3906140b7565b80601f0160208091040260200160405190810160405280929190818152602001828054611acf906140b7565b8015611b1c5780601f10611af157610100808354040283529160200191611b1c565b820191906000526020600020905b815481529060010190602001808311611aff57829003601f168201915b50505050508152602001600282018054611b35906140b7565b80601f0160208091040260200160405190810160405280929190818152602001828054611b61906140b7565b8015611bae5780601f10611b8357610100808354040283529160200191611bae565b820191906000526020600020905b815481529060010190602001808311611b9157829003601f168201915b505050505081526020016003820154815250509050919050565b6000600160008473ffffffffffffffffffffffffffffffffffffffff1673ffffffffffffffffffffffffffffffffffffffff16815260200190815260200160002060008373ffffffffffffffffffffffffffffffffffffffff1673ffffffffffffffffffffffffffffffffffffffff16815260200190815260200160002060009054906101000a900460ff16905092915050565b611c64611e7b565b73ffffffffffffffffffffffffffffffffffffffff168573ffffffffffffffffffffffffffffffffffffffff161480611caa5750611ca985611ca4611e7b565b611bc8565b5b611ce9576040517f08c379a0000000000000000000000000000000000000000000000000000000008152600401611ce09061415a565b60405180910390fd5b611cf68585858585612841565b5050505050565b611d05611dea565b600073ffffffffffffffffffffffffffffffffffffffff168173ffffffffffffffffffffffffffffffffffffffff1603611d74576040517f08c379a0000000000000000000000000000000000000000000000000000000008152600401611d6b90614dc3565b60405180910390fd5b611d7d8161236d565b50565b60007f01ffc9a7000000000000000000000000000000000000000000000000000000007bffffffffffffffffffffffffffffffffffffffffffffffffffffffff1916827bffffffffffffffffffffffffffffffffffffffffffffffffffffffff1916149050919050565b611df2611e7b565b73ffffffffffffffffffffffffffffffffffffffff16611e106113f6565b73ffffffffffffffffffffffffffffffffffffffff1614611e66576040517f08c379a0000000000000000000000000000000000000000000000000000000008152600401611e5d90614e2f565b60405180910390fd5b565b8060029081611e779190614c7f565b5050565b600033905090565b8151835114611ec7576040517f08c379a0000000000000000000000000000000000000000000000000000000008152600401611ebe90614ec1565b60405180910390fd5b600073ffffffffffffffffffffffffffffffffffffffff168473ffffffffffffffffffffffffffffffffffffffff1603611f36576040517f08c379a0000000000000000000000000000000000000000000000000000000008152600401611f2d90614f53565b60405180910390fd5b6000611f40611e7b565b9050611f50818787878787612adc565b60005b8451811015612101576000858281518110611f7157611f70614350565b5b602002602001015190506000858381518110611f9057611f8f614350565b5b60200260200101519050600080600084815260200190815260200160002060008b73ffffffffffffffffffffffffffffffffffffffff1673ffffffffffffffffffffffffffffffffffffffff16815260200190815260200160002054905081811015612031576040517f08c379a000000000000000000000000000000000000000000000000000000000815260040161202890614fe5565b60405180910390fd5b81810360008085815260200190815260200160002060008c73ffffffffffffffffffffffffffffffffffffffff1673ffffffffffffffffffffffffffffffffffffffff168152602001908152602001600020819055508160008085815260200190815260200160002060008b73ffffffffffffffffffffffffffffffffffffffff1673ffffffffffffffffffffffffffffffffffffffff16815260200190815260200160002060008282546120e691906145f2565b92505081905550505050806120fa906143ae565b9050611f53565b508473ffffffffffffffffffffffffffffffffffffffff168673ffffffffffffffffffffffffffffffffffffffff168273ffffffffffffffffffffffffffffffffffffffff167f4a39dc06d4c0dbc64b70af90fd698a233a518aa5d07e595d983b8c0526c8f7fb8787604051612178929190615005565b60405180910390a461218e818787878787612afa565b61219c818787878787612b02565b505050505050565b6121ac612cd9565b6000600360146101000a81548160ff0219169083151502179055507f5db9ee0a495bf2e6ff9c91a7834c1ba4fdd244a5e8aa4e537bd38aeae4b073aa6121f0611e7b565b6040516121fd9190613cbf565b60405180910390a1565b6000600e6000838152602001908152602001600020905060005b816009018054905081101561236857600082600901828154811061224857612247614350565b5b9060005260206000200160009054906101000a900473ffffffffffffffffffffffffffffffffffffffff169050600083600c0160008373ffffffffffffffffffffffffffffffffffffffff1673ffffffffffffffffffffffffffffffffffffffff168152602001908152602001600020549050600081111561235357600084600c0160008473ffffffffffffffffffffffffffffffffffffffff1673ffffffffffffffffffffffffffffffffffffffff168152602001908152602001600020819055508173ffffffffffffffffffffffffffffffffffffffff166108fc829081150290604051600060405180830381858888f19350505050158015612351573d6000803e3d6000fd5b505b50508080612360906143ae565b915050612221565b505050565b6000600360009054906101000a900473ffffffffffffffffffffffffffffffffffffffff16905081600360006101000a81548173ffffffffffffffffffffffffffffffffffffffff021916908373ffffffffffffffffffffffffffffffffffffffff1602179055508173ffffffffffffffffffffffffffffffffffffffff168173ffffffffffffffffffffffffffffffffffffffff167f8be0079c531659141344cd1fd0a4f28419497f9722a3daafe3b4186f6b6457e060405160405180910390a35050565b61243b612d22565b6001600360146101000a81548160ff0219169083151502179055507f62e78cea01bee320cd4e420270b5ea74000d11b0c9f74754ebdbfc544b05a25861247f611e7b565b60405161248c9190613cbf565b60405180910390a1565b600073ffffffffffffffffffffffffffffffffffffffff168473ffffffffffffffffffffffffffffffffffffffff1603612505576040517f08c379a00000000000000000000000000000000000000000000000000000000081526004016124fc906150ae565b60405180910390fd5b600061250f611e7b565b9050600061251c85612d6c565b9050600061252985612d6c565b905061253a83600089858589612adc565b8460008088815260200190815260200160002060008973ffffffffffffffffffffffffffffffffffffffff1673ffffffffffffffffffffffffffffffffffffffff168152602001908152602001600020600082825461259991906145f2565b925050819055508673ffffffffffffffffffffffffffffffffffffffff16600073ffffffffffffffffffffffffffffffffffffffff168473ffffffffffffffffffffffffffffffffffffffff167fc3d58168c5ae7397731d063d5bbf3d657854427343f4c083240f7aacaa2d0f6289896040516126179291906150ce565b60405180910390a461262e83600089858589612afa565b61263d83600089898989612de6565b50505050505050565b8173ffffffffffffffffffffffffffffffffffffffff168373ffffffffffffffffffffffffffffffffffffffff16036126b4576040517f08c379a00000000000000000000000000000000000000000000000000000000081526004016126ab90615169565b60405180910390fd5b80600160008573ffffffffffffffffffffffffffffffffffffffff1673ffffffffffffffffffffffffffffffffffffffff16815260200190815260200160002060008473ffffffffffffffffffffffffffffffffffffffff1673ffffffffffffffffffffffffffffffffffffffff16815260200190815260200160002060006101000a81548160ff0219169083151502179055508173ffffffffffffffffffffffffffffffffffffffff168373ffffffffffffffffffffffffffffffffffffffff167f17307eab39ab6107e8899845ad3d59bd9653f200f220920489ca2b5937696c31836040516127a59190613392565b60405180910390a3505050565b6127ba611dea565b60006006600084815260200190815260200160002080546127da906140b7565b90501461281c576040517f08c379a0000000000000000000000000000000000000000000000000000000008152600401612813906151d5565b60405180910390fd5b8060066000848152602001908152602001600020908161283c9190614c7f565b505050565b600073ffffffffffffffffffffffffffffffffffffffff168473ffffffffffffffffffffffffffffffffffffffff16036128b0576040517f08c379a00000000000000000000000000000000000000000000000000000000081526004016128a790614f53565b60405180910390fd5b60006128ba611e7b565b905060006128c785612d6c565b905060006128d485612d6c565b90506128e4838989858589612adc565b600080600088815260200190815260200160002060008a73ffffffffffffffffffffffffffffffffffffffff1673ffffffffffffffffffffffffffffffffffffffff1681526020019081526020016000205490508581101561297b576040517f08c379a000000000000000000000000000000000000000000000000000000000815260040161297290614fe5565b60405180910390fd5b85810360008089815260200190815260200160002060008b73ffffffffffffffffffffffffffffffffffffffff1673ffffffffffffffffffffffffffffffffffffffff168152602001908152602001600020819055508560008089815260200190815260200160002060008a73ffffffffffffffffffffffffffffffffffffffff1673ffffffffffffffffffffffffffffffffffffffff1681526020019081526020016000206000828254612a3091906145f2565b925050819055508773ffffffffffffffffffffffffffffffffffffffff168973ffffffffffffffffffffffffffffffffffffffff168573ffffffffffffffffffffffffffffffffffffffff167fc3d58168c5ae7397731d063d5bbf3d657854427343f4c083240f7aacaa2d0f628a8a604051612aad9291906150ce565b60405180910390a4612ac3848a8a86868a612afa565b612ad1848a8a8a8a8a612de6565b505050505050505050565b612ae4612d22565b612af2868686868686612fbd565b505050505050565b505050505050565b612b218473ffffffffffffffffffffffffffffffffffffffff1661318d565b15612cd1578373ffffffffffffffffffffffffffffffffffffffff1663bc197c8187878686866040518663ffffffff1660e01b8152600401612b6795949392919061524a565b6020604051808303816000875af1925050508015612ba357506040513d601f19601f82011682018060405250810190612ba091906152c7565b60015b612c4857612baf615301565b806308c379a003612c0b5750612bc3615323565b80612bce5750612c0d565b806040517f08c379a0000000000000000000000000000000000000000000000000000000008152600401612c0291906136c8565b60405180910390fd5b505b6040517f08c379a0000000000000000000000000000000000000000000000000000000008152600401612c3f90615425565b60405180910390fd5b63bc197c8160e01b7bffffffffffffffffffffffffffffffffffffffffffffffffffffffff1916817bffffffffffffffffffffffffffffffffffffffffffffffffffffffff191614612ccf576040517f08c379a0000000000000000000000000000000000000000000000000000000008152600401612cc6906154b7565b60405180910390fd5b505b505050505050565b612ce1610f30565b612d20576040517f08c379a0000000000000000000000000000000000000000000000000000000008152600401612d1790615523565b60405180910390fd5b565b612d2a610f30565b15612d6a576040517f08c379a0000000000000000000000000000000000000000000000000000000008152600401612d619061558f565b60405180910390fd5b565b60606000600167ffffffffffffffff811115612d8b57612d8a6133c8565b5b604051908082528060200260200182016040528015612db95781602001602082028036833780820191505090505b5090508281600081518110612dd157612dd0614350565b5b60200260200101818152505080915050919050565b612e058473ffffffffffffffffffffffffffffffffffffffff1661318d565b15612fb5578373ffffffffffffffffffffffffffffffffffffffff1663f23a6e6187878686866040518663ffffffff1660e01b8152600401612e4b9594939291906155af565b6020604051808303816000875af1925050508015612e8757506040513d601f19601f82011682018060405250810190612e8491906152c7565b60015b612f2c57612e93615301565b806308c379a003612eef5750612ea7615323565b80612eb25750612ef1565b806040517f08c379a0000000000000000000000000000000000000000000000000000000008152600401612ee691906136c8565b60405180910390fd5b505b6040517f08c379a0000000000000000000000000000000000000000000000000000000008152600401612f2390615425565b60405180910390fd5b63f23a6e6160e01b7bffffffffffffffffffffffffffffffffffffffffffffffffffffffff1916817bffffffffffffffffffffffffffffffffffffffffffffffffffffffff191614612fb3576040517f08c379a0000000000000000000000000000000000000000000000000000000008152600401612faa906154b7565b60405180910390fd5b505b505050505050565b612fcb8686868686866131b0565b600073ffffffffffffffffffffffffffffffffffffffff168573ffffffffffffffffffffffffffffffffffffffff160361307c5760005b835181101561307a5782818151811061301e5761301d614350565b5b60200260200101516004600086848151811061303d5761303c614350565b5b60200260200101518152602001908152602001600020600082825461306291906145f2565b9250508190555080613073906143ae565b9050613002565b505b600073ffffffffffffffffffffffffffffffffffffffff168473ffffffffffffffffffffffffffffffffffffffff16036131855760005b83518110156131835760008482815181106130d1576130d0614350565b5b6020026020010151905060008483815181106130f0576130ef614350565b5b6020026020010151905060006004600084815260200190815260200160002054905081811015613155576040517f08c379a000000000000000000000000000000000000000000000000000000000815260040161314c9061567b565b60405180910390fd5b81810360046000858152602001908152602001600020819055505050508061317c906143ae565b90506130b3565b505b505050505050565b6000808273ffffffffffffffffffffffffffffffffffffffff163b119050919050565b505050505050565b6040518060800160405280606081526020016060815260200160608152602001600081525090565b6000604051905090565b600080fd5b600080fd5b600073ffffffffffffffffffffffffffffffffffffffff82169050919050565b600061321f826131f4565b9050919050565b61322f81613214565b811461323a57600080fd5b50565b60008135905061324c81613226565b92915050565b6000819050919050565b61326581613252565b811461327057600080fd5b50565b6000813590506132828161325c565b92915050565b6000806040838503121561329f5761329e6131ea565b5b60006132ad8582860161323d565b92505060206132be85828601613273565b9150509250929050565b6132d181613252565b82525050565b60006020820190506132ec60008301846132c8565b92915050565b60007fffffffff0000000000000000000000000000000000000000000000000000000082169050919050565b613327816132f2565b811461333257600080fd5b50565b6000813590506133448161331e565b92915050565b6000602082840312156133605761335f6131ea565b5b600061336e84828501613335565b91505092915050565b60008115159050919050565b61338c81613377565b82525050565b60006020820190506133a76000830184613383565b92915050565b600080fd5b600080fd5b6000601f19601f8301169050919050565b7f4e487b7100000000000000000000000000000000000000000000000000000000600052604160045260246000fd5b613400826133b7565b810181811067ffffffffffffffff8211171561341f5761341e6133c8565b5b80604052505050565b60006134326131e0565b905061343e82826133f7565b919050565b600067ffffffffffffffff82111561345e5761345d6133c8565b5b613467826133b7565b9050602081019050919050565b82818337600083830152505050565b600061349661349184613443565b613428565b9050828152602081018484840111156134b2576134b16133b2565b5b6134bd848285613474565b509392505050565b600082601f8301126134da576134d96133ad565b5b81356134ea848260208601613483565b91505092915050565b600060208284031215613509576135086131ea565b5b600082013567ffffffffffffffff811115613527576135266131ef565b5b613533848285016134c5565b91505092915050565b600081519050919050565b600082825260208201905092915050565b6000819050602082019050919050565b61357181613252565b82525050565b60006135838383613568565b60208301905092915050565b6000602082019050919050565b60006135a78261353c565b6135b18185613547565b93506135bc83613558565b8060005b838110156135ed5781516135d48882613577565b97506135df8361358f565b9250506001810190506135c0565b5085935050505092915050565b60006020820190508181036000830152613614818461359c565b905092915050565b600060208284031215613632576136316131ea565b5b600061364084828501613273565b91505092915050565b600081519050919050565b600082825260208201905092915050565b60005b83811015613683578082015181840152602081019050613668565b60008484015250505050565b600061369a82613649565b6136a48185613654565b93506136b4818560208601613665565b6136bd816133b7565b840191505092915050565b600060208201905081810360008301526136e2818461368f565b905092915050565b600067ffffffffffffffff821115613705576137046133c8565b5b602082029050602081019050919050565b600080fd5b600061372e613729846136ea565b613428565b9050808382526020820190506020840283018581111561375157613750613716565b5b835b8181101561377a57806137668882613273565b845260208401935050602081019050613753565b5050509392505050565b600082601f830112613799576137986133ad565b5b81356137a984826020860161371b565b91505092915050565b600067ffffffffffffffff8211156137cd576137cc6133c8565b5b6137d6826133b7565b9050602081019050919050565b60006137f66137f1846137b2565b613428565b905082815260208101848484011115613812576138116133b2565b5b61381d848285613474565b509392505050565b600082601f83011261383a576138396133ad565b5b813561384a8482602086016137e3565b91505092915050565b600080600080600060a0868803121561386f5761386e6131ea565b5b600061387d8882890161323d565b955050602061388e8882890161323d565b945050604086013567ffffffffffffffff8111156138af576138ae6131ef565b5b6138bb88828901613784565b935050606086013567ffffffffffffffff8111156138dc576138db6131ef565b5b6138e888828901613784565b925050608086013567ffffffffffffffff811115613909576139086131ef565b5b61391588828901613825565b9150509295509295909350565b600067ffffffffffffffff82111561393d5761393c6133c8565b5b602082029050602081019050919050565b600061396161395c84613922565b613428565b9050808382526020820190506020840283018581111561398457613983613716565b5b835b818110156139ad5780613999888261323d565b845260208401935050602081019050613986565b5050509392505050565b600082601f8301126139cc576139cb6133ad565b5b81356139dc84826020860161394e565b91505092915050565b600080604083850312156139fc576139fb6131ea565b5b600083013567ffffffffffffffff811115613a1a57613a196131ef565b5b613a26858286016139b7565b925050602083013567ffffffffffffffff811115613a4757613a466131ef565b5b613a5385828601613784565b9150509250929050565b613a6681613214565b82525050565b600060ff82169050919050565b613a8281613a6c565b82525050565b600061014082019050613a9e600083018d6132c8565b613aab602083018c6132c8565b613ab8604083018b6132c8565b613ac5606083018a613a5d565b613ad260808301896132c8565b613adf60a0830188613a5d565b613aec60c08301876132c8565b613af960e08301866132c8565b613b076101008301856132c8565b613b15610120830184613a79565b9b9a5050505050505050505050565b600081519050919050565b600082825260208201905092915050565b6000819050602082019050919050565b613b5981613214565b82525050565b6000613b6b8383613b50565b60208301905092915050565b6000602082019050919050565b6000613b8f82613b24565b613b998185613b2f565b9350613ba483613b40565b8060005b83811015613bd5578151613bbc8882613b5f565b9750613bc783613b77565b925050600181019050613ba8565b5085935050505092915050565b60006020820190508181036000830152613bfc8184613b84565b905092915050565b600080600080600060a08688031215613c2057613c1f6131ea565b5b6000613c2e88828901613273565b9550506020613c3f88828901613273565b9450506040613c5088828901613273565b9350506060613c6188828901613273565b9250506080613c7288828901613273565b9150509295509295909350565b60008060408385031215613c9657613c956131ea565b5b6000613ca485828601613273565b9250506020613cb585828601613273565b9150509250929050565b6000602082019050613cd46000830184613a5d565b92915050565b613ce381613377565b8114613cee57600080fd5b50565b600081359050613d0081613cda565b92915050565b60008060408385031215613d1d57613d1c6131ea565b5b6000613d2b8582860161323d565b9250506020613d3c85828601613cf1565b9150509250929050565b600080600080600060a08688031215613d6257613d616131ea565b5b6000613d7088828901613273565b9550506020613d8188828901613273565b945050604086013567ffffffffffffffff811115613da257613da16131ef565b5b613dae888289016134c5565b935050606086013567ffffffffffffffff811115613dcf57613dce6131ef565b5b613ddb888289016134c5565b925050608086013567ffffffffffffffff811115613dfc57613dfb6131ef565b5b613e08888289016134c5565b9150509295509295909350565b600082825260208201905092915050565b6000613e3182613649565b613e3b8185613e15565b9350613e4b818560208601613665565b613e54816133b7565b840191505092915050565b60006080830160008301518482036000860152613e7c8282613e26565b91505060208301518482036020860152613e968282613e26565b91505060408301518482036040860152613eb08282613e26565b9150506060830151613ec56060860182613568565b508091505092915050565b60006020820190508181036000830152613eea8184613e5f565b905092915050565b60008060408385031215613f0957613f086131ea565b5b6000613f178582860161323d565b9250506020613f288582860161323d565b9150509250929050565b600080600080600060a08688031215613f4e57613f4d6131ea565b5b6000613f5c8882890161323d565b9550506020613f6d8882890161323d565b9450506040613f7e88828901613273565b9350506060613f8f88828901613273565b925050608086013567ffffffffffffffff811115613fb057613faf6131ef565b5b613fbc88828901613825565b9150509295509295909350565b600060208284031215613fdf57613fde6131ea565b5b6000613fed8482850161323d565b91505092915050565b7f455243313135353a2061646472657373207a65726f206973206e6f742061207660008201527f616c6964206f776e657200000000000000000000000000000000000000000000602082015250565b6000614052602a83613654565b915061405d82613ff6565b604082019050919050565b6000602082019050818103600083015261408181614045565b9050919050565b7f4e487b7100000000000000000000000000000000000000000000000000000000600052602260045260246000fd5b600060028204905060018216806140cf57607f821691505b6020821081036140e2576140e1614088565b5b50919050565b7f455243313135353a2063616c6c6572206973206e6f7420746f6b656e206f776e60008201527f6572206f7220617070726f766564000000000000000000000000000000000000602082015250565b6000614144602e83613654565b915061414f826140e8565b604082019050919050565b6000602082019050818103600083015261417381614137565b9050919050565b7f41756374696f6e2068617320656e646564000000000000000000000000000000600082015250565b60006141b0601183613654565b91506141bb8261417a565b602082019050919050565b600060208201905081810360008301526141df816141a3565b9050919050565b7f4861766520746f20706179206120686967686572207072696365000000000000600082015250565b600061421c601a83613654565b9150614227826141e6565b602082019050919050565b6000602082019050818103600083015261424b8161420f565b9050919050565b7f546869732061756374696f6e20646f6573206e6f742065786973740000000000600082015250565b6000614288601b83613654565b915061429382614252565b602082019050919050565b600060208201905081810360008301526142b78161427b565b9050919050565b7f455243313135353a206163636f756e747320616e6420696473206c656e67746860008201527f206d69736d617463680000000000000000000000000000000000000000000000602082015250565b600061431a602983613654565b9150614325826142be565b604082019050919050565b600060208201905081810360008301526143498161430d565b9050919050565b7f4e487b7100000000000000000000000000000000000000000000000000000000600052603260045260246000fd5b7f4e487b7100000000000000000000000000000000000000000000000000000000600052601160045260246000fd5b60006143b982613252565b91507fffffffffffffffffffffffffffffffffffffffffffffffffffffffffffffffff82036143eb576143ea61437f565b5b600182019050919050565b7f4e6f74206578697473207468697320746f6b656e496400000000000000000000600082015250565b600061442c601683613654565b9150614437826143f6565b602082019050919050565b6000602082019050818103600083015261445b8161441f565b9050919050565b7f616d6f756e74206973206e6f742076616c696400000000000000000000000000600082015250565b6000614498601383613654565b91506144a382614462565b602082019050919050565b600060208201905081810360008301526144c78161448b565b9050919050565b7f5468697320746f6b656e20646f6573206e6f7420657869737420696e20796f7560008201527f722077616c6c6574000000000000000000000000000000000000000000000000602082015250565b600061452a602883613654565b9150614535826144ce565b604082019050919050565b600060208201905081810360008301526145598161451d565b9050919050565b7f416e2061756374696f6e20666f72207468697320746f6b656e20616c7265616460008201527f7920657869737473000000000000000000000000000000000000000000000000602082015250565b60006145bc602883613654565b91506145c782614560565b604082019050919050565b600060208201905081810360008301526145eb816145af565b9050919050565b60006145fd82613252565b915061460883613252565b92508282019050808211156146205761461f61437f565b5b92915050565b600061463182613252565b915061463c83613252565b925082820261464a81613252565b915082820484148315176146615761466061437f565b5b5092915050565b7f57524f4e472c204e6f7420656e6f756768206d6f6e65792073656e7400000000600082015250565b600061469e601c83613654565b91506146a982614668565b602082019050919050565b600060208201905081810360008301526146cd81614691565b9050919050565b7f4e6f7420657869747320746f6b656e0000000000000000000000000000000000600082015250565b600061470a600f83613654565b9150614715826146d4565b602082019050919050565b60006020820190508181036000830152614739816146fd565b9050919050565b7f596f7520686176652063726561746564206d6f7265207468616e20616c6c6f7760008201527f656420616d6f756e740000000000000000000000000000000000000000000000602082015250565b600061479c602983613654565b91506147a782614740565b604082019050919050565b600060208201905081810360008301526147cb8161478f565b9050919050565b7f41756374696f6e20646f6573206e6f7420657869737400000000000000000000600082015250565b6000614808601683613654565b9150614813826147d2565b602082019050919050565b60006020820190508181036000830152614837816147fb565b9050919050565b7f546869732061756374696f6e2068617320656e64656400000000000000000000600082015250565b6000614874601683613654565b915061487f8261483e565b602082019050919050565b600060208201905081810360008301526148a381614867565b9050919050565b7f546865206d696e696d756d2074696d6520686173206e6f74206265656e20726560008201527f616368656420746f20656e640000000000000000000000000000000000000000602082015250565b6000614906602c83613654565b9150614911826148aa565b604082019050919050565b60006020820190508181036000830152614935816148f9565b9050919050565b7f45786974656420746f6b656e0000000000000000000000000000000000000000600082015250565b6000614972600c83613654565b915061497d8261493c565b602082019050919050565b600060208201905081810360008301526149a181614965565b9050919050565b7f506c6561736520616464206461746120746f2074686973206e66740000000000600082015250565b60006149de601b83613654565b91506149e9826149a8565b602082019050919050565b60006020820190508181036000830152614a0d816149d1565b9050919050565b600081905092915050565b6000614a2a82613649565b614a348185614a14565b9350614a44818560208601613665565b80840191505092915050565b6000614a5c8284614a1f565b915081905092915050565b7f496d616765206578697374656400000000000000000000000000000000000000600082015250565b6000614a9d600d83613654565b9150614aa882614a67565b602082019050919050565b60006020820190508181036000830152614acc81614a90565b9050919050565b60008190508160005260206000209050919050565b60006020601f8301049050919050565b600082821b905092915050565b600060088302614b357fffffffffffffffffffffffffffffffffffffffffffffffffffffffffffffffff82614af8565b614b3f8683614af8565b95508019841693508086168417925050509392505050565b6000819050919050565b6000614b7c614b77614b7284613252565b614b57565b613252565b9050919050565b6000819050919050565b614b9683614b61565b614baa614ba282614b83565b848454614b05565b825550505050565b600090565b614bbf614bb2565b614bca818484614b8d565b505050565b5b81811015614bee57614be3600082614bb7565b600181019050614bd0565b5050565b601f821115614c3357614c0481614ad3565b614c0d84614ae8565b81016020851015614c1c578190505b614c30614c2885614ae8565b830182614bcf565b50505b505050565b600082821c905092915050565b6000614c5660001984600802614c38565b1980831691505092915050565b6000614c6f8383614c45565b9150826002028217905092915050565b614c8882613649565b67ffffffffffffffff811115614ca157614ca06133c8565b5b614cab82546140b7565b614cb6828285614bf2565b600060209050601f831160018114614ce95760008415614cd7578287015190505b614ce18582614c63565b865550614d49565b601f198416614cf786614ad3565b60005b82811015614d1f57848901518255600182019150602085019450602081019050614cfa565b86831015614d3c5784890151614d38601f891682614c45565b8355505b6001600288020188555050505b505050505050565b7f4f776e61626c653a206e6577206f776e657220697320746865207a65726f206160008201527f6464726573730000000000000000000000000000000000000000000000000000602082015250565b6000614dad602683613654565b9150614db882614d51565b604082019050919050565b60006020820190508181036000830152614ddc81614da0565b9050919050565b7f4f776e61626c653a2063616c6c6572206973206e6f7420746865206f776e6572600082015250565b6000614e19602083613654565b9150614e2482614de3565b602082019050919050565b60006020820190508181036000830152614e4881614e0c565b9050919050565b7f455243313135353a2069647320616e6420616d6f756e7473206c656e6774682060008201527f6d69736d61746368000000000000000000000000000000000000000000000000602082015250565b6000614eab602883613654565b9150614eb682614e4f565b604082019050919050565b60006020820190508181036000830152614eda81614e9e565b9050919050565b7f455243313135353a207472616e7366657220746f20746865207a65726f20616460008201527f6472657373000000000000000000000000000000000000000000000000000000602082015250565b6000614f3d602583613654565b9150614f4882614ee1565b604082019050919050565b60006020820190508181036000830152614f6c81614f30565b9050919050565b7f455243313135353a20696e73756666696369656e742062616c616e636520666f60008201527f72207472616e7366657200000000000000000000000000000000000000000000602082015250565b6000614fcf602a83613654565b9150614fda82614f73565b604082019050919050565b60006020820190508181036000830152614ffe81614fc2565b9050919050565b6000604082019050818103600083015261501f818561359c565b90508181036020830152615033818461359c565b90509392505050565b7f455243313135353a206d696e7420746f20746865207a65726f2061646472657360008201527f7300000000000000000000000000000000000000000000000000000000000000602082015250565b6000615098602183613654565b91506150a38261503c565b604082019050919050565b600060208201905081810360008301526150c78161508b565b9050919050565b60006040820190506150e360008301856132c8565b6150f060208301846132c8565b9392505050565b7f455243313135353a2073657474696e6720617070726f76616c2073746174757360008201527f20666f722073656c660000000000000000000000000000000000000000000000602082015250565b6000615153602983613654565b915061515e826150f7565b604082019050919050565b6000602082019050818103600083015261518281615146565b9050919050565b7f43616e6e6f742073657420757269207477696365000000000000000000000000600082015250565b60006151bf601483613654565b91506151ca82615189565b602082019050919050565b600060208201905081810360008301526151ee816151b2565b9050919050565b600081519050919050565b600082825260208201905092915050565b600061521c826151f5565b6152268185615200565b9350615236818560208601613665565b61523f816133b7565b840191505092915050565b600060a08201905061525f6000830188613a5d565b61526c6020830187613a5d565b818103604083015261527e818661359c565b90508181036060830152615292818561359c565b905081810360808301526152a68184615211565b90509695505050505050565b6000815190506152c18161331e565b92915050565b6000602082840312156152dd576152dc6131ea565b5b60006152eb848285016152b2565b91505092915050565b60008160e01c9050919050565b600060033d11156153205760046000803e61531d6000516152f4565b90505b90565b600060443d106153b0576153356131e0565b60043d036004823e80513d602482011167ffffffffffffffff8211171561535d5750506153b0565b808201805167ffffffffffffffff81111561537b57505050506153b0565b80602083010160043d0385018111156153985750505050506153b0565b6153a7826020018501866133f7565b82955050505050505b90565b7f455243313135353a207472616e7366657220746f206e6f6e2d4552433131353560008201527f526563656976657220696d706c656d656e746572000000000000000000000000602082015250565b600061540f603483613654565b915061541a826153b3565b604082019050919050565b6000602082019050818103600083015261543e81615402565b9050919050565b7f455243313135353a204552433131353552656365697665722072656a6563746560008201527f6420746f6b656e73000000000000000000000000000000000000000000000000602082015250565b60006154a1602883613654565b91506154ac82615445565b604082019050919050565b600060208201905081810360008301526154d081615494565b9050919050565b7f5061757361626c653a206e6f7420706175736564000000000000000000000000600082015250565b600061550d601483613654565b9150615518826154d7565b602082019050919050565b6000602082019050818103600083015261553c81615500565b9050919050565b7f5061757361626c653a2070617573656400000000000000000000000000000000600082015250565b6000615579601083613654565b915061558482615543565b602082019050919050565b600060208201905081810360008301526155a88161556c565b9050919050565b600060a0820190506155c46000830188613a5d565b6155d16020830187613a5d565b6155de60408301866132c8565b6155eb60608301856132c8565b81810360808301526155fd8184615211565b90509695505050505050565b7f455243313135353a206275726e20616d6f756e74206578636565647320746f7460008201527f616c537570706c79000000000000000000000000000000000000000000000000602082015250565b6000615665602883613654565b915061567082615609565b604082019050919050565b6000602082019050818103600083015261569481615658565b905091905056fea2646970667358221220e5fba3623d9393e24a1b77e8630fa46fe2cae709a3211eeb0a100910abfc6b2964736f6c63430008130033",
  "linkReferences": {},
  "deployedLinkReferences": {}
}