{
  "_format": "hh-sol-artifact-1",
  "contractName": "AuctionContract",
  "sourceName": "contracts/AuctionContract.sol",
  "abi": [
    {
      "inputs": [],
      "stateMutability": "nonpayable",
      "type": "constructor"
    },
    {
      "anonymous": false,
      "inputs": [
        {
          "indexed": true,
          "internalType": "address",
          "name": "account",
          "type": "address"
        },
        {
          "indexed": true,
          "internalType": "address",
          "name": "operator",
          "type": "address"
        },
        {
          "indexed": false,
          "internalType": "bool",
          "name": "approved",
          "type": "bool"
        }
      ],
      "name": "ApprovalForAll",
      "type": "event"
    },
    {
      "anonymous": false,
      "inputs": [
        {
          "indexed": true,
          "internalType": "address",
          "name": "previousOwner",
          "type": "address"
        },
        {
          "indexed": true,
          "internalType": "address",
          "name": "newOwner",
          "type": "address"
        }
      ],
      "name": "OwnershipTransferred",
      "type": "event"
    },
    {
      "anonymous": false,
      "inputs": [
        {
          "indexed": false,
          "internalType": "address",
          "name": "account",
          "type": "address"
        }
      ],
      "name": "Paused",
      "type": "event"
    },
    {
      "anonymous": false,
      "inputs": [
        {
          "indexed": true,
          "internalType": "address",
          "name": "operator",
          "type": "address"
        },
        {
          "indexed": true,
          "internalType": "address",
          "name": "from",
          "type": "address"
        },
        {
          "indexed": true,
          "internalType": "address",
          "name": "to",
          "type": "address"
        },
        {
          "indexed": false,
          "internalType": "uint256[]",
          "name": "ids",
          "type": "uint256[]"
        },
        {
          "indexed": false,
          "internalType": "uint256[]",
          "name": "values",
          "type": "uint256[]"
        }
      ],
      "name": "TransferBatch",
      "type": "event"
    },
    {
      "anonymous": false,
      "inputs": [
        {
          "indexed": true,
          "internalType": "address",
          "name": "operator",
          "type": "address"
        },
        {
          "indexed": true,
          "internalType": "address",
          "name": "from",
          "type": "address"
        },
        {
          "indexed": true,
          "internalType": "address",
          "name": "to",
          "type": "address"
        },
        {
          "indexed": false,
          "internalType": "uint256",
          "name": "id",
          "type": "uint256"
        },
        {
          "indexed": false,
          "internalType": "uint256",
          "name": "value",
          "type": "uint256"
        }
      ],
      "name": "TransferSingle",
      "type": "event"
    },
    {
      "anonymous": false,
      "inputs": [
        {
          "indexed": false,
          "internalType": "string",
          "name": "value",
          "type": "string"
        },
        {
          "indexed": true,
          "internalType": "uint256",
          "name": "id",
          "type": "uint256"
        }
      ],
      "name": "URI",
      "type": "event"
    },
    {
      "anonymous": false,
      "inputs": [
        {
          "indexed": false,
          "internalType": "address",
          "name": "account",
          "type": "address"
        }
      ],
      "name": "Unpaused",
      "type": "event"
    },
    {
      "inputs": [
        {
          "internalType": "uint256",
          "name": "id",
          "type": "uint256"
        },
        {
          "internalType": "uint256",
          "name": "amount",
          "type": "uint256"
        }
      ],
      "name": "addMint",
      "outputs": [],
      "stateMutability": "payable",
      "type": "function"
    },
    {
      "inputs": [
        {
          "internalType": "uint256",
          "name": "",
          "type": "uint256"
        }
      ],
      "name": "auctions",
      "outputs": [
        {
          "internalType": "uint256",
          "name": "id",
          "type": "uint256"
        },
        {
          "internalType": "uint256",
          "name": "tokenId",
          "type": "uint256"
        },
        {
          "internalType": "uint256",
          "name": "amount",
          "type": "uint256"
        },
        {
          "internalType": "address",
          "name": "owner",
          "type": "address"
        },
        {
          "internalType": "uint256",
          "name": "currentCost",
          "type": "uint256"
        },
        {
          "internalType": "address",
          "name": "currentBidder",
          "type": "address"
        },
        {
          "internalType": "uint256",
          "name": "timeLimit",
          "type": "uint256"
        },
        {
          "internalType": "uint256",
          "name": "timeEnd",
          "type": "uint256"
        },
        {
          "internalType": "uint8",
          "name": "isEnd",
          "type": "uint8"
        }
      ],
      "stateMutability": "view",
      "type": "function"
    },
    {
      "inputs": [
        {
          "internalType": "address",
          "name": "account",
          "type": "address"
        },
        {
          "internalType": "uint256",
          "name": "id",
          "type": "uint256"
        }
      ],
      "name": "balanceOf",
      "outputs": [
        {
          "internalType": "uint256",
          "name": "",
          "type": "uint256"
        }
      ],
      "stateMutability": "view",
      "type": "function"
    },
    {
      "inputs": [
        {
          "internalType": "address[]",
          "name": "accounts",
          "type": "address[]"
        },
        {
          "internalType": "uint256[]",
          "name": "ids",
          "type": "uint256[]"
        }
      ],
      "name": "balanceOfBatch",
      "outputs": [
        {
          "internalType": "uint256[]",
          "name": "",
          "type": "uint256[]"
        }
      ],
      "stateMutability": "view",
      "type": "function"
    },
    {
      "inputs": [
        {
          "internalType": "uint256",
          "name": "idAuction",
          "type": "uint256"
        }
      ],
      "name": "bid",
      "outputs": [],
      "stateMutability": "payable",
      "type": "function"
    },
    {
      "inputs": [
        {
          "internalType": "uint256",
          "name": "tokenId",
          "type": "uint256"
        },
        {
          "internalType": "uint256",
          "name": "amount",
          "type": "uint256"
        },
        {
          "internalType": "uint256",
          "name": "currentCost",
          "type": "uint256"
        },
        {
          "internalType": "uint256",
          "name": "timeLimit",
          "type": "uint256"
        },
        {
          "internalType": "uint256",
          "name": "timeEnd",
          "type": "uint256"
        }
      ],
      "name": "createAuction",
      "outputs": [],
      "stateMutability": "payable",
      "type": "function"
    },
    {
      "inputs": [
        {
          "internalType": "uint256",
          "name": "auctionId",
          "type": "uint256"
        }
      ],
      "name": "endAuction",
      "outputs": [],
      "stateMutability": "payable",
      "type": "function"
    },
    {
      "inputs": [
        {
          "internalType": "uint256",
          "name": "id",
          "type": "uint256"
        }
      ],
      "name": "exists",
      "outputs": [
        {
          "internalType": "bool",
          "name": "",
          "type": "bool"
        }
      ],
      "stateMutability": "view",
      "type": "function"
    },
    {
      "inputs": [],
      "name": "getAllTokenId",
      "outputs": [
        {
          "internalType": "uint256[]",
          "name": "",
          "type": "uint256[]"
        }
      ],
      "stateMutability": "view",
      "type": "function"
    },
    {
      "inputs": [
        {
          "internalType": "address",
          "name": "account",
          "type": "address"
        },
        {
          "internalType": "address",
          "name": "operator",
          "type": "address"
        }
      ],
      "name": "isApprovedForAll",
      "outputs": [
        {
          "internalType": "bool",
          "name": "",
          "type": "bool"
        }
      ],
      "stateMutability": "view",
      "type": "function"
    },
    {
      "inputs": [
        {
          "internalType": "uint256",
          "name": "amount",
          "type": "uint256"
        },
        {
          "internalType": "uint256",
          "name": "limit",
          "type": "uint256"
        },
        {
          "internalType": "string",
          "name": "_uri",
          "type": "string"
        }
      ],
      "name": "newMint",
      "outputs": [],
      "stateMutability": "payable",
      "type": "function"
    },
    {
      "inputs": [],
      "name": "owner",
      "outputs": [
        {
          "internalType": "address",
          "name": "",
          "type": "address"
        }
      ],
      "stateMutability": "view",
      "type": "function"
    },
    {
      "inputs": [],
      "name": "pause",
      "outputs": [],
      "stateMutability": "nonpayable",
      "type": "function"
    },
    {
      "inputs": [],
      "name": "paused",
      "outputs": [
        {
          "internalType": "bool",
          "name": "",
          "type": "bool"
        }
      ],
      "stateMutability": "view",
      "type": "function"
    },
    {
      "inputs": [],
      "name": "publicPrice",
      "outputs": [
        {
          "internalType": "uint256",
          "name": "",
          "type": "uint256"
        }
      ],
      "stateMutability": "view",
      "type": "function"
    },
    {
      "inputs": [],
      "name": "renounceOwnership",
      "outputs": [],
      "stateMutability": "nonpayable",
      "type": "function"
    },
    {
      "inputs": [
        {
          "internalType": "address",
          "name": "from",
          "type": "address"
        },
        {
          "internalType": "address",
          "name": "to",
          "type": "address"
        },
        {
          "internalType": "uint256[]",
          "name": "ids",
          "type": "uint256[]"
        },
        {
          "internalType": "uint256[]",
          "name": "amounts",
          "type": "uint256[]"
        },
        {
          "internalType": "bytes",
          "name": "data",
          "type": "bytes"
        }
      ],
      "name": "safeBatchTransferFrom",
      "outputs": [],
      "stateMutability": "nonpayable",
      "type": "function"
    },
    {
      "inputs": [
        {
          "internalType": "address",
          "name": "from",
          "type": "address"
        },
        {
          "internalType": "address",
          "name": "to",
          "type": "address"
        },
        {
          "internalType": "uint256",
          "name": "id",
          "type": "uint256"
        },
        {
          "internalType": "uint256",
          "name": "amount",
          "type": "uint256"
        },
        {
          "internalType": "bytes",
          "name": "data",
          "type": "bytes"
        }
      ],
      "name": "safeTransferFrom",
      "outputs": [],
      "stateMutability": "nonpayable",
      "type": "function"
    },
    {
      "inputs": [
        {
          "internalType": "address",
          "name": "operator",
          "type": "address"
        },
        {
          "internalType": "bool",
          "name": "approved",
          "type": "bool"
        }
      ],
      "name": "setApprovalForAll",
      "outputs": [],
      "stateMutability": "nonpayable",
      "type": "function"
    },
    {
      "inputs": [
        {
          "internalType": "string",
          "name": "newuri",
          "type": "string"
        }
      ],
      "name": "setURI",
      "outputs": [],
      "stateMutability": "nonpayable",
      "type": "function"
    },
    {
      "inputs": [
        {
          "internalType": "bytes4",
          "name": "interfaceId",
          "type": "bytes4"
        }
      ],
      "name": "supportsInterface",
      "outputs": [
        {
          "internalType": "bool",
          "name": "",
          "type": "bool"
        }
      ],
      "stateMutability": "view",
      "type": "function"
    },
    {
      "inputs": [
        {
          "internalType": "uint256",
          "name": "id",
          "type": "uint256"
        }
      ],
      "name": "totalSupply",
      "outputs": [
        {
          "internalType": "uint256",
          "name": "",
          "type": "uint256"
        }
      ],
      "stateMutability": "view",
      "type": "function"
    },
    {
      "inputs": [
        {
          "internalType": "address",
          "name": "newOwner",
          "type": "address"
        }
      ],
      "name": "transferOwnership",
      "outputs": [],
      "stateMutability": "nonpayable",
      "type": "function"
    },
    {
      "inputs": [],
      "name": "unpause",
      "outputs": [],
      "stateMutability": "nonpayable",
      "type": "function"
    },
    {
      "inputs": [
        {
          "internalType": "uint256",
          "name": "tokenId",
          "type": "uint256"
        }
      ],
      "name": "uri",
      "outputs": [
        {
          "internalType": "string",
          "name": "",
          "type": "string"
        }
      ],
      "stateMutability": "view",
      "type": "function"
    }
  ],
  "bytecode": "0x6080604052662386f26fc100006005556000600b556000600d553480156200002657600080fd5b506040518060400160405280601b81526020017f68747470733a2f2f697066732e696e667572612e696f3a3530303100000000008152506200006e81620000b060201b60201c565b506200008f62000083620000c560201b60201c565b620000cd60201b60201c565b6000600360146101000a81548160ff021916908315150217905550620004f4565b8060029081620000c191906200040d565b5050565b600033905090565b6000600360009054906101000a900473ffffffffffffffffffffffffffffffffffffffff16905081600360006101000a81548173ffffffffffffffffffffffffffffffffffffffff021916908373ffffffffffffffffffffffffffffffffffffffff1602179055508173ffffffffffffffffffffffffffffffffffffffff168173ffffffffffffffffffffffffffffffffffffffff167f8be0079c531659141344cd1fd0a4f28419497f9722a3daafe3b4186f6b6457e060405160405180910390a35050565b600081519050919050565b7f4e487b7100000000000000000000000000000000000000000000000000000000600052604160045260246000fd5b7f4e487b7100000000000000000000000000000000000000000000000000000000600052602260045260246000fd5b600060028204905060018216806200021557607f821691505b6020821081036200022b576200022a620001cd565b5b50919050565b60008190508160005260206000209050919050565b60006020601f8301049050919050565b600082821b905092915050565b600060088302620002957fffffffffffffffffffffffffffffffffffffffffffffffffffffffffffffffff8262000256565b620002a1868362000256565b95508019841693508086168417925050509392505050565b6000819050919050565b6000819050919050565b6000620002ee620002e8620002e284620002b9565b620002c3565b620002b9565b9050919050565b6000819050919050565b6200030a83620002cd565b620003226200031982620002f5565b84845462000263565b825550505050565b600090565b620003396200032a565b62000346818484620002ff565b505050565b5b818110156200036e57620003626000826200032f565b6001810190506200034c565b5050565b601f821115620003bd57620003878162000231565b620003928462000246565b81016020851015620003a2578190505b620003ba620003b18562000246565b8301826200034b565b50505b505050565b600082821c905092915050565b6000620003e260001984600802620003c2565b1980831691505092915050565b6000620003fd8383620003cf565b9150826002028217905092915050565b620004188262000193565b67ffffffffffffffff8111156200043457620004336200019e565b5b620004408254620001fc565b6200044d82828562000372565b600060209050601f83116001811462000485576000841562000470578287015190505b6200047c8582620003ef565b865550620004ec565b601f198416620004958662000231565b60005b82811015620004bf5784890151825560018201915060208501945060208101905062000498565b86831015620004df5784890151620004db601f891682620003cf565b8355505b6001600288020188555050505b505050505050565b614e9b80620005046000396000f3fe6080604052600436106101655760003560e01c80635c975abb116100d1578063a22cb4651161008a578063bd85b03911610064578063bd85b039146104d8578063e985e9c514610515578063f242432a14610552578063f2fde38b1461057b57610165565b8063a22cb46514610468578063a945bf8014610491578063b9a2de3a146104bc57610165565b80635c975abb146103ac578063715018a6146103d75780638456cb59146103ee5780638a157df3146104055780638ce0519b146104215780638da5cb5b1461043d57610165565b80633f4ba83a116101235780633f4ba83a1461029e578063454a2ab3146102b55780634e1273f4146102d15780634f558e791461030e578063523bb8c51461034b578063571a26a01461036757610165565b8062fdd58e1461016a57806301ffc9a7146101a757806302fe5305146101e4578063047640891461020d5780630e89341c146102385780632eb2c2d614610275575b600080fd5b34801561017657600080fd5b50610191600480360381019061018c9190612cab565b6105a4565b60405161019e9190612cfa565b60405180910390f35b3480156101b357600080fd5b506101ce60048036038101906101c99190612d6d565b61066c565b6040516101db9190612db5565b60405180910390f35b3480156101f057600080fd5b5061020b60048036038101906102069190612f16565b61074e565b005b34801561021957600080fd5b50610222610762565b60405161022f919061301d565b60405180910390f35b34801561024457600080fd5b5061025f600480360381019061025a919061303f565b6107ba565b60405161026c91906130eb565b60405180910390f35b34801561028157600080fd5b5061029c60048036038101906102979190613276565b61085f565b005b3480156102aa57600080fd5b506102b3610900565b005b6102cf60048036038101906102ca919061303f565b610912565b005b3480156102dd57600080fd5b506102f860048036038101906102f39190613408565b610b5d565b604051610305919061301d565b60405180910390f35b34801561031a57600080fd5b506103356004803603810190610330919061303f565b610c76565b6040516103429190612db5565b60405180910390f35b61036560048036038101906103609190613480565b610c8a565b005b34801561037357600080fd5b5061038e6004803603810190610389919061303f565b610e8a565b6040516103a39998979695949392919061351a565b60405180910390f35b3480156103b857600080fd5b506103c1610f25565b6040516103ce9190612db5565b60405180910390f35b3480156103e357600080fd5b506103ec610f3c565b005b3480156103fa57600080fd5b50610403610f50565b005b61041f600480360381019061041a91906135a7565b610f62565b005b61043b60048036038101906104369190613622565b61121f565b005b34801561044957600080fd5b50610452611365565b60405161045f9190613662565b60405180910390f35b34801561047457600080fd5b5061048f600480360381019061048a91906136a9565b61138f565b005b34801561049d57600080fd5b506104a66113a5565b6040516104b39190612cfa565b60405180910390f35b6104d660048036038101906104d1919061303f565b6113ab565b005b3480156104e457600080fd5b506104ff60048036038101906104fa919061303f565b6115f6565b60405161050c9190612cfa565b60405180910390f35b34801561052157600080fd5b5061053c600480360381019061053791906136e9565b611613565b6040516105499190612db5565b60405180910390f35b34801561055e57600080fd5b5061057960048036038101906105749190613729565b6116a7565b005b34801561058757600080fd5b506105a2600480360381019061059d91906137c0565b611748565b005b60008073ffffffffffffffffffffffffffffffffffffffff168373ffffffffffffffffffffffffffffffffffffffff1603610614576040517f08c379a000000000000000000000000000000000000000000000000000000000815260040161060b9061385f565b60405180910390fd5b60008083815260200190815260200160002060008473ffffffffffffffffffffffffffffffffffffffff1673ffffffffffffffffffffffffffffffffffffffff16815260200190815260200160002054905092915050565b60007fd9b67a26000000000000000000000000000000000000000000000000000000007bffffffffffffffffffffffffffffffffffffffffffffffffffffffff1916827bffffffffffffffffffffffffffffffffffffffffffffffffffffffff1916148061073757507f0e89341c000000000000000000000000000000000000000000000000000000007bffffffffffffffffffffffffffffffffffffffffffffffffffffffff1916827bffffffffffffffffffffffffffffffffffffffffffffffffffffffff1916145b806107475750610746826117cb565b5b9050919050565b610756611835565b61075f816118b3565b50565b6060600a8054806020026020016040519081016040528092919081815260200182805480156107b057602002820191906000526020600020905b81548152602001906001019080831161079c575b5050505050905090565b60606006600083815260200190815260200160002080546107da906138ae565b80601f0160208091040260200160405190810160405280929190818152602001828054610806906138ae565b80156108535780601f1061082857610100808354040283529160200191610853565b820191906000526020600020905b81548152906001019060200180831161083657829003601f168201915b50505050509050919050565b6108676118c6565b73ffffffffffffffffffffffffffffffffffffffff168573ffffffffffffffffffffffffffffffffffffffff1614806108ad57506108ac856108a76118c6565b611613565b5b6108ec576040517f08c379a00000000000000000000000000000000000000000000000000000000081526004016108e390613951565b60405180910390fd5b6108f985858585856118ce565b5050505050565b610908611835565b610910611bef565b565b6000600c6000838152602001908152602001600020600a0160009054906101000a900460ff1660ff161461097b576040517f08c379a0000000000000000000000000000000000000000000000000000000008152600401610972906139bd565b60405180910390fd5b600c60008281526020019081526020016000206004015434116109d3576040517f08c379a00000000000000000000000000000000000000000000000000000000081526004016109ca90613a29565b60405180910390fd5b600d548110610a17576040517f08c379a0000000000000000000000000000000000000000000000000000000008152600401610a0e90613a95565b60405180910390fd5b6000600c60008381526020019081526020016000209050610a3782611c52565b348160040181905550338160050160006101000a81548173ffffffffffffffffffffffffffffffffffffffff021916908373ffffffffffffffffffffffffffffffffffffffff16021790555080600801339080600181540180825580915050600190039060005260206000200160009091909190916101000a81548173ffffffffffffffffffffffffffffffffffffffff021916908373ffffffffffffffffffffffffffffffffffffffff160217905550806009013490806001815401808255809150506001900390600052602060002001600090919091909150553481600b0160003373ffffffffffffffffffffffffffffffffffffffff1673ffffffffffffffffffffffffffffffffffffffff168152602001908152602001600020819055505050565b60608151835114610ba3576040517f08c379a0000000000000000000000000000000000000000000000000000000008152600401610b9a90613b27565b60405180910390fd5b6000835167ffffffffffffffff811115610bc057610bbf612deb565b5b604051908082528060200260200182016040528015610bee5781602001602082028036833780820191505090505b50905060005b8451811015610c6b57610c3b858281518110610c1357610c12613b47565b5b6020026020010151858381518110610c2e57610c2d613b47565b5b60200260200101516105a4565b828281518110610c4e57610c4d613b47565b5b60200260200101818152505080610c6490613ba5565b9050610bf4565b508091505092915050565b600080610c82836115f6565b119050919050565b610c92611835565b82600554610ca09190613bed565b341015610ce2576040517f08c379a0000000000000000000000000000000000000000000000000000000008152600401610cd990613c7b565b60405180910390fd5b600060076000600b54815260200190815260200160002060009054906101000a900460ff1660ff1614610d4a576040517f08c379a0000000000000000000000000000000000000000000000000000000008152600401610d4190613ce7565b60405180910390fd5b818310610d8c576040517f08c379a0000000000000000000000000000000000000000000000000000000008152600401610d8390613d79565b60405180910390fd5b6000815111610dd0576040517f08c379a0000000000000000000000000000000000000000000000000000000008152600401610dc790613de5565b60405180910390fd5b610ded33600b548560405180602001604052806000815250611db8565b600a600b549080600181540180825580915050600190039060005260206000200160009091909190915055600160076000600b54815260200190815260200160002060006101000a81548160ff021916908360ff1602179055508160086000600b54815260200190815260200160002081905550610e6d600b5482611f68565b600b6000815480929190610e8090613ba5565b9190505550505050565b600c6020528060005260406000206000915090508060000154908060010154908060020154908060030160009054906101000a900473ffffffffffffffffffffffffffffffffffffffff16908060040154908060050160009054906101000a900473ffffffffffffffffffffffffffffffffffffffff169080600601549080600701549080600a0160009054906101000a900460ff16905089565b6000600360149054906101000a900460ff16905090565b610f44611835565b610f4e6000611ff7565b565b610f58611835565b610f606120bd565b565b60016007600087815260200190815260200160002060009054906101000a900460ff1660ff1614610fc8576040517f08c379a0000000000000000000000000000000000000000000000000000000008152600401610fbf90613e51565b60405180910390fd5b6001841461100b576040517f08c379a000000000000000000000000000000000000000000000000000000000815260040161100290613ebd565b60405180910390fd5b428211801561101a5750818110155b611059576040517f08c379a000000000000000000000000000000000000000000000000000000000815260040161105090613f4f565b60405180910390fd5b600061106533876105a4565b116110a5576040517f08c379a000000000000000000000000000000000000000000000000000000000815260040161109c90613fe1565b60405180910390fd5b60006009600087815260200190815260200160002054146110fb576040517f08c379a00000000000000000000000000000000000000000000000000000000081526004016110f290614073565b60405180910390fd5b6000600c6000600d5481526020019081526020016000209050858160010181905550848160020181905550338160030160006101000a81548173ffffffffffffffffffffffffffffffffffffffff021916908373ffffffffffffffffffffffffffffffffffffffff16021790555083816004018190555060008160050160006101000a81548173ffffffffffffffffffffffffffffffffffffffff021916908373ffffffffffffffffffffffffffffffffffffffff160217905550828160060181905550818160070181905550600081600a0160006101000a81548160ff021916908360ff160217905550600d60008154809291906111f990613ba5565b919050555060016009600088815260200190815260200160002081905550505050505050565b611227611835565b806005546112359190613bed565b341015611277576040517f08c379a000000000000000000000000000000000000000000000000000000000815260040161126e90613c7b565b60405180910390fd5b60016007600084815260200190815260200160002060009054906101000a900460ff1660ff16146112dd576040517f08c379a00000000000000000000000000000000000000000000000000000000081526004016112d4906140df565b60405180910390fd5b6008600083815260200190815260200160002054816112fb846115f6565b61130591906140ff565b1115611346576040517f08c379a000000000000000000000000000000000000000000000000000000000815260040161133d90613d79565b60405180910390fd5b61136133838360405180602001604052806000815250611db8565b5050565b6000600360009054906101000a900473ffffffffffffffffffffffffffffffffffffffff16905090565b6113a161139a6118c6565b8383612120565b5050565b60055481565b600d5481106113ef576040517f08c379a00000000000000000000000000000000000000000000000000000000081526004016113e69061417f565b60405180910390fd5b6000600c6000838152602001908152602001600020600a0160009054906101000a900460ff1660ff1614611458576040517f08c379a000000000000000000000000000000000000000000000000000000000815260040161144f906141eb565b60405180910390fd5b600c60008281526020019081526020016000206006015442116114b0576040517f08c379a00000000000000000000000000000000000000000000000000000000081526004016114a79061427d565b60405180910390fd5b6000600c6000838152602001908152602001600020905060008160050160009054906101000a900473ffffffffffffffffffffffffffffffffffffffff1690506000826004015490506115418360030160009054906101000a900473ffffffffffffffffffffffffffffffffffffffff168385600101548660020154604051806020016040528060008152506116a7565b8260030160009054906101000a900473ffffffffffffffffffffffffffffffffffffffff1673ffffffffffffffffffffffffffffffffffffffff166108fc829081150290604051600060405180830381858888f193505050501580156115ab573d6000803e3d6000fd5b506115b584611c52565b600183600a0160006101000a81548160ff021916908360ff160217905550600060096000856001015481526020019081526020016000208190555050505050565b600060046000838152602001908152602001600020549050919050565b6000600160008473ffffffffffffffffffffffffffffffffffffffff1673ffffffffffffffffffffffffffffffffffffffff16815260200190815260200160002060008373ffffffffffffffffffffffffffffffffffffffff1673ffffffffffffffffffffffffffffffffffffffff16815260200190815260200160002060009054906101000a900460ff16905092915050565b6116af6118c6565b73ffffffffffffffffffffffffffffffffffffffff168573ffffffffffffffffffffffffffffffffffffffff1614806116f557506116f4856116ef6118c6565b611613565b5b611734576040517f08c379a000000000000000000000000000000000000000000000000000000000815260040161172b90613951565b60405180910390fd5b611741858585858561228c565b5050505050565b611750611835565b600073ffffffffffffffffffffffffffffffffffffffff168173ffffffffffffffffffffffffffffffffffffffff16036117bf576040517f08c379a00000000000000000000000000000000000000000000000000000000081526004016117b69061430f565b60405180910390fd5b6117c881611ff7565b50565b60007f01ffc9a7000000000000000000000000000000000000000000000000000000007bffffffffffffffffffffffffffffffffffffffffffffffffffffffff1916827bffffffffffffffffffffffffffffffffffffffffffffffffffffffff1916149050919050565b61183d6118c6565b73ffffffffffffffffffffffffffffffffffffffff1661185b611365565b73ffffffffffffffffffffffffffffffffffffffff16146118b1576040517f08c379a00000000000000000000000000000000000000000000000000000000081526004016118a89061437b565b60405180910390fd5b565b80600290816118c29190614547565b5050565b600033905090565b8151835114611912576040517f08c379a00000000000000000000000000000000000000000000000000000000081526004016119099061468b565b60405180910390fd5b600073ffffffffffffffffffffffffffffffffffffffff168473ffffffffffffffffffffffffffffffffffffffff1603611981576040517f08c379a00000000000000000000000000000000000000000000000000000000081526004016119789061471d565b60405180910390fd5b600061198b6118c6565b905061199b818787878787612527565b60005b8451811015611b4c5760008582815181106119bc576119bb613b47565b5b6020026020010151905060008583815181106119db576119da613b47565b5b60200260200101519050600080600084815260200190815260200160002060008b73ffffffffffffffffffffffffffffffffffffffff1673ffffffffffffffffffffffffffffffffffffffff16815260200190815260200160002054905081811015611a7c576040517f08c379a0000000000000000000000000000000000000000000000000000000008152600401611a73906147af565b60405180910390fd5b81810360008085815260200190815260200160002060008c73ffffffffffffffffffffffffffffffffffffffff1673ffffffffffffffffffffffffffffffffffffffff168152602001908152602001600020819055508160008085815260200190815260200160002060008b73ffffffffffffffffffffffffffffffffffffffff1673ffffffffffffffffffffffffffffffffffffffff1681526020019081526020016000206000828254611b3191906140ff565b9250508190555050505080611b4590613ba5565b905061199e565b508473ffffffffffffffffffffffffffffffffffffffff168673ffffffffffffffffffffffffffffffffffffffff168273ffffffffffffffffffffffffffffffffffffffff167f4a39dc06d4c0dbc64b70af90fd698a233a518aa5d07e595d983b8c0526c8f7fb8787604051611bc39291906147cf565b60405180910390a4611bd9818787878787612545565b611be781878787878761254d565b505050505050565b611bf7612724565b6000600360146101000a81548160ff0219169083151502179055507f5db9ee0a495bf2e6ff9c91a7834c1ba4fdd244a5e8aa4e537bd38aeae4b073aa611c3b6118c6565b604051611c489190613662565b60405180910390a1565b6000600c6000838152602001908152602001600020905060005b8160080180549050811015611db3576000826008018281548110611c9357611c92613b47565b5b9060005260206000200160009054906101000a900473ffffffffffffffffffffffffffffffffffffffff169050600083600b0160008373ffffffffffffffffffffffffffffffffffffffff1673ffffffffffffffffffffffffffffffffffffffff1681526020019081526020016000205490506000811115611d9e57600084600b0160008473ffffffffffffffffffffffffffffffffffffffff1673ffffffffffffffffffffffffffffffffffffffff168152602001908152602001600020819055508173ffffffffffffffffffffffffffffffffffffffff166108fc829081150290604051600060405180830381858888f19350505050158015611d9c573d6000803e3d6000fd5b505b50508080611dab90613ba5565b915050611c6c565b505050565b600073ffffffffffffffffffffffffffffffffffffffff168473ffffffffffffffffffffffffffffffffffffffff1603611e27576040517f08c379a0000000000000000000000000000000000000000000000000000000008152600401611e1e90614878565b60405180910390fd5b6000611e316118c6565b90506000611e3e8561276d565b90506000611e4b8561276d565b9050611e5c83600089858589612527565b8460008088815260200190815260200160002060008973ffffffffffffffffffffffffffffffffffffffff1673ffffffffffffffffffffffffffffffffffffffff1681526020019081526020016000206000828254611ebb91906140ff565b925050819055508673ffffffffffffffffffffffffffffffffffffffff16600073ffffffffffffffffffffffffffffffffffffffff168473ffffffffffffffffffffffffffffffffffffffff167fc3d58168c5ae7397731d063d5bbf3d657854427343f4c083240f7aacaa2d0f628989604051611f39929190614898565b60405180910390a4611f5083600089858589612545565b611f5f836000898989896127e7565b50505050505050565b611f70611835565b6000600660008481526020019081526020016000208054611f90906138ae565b905014611fd2576040517f08c379a0000000000000000000000000000000000000000000000000000000008152600401611fc99061490d565b60405180910390fd5b80600660008481526020019081526020016000209081611ff29190614547565b505050565b6000600360009054906101000a900473ffffffffffffffffffffffffffffffffffffffff16905081600360006101000a81548173ffffffffffffffffffffffffffffffffffffffff021916908373ffffffffffffffffffffffffffffffffffffffff1602179055508173ffffffffffffffffffffffffffffffffffffffff168173ffffffffffffffffffffffffffffffffffffffff167f8be0079c531659141344cd1fd0a4f28419497f9722a3daafe3b4186f6b6457e060405160405180910390a35050565b6120c56129be565b6001600360146101000a81548160ff0219169083151502179055507f62e78cea01bee320cd4e420270b5ea74000d11b0c9f74754ebdbfc544b05a2586121096118c6565b6040516121169190613662565b60405180910390a1565b8173ffffffffffffffffffffffffffffffffffffffff168373ffffffffffffffffffffffffffffffffffffffff160361218e576040517f08c379a00000000000000000000000000000000000000000000000000000000081526004016121859061499f565b60405180910390fd5b80600160008573ffffffffffffffffffffffffffffffffffffffff1673ffffffffffffffffffffffffffffffffffffffff16815260200190815260200160002060008473ffffffffffffffffffffffffffffffffffffffff1673ffffffffffffffffffffffffffffffffffffffff16815260200190815260200160002060006101000a81548160ff0219169083151502179055508173ffffffffffffffffffffffffffffffffffffffff168373ffffffffffffffffffffffffffffffffffffffff167f17307eab39ab6107e8899845ad3d59bd9653f200f220920489ca2b5937696c318360405161227f9190612db5565b60405180910390a3505050565b600073ffffffffffffffffffffffffffffffffffffffff168473ffffffffffffffffffffffffffffffffffffffff16036122fb576040517f08c379a00000000000000000000000000000000000000000000000000000000081526004016122f29061471d565b60405180910390fd5b60006123056118c6565b905060006123128561276d565b9050600061231f8561276d565b905061232f838989858589612527565b600080600088815260200190815260200160002060008a73ffffffffffffffffffffffffffffffffffffffff1673ffffffffffffffffffffffffffffffffffffffff168152602001908152602001600020549050858110156123c6576040517f08c379a00000000000000000000000000000000000000000000000000000000081526004016123bd906147af565b60405180910390fd5b85810360008089815260200190815260200160002060008b73ffffffffffffffffffffffffffffffffffffffff1673ffffffffffffffffffffffffffffffffffffffff168152602001908152602001600020819055508560008089815260200190815260200160002060008a73ffffffffffffffffffffffffffffffffffffffff1673ffffffffffffffffffffffffffffffffffffffff168152602001908152602001600020600082825461247b91906140ff565b925050819055508773ffffffffffffffffffffffffffffffffffffffff168973ffffffffffffffffffffffffffffffffffffffff168573ffffffffffffffffffffffffffffffffffffffff167fc3d58168c5ae7397731d063d5bbf3d657854427343f4c083240f7aacaa2d0f628a8a6040516124f8929190614898565b60405180910390a461250e848a8a86868a612545565b61251c848a8a8a8a8a6127e7565b505050505050505050565b61252f6129be565b61253d868686868686612a08565b505050505050565b505050505050565b61256c8473ffffffffffffffffffffffffffffffffffffffff16612bd8565b1561271c578373ffffffffffffffffffffffffffffffffffffffff1663bc197c8187878686866040518663ffffffff1660e01b81526004016125b2959493929190614a14565b6020604051808303816000875af19250505080156125ee57506040513d601f19601f820116820180604052508101906125eb9190614a91565b60015b612693576125fa614acb565b806308c379a003612656575061260e614aed565b806126195750612658565b806040517f08c379a000000000000000000000000000000000000000000000000000000000815260040161264d91906130eb565b60405180910390fd5b505b6040517f08c379a000000000000000000000000000000000000000000000000000000000815260040161268a90614bef565b60405180910390fd5b63bc197c8160e01b7bffffffffffffffffffffffffffffffffffffffffffffffffffffffff1916817bffffffffffffffffffffffffffffffffffffffffffffffffffffffff19161461271a576040517f08c379a000000000000000000000000000000000000000000000000000000000815260040161271190614c81565b60405180910390fd5b505b505050505050565b61272c610f25565b61276b576040517f08c379a000000000000000000000000000000000000000000000000000000000815260040161276290614ced565b60405180910390fd5b565b60606000600167ffffffffffffffff81111561278c5761278b612deb565b5b6040519080825280602002602001820160405280156127ba5781602001602082028036833780820191505090505b50905082816000815181106127d2576127d1613b47565b5b60200260200101818152505080915050919050565b6128068473ffffffffffffffffffffffffffffffffffffffff16612bd8565b156129b6578373ffffffffffffffffffffffffffffffffffffffff1663f23a6e6187878686866040518663ffffffff1660e01b815260040161284c959493929190614d0d565b6020604051808303816000875af192505050801561288857506040513d601f19601f820116820180604052508101906128859190614a91565b60015b61292d57612894614acb565b806308c379a0036128f057506128a8614aed565b806128b357506128f2565b806040517f08c379a00000000000000000000000000000000000000000000000000000000081526004016128e791906130eb565b60405180910390fd5b505b6040517f08c379a000000000000000000000000000000000000000000000000000000000815260040161292490614bef565b60405180910390fd5b63f23a6e6160e01b7bffffffffffffffffffffffffffffffffffffffffffffffffffffffff1916817bffffffffffffffffffffffffffffffffffffffffffffffffffffffff1916146129b4576040517f08c379a00000000000000000000000000000000000000000000000000000000081526004016129ab90614c81565b60405180910390fd5b505b505050505050565b6129c6610f25565b15612a06576040517f08c379a00000000000000000000000000000000000000000000000000000000081526004016129fd90614db3565b60405180910390fd5b565b612a16868686868686612bfb565b600073ffffffffffffffffffffffffffffffffffffffff168573ffffffffffffffffffffffffffffffffffffffff1603612ac75760005b8351811015612ac557828181518110612a6957612a68613b47565b5b602002602001015160046000868481518110612a8857612a87613b47565b5b602002602001015181526020019081526020016000206000828254612aad91906140ff565b9250508190555080612abe90613ba5565b9050612a4d565b505b600073ffffffffffffffffffffffffffffffffffffffff168473ffffffffffffffffffffffffffffffffffffffff1603612bd05760005b8351811015612bce576000848281518110612b1c57612b1b613b47565b5b602002602001015190506000848381518110612b3b57612b3a613b47565b5b6020026020010151905060006004600084815260200190815260200160002054905081811015612ba0576040517f08c379a0000000000000000000000000000000000000000000000000000000008152600401612b9790614e45565b60405180910390fd5b818103600460008581526020019081526020016000208190555050505080612bc790613ba5565b9050612afe565b505b505050505050565b6000808273ffffffffffffffffffffffffffffffffffffffff163b119050919050565b505050505050565b6000604051905090565b600080fd5b600080fd5b600073ffffffffffffffffffffffffffffffffffffffff82169050919050565b6000612c4282612c17565b9050919050565b612c5281612c37565b8114612c5d57600080fd5b50565b600081359050612c6f81612c49565b92915050565b6000819050919050565b612c8881612c75565b8114612c9357600080fd5b50565b600081359050612ca581612c7f565b92915050565b60008060408385031215612cc257612cc1612c0d565b5b6000612cd085828601612c60565b9250506020612ce185828601612c96565b9150509250929050565b612cf481612c75565b82525050565b6000602082019050612d0f6000830184612ceb565b92915050565b60007fffffffff0000000000000000000000000000000000000000000000000000000082169050919050565b612d4a81612d15565b8114612d5557600080fd5b50565b600081359050612d6781612d41565b92915050565b600060208284031215612d8357612d82612c0d565b5b6000612d9184828501612d58565b91505092915050565b60008115159050919050565b612daf81612d9a565b82525050565b6000602082019050612dca6000830184612da6565b92915050565b600080fd5b600080fd5b6000601f19601f8301169050919050565b7f4e487b7100000000000000000000000000000000000000000000000000000000600052604160045260246000fd5b612e2382612dda565b810181811067ffffffffffffffff82111715612e4257612e41612deb565b5b80604052505050565b6000612e55612c03565b9050612e618282612e1a565b919050565b600067ffffffffffffffff821115612e8157612e80612deb565b5b612e8a82612dda565b9050602081019050919050565b82818337600083830152505050565b6000612eb9612eb484612e66565b612e4b565b905082815260208101848484011115612ed557612ed4612dd5565b5b612ee0848285612e97565b509392505050565b600082601f830112612efd57612efc612dd0565b5b8135612f0d848260208601612ea6565b91505092915050565b600060208284031215612f2c57612f2b612c0d565b5b600082013567ffffffffffffffff811115612f4a57612f49612c12565b5b612f5684828501612ee8565b91505092915050565b600081519050919050565b600082825260208201905092915050565b6000819050602082019050919050565b612f9481612c75565b82525050565b6000612fa68383612f8b565b60208301905092915050565b6000602082019050919050565b6000612fca82612f5f565b612fd48185612f6a565b9350612fdf83612f7b565b8060005b83811015613010578151612ff78882612f9a565b975061300283612fb2565b925050600181019050612fe3565b5085935050505092915050565b600060208201905081810360008301526130378184612fbf565b905092915050565b60006020828403121561305557613054612c0d565b5b600061306384828501612c96565b91505092915050565b600081519050919050565b600082825260208201905092915050565b60005b838110156130a657808201518184015260208101905061308b565b60008484015250505050565b60006130bd8261306c565b6130c78185613077565b93506130d7818560208601613088565b6130e081612dda565b840191505092915050565b6000602082019050818103600083015261310581846130b2565b905092915050565b600067ffffffffffffffff82111561312857613127612deb565b5b602082029050602081019050919050565b600080fd5b600061315161314c8461310d565b612e4b565b9050808382526020820190506020840283018581111561317457613173613139565b5b835b8181101561319d57806131898882612c96565b845260208401935050602081019050613176565b5050509392505050565b600082601f8301126131bc576131bb612dd0565b5b81356131cc84826020860161313e565b91505092915050565b600067ffffffffffffffff8211156131f0576131ef612deb565b5b6131f982612dda565b9050602081019050919050565b6000613219613214846131d5565b612e4b565b90508281526020810184848401111561323557613234612dd5565b5b613240848285612e97565b509392505050565b600082601f83011261325d5761325c612dd0565b5b813561326d848260208601613206565b91505092915050565b600080600080600060a0868803121561329257613291612c0d565b5b60006132a088828901612c60565b95505060206132b188828901612c60565b945050604086013567ffffffffffffffff8111156132d2576132d1612c12565b5b6132de888289016131a7565b935050606086013567ffffffffffffffff8111156132ff576132fe612c12565b5b61330b888289016131a7565b925050608086013567ffffffffffffffff81111561332c5761332b612c12565b5b61333888828901613248565b9150509295509295909350565b600067ffffffffffffffff8211156133605761335f612deb565b5b602082029050602081019050919050565b600061338461337f84613345565b612e4b565b905080838252602082019050602084028301858111156133a7576133a6613139565b5b835b818110156133d057806133bc8882612c60565b8452602084019350506020810190506133a9565b5050509392505050565b600082601f8301126133ef576133ee612dd0565b5b81356133ff848260208601613371565b91505092915050565b6000806040838503121561341f5761341e612c0d565b5b600083013567ffffffffffffffff81111561343d5761343c612c12565b5b613449858286016133da565b925050602083013567ffffffffffffffff81111561346a57613469612c12565b5b613476858286016131a7565b9150509250929050565b60008060006060848603121561349957613498612c0d565b5b60006134a786828701612c96565b93505060206134b886828701612c96565b925050604084013567ffffffffffffffff8111156134d9576134d8612c12565b5b6134e586828701612ee8565b9150509250925092565b6134f881612c37565b82525050565b600060ff82169050919050565b613514816134fe565b82525050565b600061012082019050613530600083018c612ceb565b61353d602083018b612ceb565b61354a604083018a612ceb565b61355760608301896134ef565b6135646080830188612ceb565b61357160a08301876134ef565b61357e60c0830186612ceb565b61358b60e0830185612ceb565b61359961010083018461350b565b9a9950505050505050505050565b600080600080600060a086880312156135c3576135c2612c0d565b5b60006135d188828901612c96565b95505060206135e288828901612c96565b94505060406135f388828901612c96565b935050606061360488828901612c96565b925050608061361588828901612c96565b9150509295509295909350565b6000806040838503121561363957613638612c0d565b5b600061364785828601612c96565b925050602061365885828601612c96565b9150509250929050565b600060208201905061367760008301846134ef565b92915050565b61368681612d9a565b811461369157600080fd5b50565b6000813590506136a38161367d565b92915050565b600080604083850312156136c0576136bf612c0d565b5b60006136ce85828601612c60565b92505060206136df85828601613694565b9150509250929050565b60008060408385031215613700576136ff612c0d565b5b600061370e85828601612c60565b925050602061371f85828601612c60565b9150509250929050565b600080600080600060a0868803121561374557613744612c0d565b5b600061375388828901612c60565b955050602061376488828901612c60565b945050604061377588828901612c96565b935050606061378688828901612c96565b925050608086013567ffffffffffffffff8111156137a7576137a6612c12565b5b6137b388828901613248565b9150509295509295909350565b6000602082840312156137d6576137d5612c0d565b5b60006137e484828501612c60565b91505092915050565b7f455243313135353a2061646472657373207a65726f206973206e6f742061207660008201527f616c6964206f776e657200000000000000000000000000000000000000000000602082015250565b6000613849602a83613077565b9150613854826137ed565b604082019050919050565b600060208201905081810360008301526138788161383c565b9050919050565b7f4e487b7100000000000000000000000000000000000000000000000000000000600052602260045260246000fd5b600060028204905060018216806138c657607f821691505b6020821081036138d9576138d861387f565b5b50919050565b7f455243313135353a2063616c6c6572206973206e6f7420746f6b656e206f776e60008201527f6572206f7220617070726f766564000000000000000000000000000000000000602082015250565b600061393b602e83613077565b9150613946826138df565b604082019050919050565b6000602082019050818103600083015261396a8161392e565b9050919050565b7f41756374696f6e2068617320656e646564000000000000000000000000000000600082015250565b60006139a7601183613077565b91506139b282613971565b602082019050919050565b600060208201905081810360008301526139d68161399a565b9050919050565b7f4861766520746f20706179206120686967686572207072696365000000000000600082015250565b6000613a13601a83613077565b9150613a1e826139dd565b602082019050919050565b60006020820190508181036000830152613a4281613a06565b9050919050565b7f546869732061756374696f6e20646f6573206e6f742065786973740000000000600082015250565b6000613a7f601b83613077565b9150613a8a82613a49565b602082019050919050565b60006020820190508181036000830152613aae81613a72565b9050919050565b7f455243313135353a206163636f756e747320616e6420696473206c656e67746860008201527f206d69736d617463680000000000000000000000000000000000000000000000602082015250565b6000613b11602983613077565b9150613b1c82613ab5565b604082019050919050565b60006020820190508181036000830152613b4081613b04565b9050919050565b7f4e487b7100000000000000000000000000000000000000000000000000000000600052603260045260246000fd5b7f4e487b7100000000000000000000000000000000000000000000000000000000600052601160045260246000fd5b6000613bb082612c75565b91507fffffffffffffffffffffffffffffffffffffffffffffffffffffffffffffffff8203613be257613be1613b76565b5b600182019050919050565b6000613bf882612c75565b9150613c0383612c75565b9250828202613c1181612c75565b91508282048414831517613c2857613c27613b76565b5b5092915050565b7f57524f4e472c204e6f7420656e6f756768206d6f6e65792073656e7400000000600082015250565b6000613c65601c83613077565b9150613c7082613c2f565b602082019050919050565b60006020820190508181036000830152613c9481613c58565b9050919050565b7f45786974656420746f6b656e0000000000000000000000000000000000000000600082015250565b6000613cd1600c83613077565b9150613cdc82613c9b565b602082019050919050565b60006020820190508181036000830152613d0081613cc4565b9050919050565b7f596f7520686176652063726561746564206d6f7265207468616e20616c6c6f7760008201527f656420616d6f756e740000000000000000000000000000000000000000000000602082015250565b6000613d63602983613077565b9150613d6e82613d07565b604082019050919050565b60006020820190508181036000830152613d9281613d56565b9050919050565b7f506c6561736520616464206461746120746f2074686973206e66740000000000600082015250565b6000613dcf601b83613077565b9150613dda82613d99565b602082019050919050565b60006020820190508181036000830152613dfe81613dc2565b9050919050565b7f4e6f74206578697473207468697320746f6b656e496400000000000000000000600082015250565b6000613e3b601683613077565b9150613e4682613e05565b602082019050919050565b60006020820190508181036000830152613e6a81613e2e565b9050919050565b7f616d6f756e74206973206e6f742076616c696400000000000000000000000000600082015250565b6000613ea7601383613077565b9150613eb282613e71565b602082019050919050565b60006020820190508181036000830152613ed681613e9a565b9050919050565b7f54686520646561646c696e652073686f756c642062652061206461746520696e60008201527f20746865206675747572652e0000000000000000000000000000000000000000602082015250565b6000613f39602c83613077565b9150613f4482613edd565b604082019050919050565b60006020820190508181036000830152613f6881613f2c565b9050919050565b7f5468697320746f6b656e20646f6573206e6f7420657869737420696e20796f7560008201527f722077616c6c6574000000000000000000000000000000000000000000000000602082015250565b6000613fcb602883613077565b9150613fd682613f6f565b604082019050919050565b60006020820190508181036000830152613ffa81613fbe565b9050919050565b7f416e2061756374696f6e20666f72207468697320746f6b656e20616c7265616460008201527f7920657869737473000000000000000000000000000000000000000000000000602082015250565b600061405d602883613077565b915061406882614001565b604082019050919050565b6000602082019050818103600083015261408c81614050565b9050919050565b7f4e6f7420657869747320746f6b656e0000000000000000000000000000000000600082015250565b60006140c9600f83613077565b91506140d482614093565b602082019050919050565b600060208201905081810360008301526140f8816140bc565b9050919050565b600061410a82612c75565b915061411583612c75565b925082820190508082111561412d5761412c613b76565b5b92915050565b7f41756374696f6e20646f6573206e6f7420657869737400000000000000000000600082015250565b6000614169601683613077565b915061417482614133565b602082019050919050565b600060208201905081810360008301526141988161415c565b9050919050565b7f546869732061756374696f6e2068617320656e64656400000000000000000000600082015250565b60006141d5601683613077565b91506141e08261419f565b602082019050919050565b60006020820190508181036000830152614204816141c8565b9050919050565b7f546865206d696e696d756d2074696d6520686173206e6f74206265656e20726560008201527f616368656420746f20656e640000000000000000000000000000000000000000602082015250565b6000614267602c83613077565b91506142728261420b565b604082019050919050565b600060208201905081810360008301526142968161425a565b9050919050565b7f4f776e61626c653a206e6577206f776e657220697320746865207a65726f206160008201527f6464726573730000000000000000000000000000000000000000000000000000602082015250565b60006142f9602683613077565b91506143048261429d565b604082019050919050565b60006020820190508181036000830152614328816142ec565b9050919050565b7f4f776e61626c653a2063616c6c6572206973206e6f7420746865206f776e6572600082015250565b6000614365602083613077565b91506143708261432f565b602082019050919050565b6000602082019050818103600083015261439481614358565b9050919050565b60008190508160005260206000209050919050565b60006020601f8301049050919050565b600082821b905092915050565b6000600883026143fd7fffffffffffffffffffffffffffffffffffffffffffffffffffffffffffffffff826143c0565b61440786836143c0565b95508019841693508086168417925050509392505050565b6000819050919050565b600061444461443f61443a84612c75565b61441f565b612c75565b9050919050565b6000819050919050565b61445e83614429565b61447261446a8261444b565b8484546143cd565b825550505050565b600090565b61448761447a565b614492818484614455565b505050565b5b818110156144b6576144ab60008261447f565b600181019050614498565b5050565b601f8211156144fb576144cc8161439b565b6144d5846143b0565b810160208510156144e4578190505b6144f86144f0856143b0565b830182614497565b50505b505050565b600082821c905092915050565b600061451e60001984600802614500565b1980831691505092915050565b6000614537838361450d565b9150826002028217905092915050565b6145508261306c565b67ffffffffffffffff81111561456957614568612deb565b5b61457382546138ae565b61457e8282856144ba565b600060209050601f8311600181146145b1576000841561459f578287015190505b6145a9858261452b565b865550614611565b601f1984166145bf8661439b565b60005b828110156145e7578489015182556001820191506020850194506020810190506145c2565b868310156146045784890151614600601f89168261450d565b8355505b6001600288020188555050505b505050505050565b7f455243313135353a2069647320616e6420616d6f756e7473206c656e6774682060008201527f6d69736d61746368000000000000000000000000000000000000000000000000602082015250565b6000614675602883613077565b915061468082614619565b604082019050919050565b600060208201905081810360008301526146a481614668565b9050919050565b7f455243313135353a207472616e7366657220746f20746865207a65726f20616460008201527f6472657373000000000000000000000000000000000000000000000000000000602082015250565b6000614707602583613077565b9150614712826146ab565b604082019050919050565b60006020820190508181036000830152614736816146fa565b9050919050565b7f455243313135353a20696e73756666696369656e742062616c616e636520666f60008201527f72207472616e7366657200000000000000000000000000000000000000000000602082015250565b6000614799602a83613077565b91506147a48261473d565b604082019050919050565b600060208201905081810360008301526147c88161478c565b9050919050565b600060408201905081810360008301526147e98185612fbf565b905081810360208301526147fd8184612fbf565b90509392505050565b7f455243313135353a206d696e7420746f20746865207a65726f2061646472657360008201527f7300000000000000000000000000000000000000000000000000000000000000602082015250565b6000614862602183613077565b915061486d82614806565b604082019050919050565b6000602082019050818103600083015261489181614855565b9050919050565b60006040820190506148ad6000830185612ceb565b6148ba6020830184612ceb565b9392505050565b7f43616e6e6f742073657420757269207477696365000000000000000000000000600082015250565b60006148f7601483613077565b9150614902826148c1565b602082019050919050565b60006020820190508181036000830152614926816148ea565b9050919050565b7f455243313135353a2073657474696e6720617070726f76616c2073746174757360008201527f20666f722073656c660000000000000000000000000000000000000000000000602082015250565b6000614989602983613077565b91506149948261492d565b604082019050919050565b600060208201905081810360008301526149b88161497c565b9050919050565b600081519050919050565b600082825260208201905092915050565b60006149e6826149bf565b6149f081856149ca565b9350614a00818560208601613088565b614a0981612dda565b840191505092915050565b600060a082019050614a2960008301886134ef565b614a3660208301876134ef565b8181036040830152614a488186612fbf565b90508181036060830152614a5c8185612fbf565b90508181036080830152614a7081846149db565b90509695505050505050565b600081519050614a8b81612d41565b92915050565b600060208284031215614aa757614aa6612c0d565b5b6000614ab584828501614a7c565b91505092915050565b60008160e01c9050919050565b600060033d1115614aea5760046000803e614ae7600051614abe565b90505b90565b600060443d10614b7a57614aff612c03565b60043d036004823e80513d602482011167ffffffffffffffff82111715614b27575050614b7a565b808201805167ffffffffffffffff811115614b455750505050614b7a565b80602083010160043d038501811115614b62575050505050614b7a565b614b7182602001850186612e1a565b82955050505050505b90565b7f455243313135353a207472616e7366657220746f206e6f6e2d4552433131353560008201527f526563656976657220696d706c656d656e746572000000000000000000000000602082015250565b6000614bd9603483613077565b9150614be482614b7d565b604082019050919050565b60006020820190508181036000830152614c0881614bcc565b9050919050565b7f455243313135353a204552433131353552656365697665722072656a6563746560008201527f6420746f6b656e73000000000000000000000000000000000000000000000000602082015250565b6000614c6b602883613077565b9150614c7682614c0f565b604082019050919050565b60006020820190508181036000830152614c9a81614c5e565b9050919050565b7f5061757361626c653a206e6f7420706175736564000000000000000000000000600082015250565b6000614cd7601483613077565b9150614ce282614ca1565b602082019050919050565b60006020820190508181036000830152614d0681614cca565b9050919050565b600060a082019050614d2260008301886134ef565b614d2f60208301876134ef565b614d3c6040830186612ceb565b614d496060830185612ceb565b8181036080830152614d5b81846149db565b90509695505050505050565b7f5061757361626c653a2070617573656400000000000000000000000000000000600082015250565b6000614d9d601083613077565b9150614da882614d67565b602082019050919050565b60006020820190508181036000830152614dcc81614d90565b9050919050565b7f455243313135353a206275726e20616d6f756e74206578636565647320746f7460008201527f616c537570706c79000000000000000000000000000000000000000000000000602082015250565b6000614e2f602883613077565b9150614e3a82614dd3565b604082019050919050565b60006020820190508181036000830152614e5e81614e22565b905091905056fea26469706673582212205d7dd4229f7b483157e18705f3b1e92dd4d2e82dec9a1fe9ad24a0a9f179d92d64736f6c63430008130033",
  "linkReferences": {},
  "deployedLinkReferences": {}
}