{
  "_format": "hh-sol-artifact-1",
  "contractName": "AuctionContract",
  "sourceName": "contracts/AuctionContract.sol",
  "abi": [
    {
      "inputs": [],
      "stateMutability": "nonpayable",
      "type": "constructor"
    },
    {
      "anonymous": false,
      "inputs": [
        {
          "indexed": true,
          "internalType": "address",
          "name": "account",
          "type": "address"
        },
        {
          "indexed": true,
          "internalType": "address",
          "name": "operator",
          "type": "address"
        },
        {
          "indexed": false,
          "internalType": "bool",
          "name": "approved",
          "type": "bool"
        }
      ],
      "name": "ApprovalForAll",
      "type": "event"
    },
    {
      "anonymous": false,
      "inputs": [
        {
          "indexed": true,
          "internalType": "address",
          "name": "previousOwner",
          "type": "address"
        },
        {
          "indexed": true,
          "internalType": "address",
          "name": "newOwner",
          "type": "address"
        }
      ],
      "name": "OwnershipTransferred",
      "type": "event"
    },
    {
      "anonymous": false,
      "inputs": [
        {
          "indexed": false,
          "internalType": "address",
          "name": "account",
          "type": "address"
        }
      ],
      "name": "Paused",
      "type": "event"
    },
    {
      "anonymous": false,
      "inputs": [
        {
          "indexed": true,
          "internalType": "address",
          "name": "operator",
          "type": "address"
        },
        {
          "indexed": true,
          "internalType": "address",
          "name": "from",
          "type": "address"
        },
        {
          "indexed": true,
          "internalType": "address",
          "name": "to",
          "type": "address"
        },
        {
          "indexed": false,
          "internalType": "uint256[]",
          "name": "ids",
          "type": "uint256[]"
        },
        {
          "indexed": false,
          "internalType": "uint256[]",
          "name": "values",
          "type": "uint256[]"
        }
      ],
      "name": "TransferBatch",
      "type": "event"
    },
    {
      "anonymous": false,
      "inputs": [
        {
          "indexed": true,
          "internalType": "address",
          "name": "operator",
          "type": "address"
        },
        {
          "indexed": true,
          "internalType": "address",
          "name": "from",
          "type": "address"
        },
        {
          "indexed": true,
          "internalType": "address",
          "name": "to",
          "type": "address"
        },
        {
          "indexed": false,
          "internalType": "uint256",
          "name": "id",
          "type": "uint256"
        },
        {
          "indexed": false,
          "internalType": "uint256",
          "name": "value",
          "type": "uint256"
        }
      ],
      "name": "TransferSingle",
      "type": "event"
    },
    {
      "anonymous": false,
      "inputs": [
        {
          "indexed": false,
          "internalType": "string",
          "name": "value",
          "type": "string"
        },
        {
          "indexed": true,
          "internalType": "uint256",
          "name": "id",
          "type": "uint256"
        }
      ],
      "name": "URI",
      "type": "event"
    },
    {
      "anonymous": false,
      "inputs": [
        {
          "indexed": false,
          "internalType": "address",
          "name": "account",
          "type": "address"
        }
      ],
      "name": "Unpaused",
      "type": "event"
    },
    {
      "inputs": [
        {
          "internalType": "uint256",
          "name": "id",
          "type": "uint256"
        },
        {
          "internalType": "uint256",
          "name": "amount",
          "type": "uint256"
        }
      ],
      "name": "addMint",
      "outputs": [],
      "stateMutability": "payable",
      "type": "function"
    },
    {
      "inputs": [
        {
          "internalType": "uint256",
          "name": "",
          "type": "uint256"
        }
      ],
      "name": "auctions",
      "outputs": [
        {
          "internalType": "uint256",
          "name": "id",
          "type": "uint256"
        },
        {
          "internalType": "uint256",
          "name": "tokenId",
          "type": "uint256"
        },
        {
          "internalType": "uint256",
          "name": "amount",
          "type": "uint256"
        },
        {
          "internalType": "address",
          "name": "owner",
          "type": "address"
        },
        {
          "internalType": "uint256",
          "name": "currentCost",
          "type": "uint256"
        },
        {
          "internalType": "address",
          "name": "currentBidder",
          "type": "address"
        },
        {
          "internalType": "uint256",
          "name": "timeStart",
          "type": "uint256"
        },
        {
          "internalType": "uint256",
          "name": "timeLimit",
          "type": "uint256"
        },
        {
          "internalType": "uint256",
          "name": "timeEnd",
          "type": "uint256"
        },
        {
          "internalType": "uint8",
          "name": "isEnd",
          "type": "uint8"
        }
      ],
      "stateMutability": "view",
      "type": "function"
    },
    {
      "inputs": [
        {
          "internalType": "address",
          "name": "account",
          "type": "address"
        },
        {
          "internalType": "uint256",
          "name": "id",
          "type": "uint256"
        }
      ],
      "name": "balanceOf",
      "outputs": [
        {
          "internalType": "uint256",
          "name": "",
          "type": "uint256"
        }
      ],
      "stateMutability": "view",
      "type": "function"
    },
    {
      "inputs": [
        {
          "internalType": "address[]",
          "name": "accounts",
          "type": "address[]"
        },
        {
          "internalType": "uint256[]",
          "name": "ids",
          "type": "uint256[]"
        }
      ],
      "name": "balanceOfBatch",
      "outputs": [
        {
          "internalType": "uint256[]",
          "name": "",
          "type": "uint256[]"
        }
      ],
      "stateMutability": "view",
      "type": "function"
    },
    {
      "inputs": [
        {
          "internalType": "uint256",
          "name": "idAuction",
          "type": "uint256"
        }
      ],
      "name": "bid",
      "outputs": [],
      "stateMutability": "payable",
      "type": "function"
    },
    {
      "inputs": [
        {
          "internalType": "uint256",
          "name": "tokenId",
          "type": "uint256"
        },
        {
          "internalType": "uint256",
          "name": "amount",
          "type": "uint256"
        },
        {
          "internalType": "uint256",
          "name": "currentCost",
          "type": "uint256"
        },
        {
          "internalType": "uint256",
          "name": "timeLimit",
          "type": "uint256"
        },
        {
          "internalType": "uint256",
          "name": "timeEnd",
          "type": "uint256"
        }
      ],
      "name": "createAuction",
      "outputs": [],
      "stateMutability": "payable",
      "type": "function"
    },
    {
      "inputs": [
        {
          "internalType": "uint256",
          "name": "auctionId",
          "type": "uint256"
        }
      ],
      "name": "endAuction",
      "outputs": [],
      "stateMutability": "payable",
      "type": "function"
    },
    {
      "inputs": [
        {
          "internalType": "uint256",
          "name": "id",
          "type": "uint256"
        }
      ],
      "name": "exists",
      "outputs": [
        {
          "internalType": "bool",
          "name": "",
          "type": "bool"
        }
      ],
      "stateMutability": "view",
      "type": "function"
    },
    {
      "inputs": [],
      "name": "getAllTokenId",
      "outputs": [
        {
          "internalType": "uint256[]",
          "name": "",
          "type": "uint256[]"
        }
      ],
      "stateMutability": "view",
      "type": "function"
    },
    {
      "inputs": [
        {
          "internalType": "uint256",
          "name": "tokenId",
          "type": "uint256"
        }
      ],
      "name": "getToken",
      "outputs": [
        {
          "components": [
            {
              "internalType": "string",
              "name": "name",
              "type": "string"
            },
            {
              "internalType": "string",
              "name": "description",
              "type": "string"
            },
            {
              "internalType": "string",
              "name": "uri",
              "type": "string"
            }
          ],
          "internalType": "struct AuctionContract.Token",
          "name": "",
          "type": "tuple"
        }
      ],
      "stateMutability": "view",
      "type": "function"
    },
    {
      "inputs": [
        {
          "internalType": "address",
          "name": "account",
          "type": "address"
        },
        {
          "internalType": "address",
          "name": "operator",
          "type": "address"
        }
      ],
      "name": "isApprovedForAll",
      "outputs": [
        {
          "internalType": "bool",
          "name": "",
          "type": "bool"
        }
      ],
      "stateMutability": "view",
      "type": "function"
    },
    {
      "inputs": [
        {
          "internalType": "uint256",
          "name": "amount",
          "type": "uint256"
        },
        {
          "internalType": "uint256",
          "name": "limit",
          "type": "uint256"
        },
        {
          "internalType": "string",
          "name": "_uri",
          "type": "string"
        },
        {
          "internalType": "string",
          "name": "name",
          "type": "string"
        },
        {
          "internalType": "string",
          "name": "description",
          "type": "string"
        }
      ],
      "name": "newMint",
      "outputs": [],
      "stateMutability": "payable",
      "type": "function"
    },
    {
      "inputs": [],
      "name": "owner",
      "outputs": [
        {
          "internalType": "address",
          "name": "",
          "type": "address"
        }
      ],
      "stateMutability": "view",
      "type": "function"
    },
    {
      "inputs": [],
      "name": "pause",
      "outputs": [],
      "stateMutability": "nonpayable",
      "type": "function"
    },
    {
      "inputs": [],
      "name": "paused",
      "outputs": [
        {
          "internalType": "bool",
          "name": "",
          "type": "bool"
        }
      ],
      "stateMutability": "view",
      "type": "function"
    },
    {
      "inputs": [],
      "name": "publicPrice",
      "outputs": [
        {
          "internalType": "uint256",
          "name": "",
          "type": "uint256"
        }
      ],
      "stateMutability": "view",
      "type": "function"
    },
    {
      "inputs": [],
      "name": "renounceOwnership",
      "outputs": [],
      "stateMutability": "nonpayable",
      "type": "function"
    },
    {
      "inputs": [
        {
          "internalType": "address",
          "name": "from",
          "type": "address"
        },
        {
          "internalType": "address",
          "name": "to",
          "type": "address"
        },
        {
          "internalType": "uint256[]",
          "name": "ids",
          "type": "uint256[]"
        },
        {
          "internalType": "uint256[]",
          "name": "amounts",
          "type": "uint256[]"
        },
        {
          "internalType": "bytes",
          "name": "data",
          "type": "bytes"
        }
      ],
      "name": "safeBatchTransferFrom",
      "outputs": [],
      "stateMutability": "nonpayable",
      "type": "function"
    },
    {
      "inputs": [
        {
          "internalType": "address",
          "name": "from",
          "type": "address"
        },
        {
          "internalType": "address",
          "name": "to",
          "type": "address"
        },
        {
          "internalType": "uint256",
          "name": "id",
          "type": "uint256"
        },
        {
          "internalType": "uint256",
          "name": "amount",
          "type": "uint256"
        },
        {
          "internalType": "bytes",
          "name": "data",
          "type": "bytes"
        }
      ],
      "name": "safeTransferFrom",
      "outputs": [],
      "stateMutability": "nonpayable",
      "type": "function"
    },
    {
      "inputs": [
        {
          "internalType": "address",
          "name": "operator",
          "type": "address"
        },
        {
          "internalType": "bool",
          "name": "approved",
          "type": "bool"
        }
      ],
      "name": "setApprovalForAll",
      "outputs": [],
      "stateMutability": "nonpayable",
      "type": "function"
    },
    {
      "inputs": [
        {
          "internalType": "string",
          "name": "newuri",
          "type": "string"
        }
      ],
      "name": "setURI",
      "outputs": [],
      "stateMutability": "nonpayable",
      "type": "function"
    },
    {
      "inputs": [
        {
          "internalType": "bytes4",
          "name": "interfaceId",
          "type": "bytes4"
        }
      ],
      "name": "supportsInterface",
      "outputs": [
        {
          "internalType": "bool",
          "name": "",
          "type": "bool"
        }
      ],
      "stateMutability": "view",
      "type": "function"
    },
    {
      "inputs": [
        {
          "internalType": "uint256",
          "name": "id",
          "type": "uint256"
        }
      ],
      "name": "totalSupply",
      "outputs": [
        {
          "internalType": "uint256",
          "name": "",
          "type": "uint256"
        }
      ],
      "stateMutability": "view",
      "type": "function"
    },
    {
      "inputs": [
        {
          "internalType": "address",
          "name": "newOwner",
          "type": "address"
        }
      ],
      "name": "transferOwnership",
      "outputs": [],
      "stateMutability": "nonpayable",
      "type": "function"
    },
    {
      "inputs": [],
      "name": "unpause",
      "outputs": [],
      "stateMutability": "nonpayable",
      "type": "function"
    },
    {
      "inputs": [
        {
          "internalType": "uint256",
          "name": "tokenId",
          "type": "uint256"
        }
      ],
      "name": "uri",
      "outputs": [
        {
          "internalType": "string",
          "name": "",
          "type": "string"
        }
      ],
      "stateMutability": "view",
      "type": "function"
    }
  ],
  "bytecode": "0x6080604052662386f26fc100006005556000600d556000600f553480156200002657600080fd5b506040518060400160405280601b81526020017f68747470733a2f2f697066732e696e667572612e696f3a3530303100000000008152506200006e81620000b060201b60201c565b506200008f62000083620000c560201b60201c565b620000cd60201b60201c565b6000600360146101000a81548160ff021916908315150217905550620004f4565b8060029081620000c191906200040d565b5050565b600033905090565b6000600360009054906101000a900473ffffffffffffffffffffffffffffffffffffffff16905081600360006101000a81548173ffffffffffffffffffffffffffffffffffffffff021916908373ffffffffffffffffffffffffffffffffffffffff1602179055508173ffffffffffffffffffffffffffffffffffffffff168173ffffffffffffffffffffffffffffffffffffffff167f8be0079c531659141344cd1fd0a4f28419497f9722a3daafe3b4186f6b6457e060405160405180910390a35050565b600081519050919050565b7f4e487b7100000000000000000000000000000000000000000000000000000000600052604160045260246000fd5b7f4e487b7100000000000000000000000000000000000000000000000000000000600052602260045260246000fd5b600060028204905060018216806200021557607f821691505b6020821081036200022b576200022a620001cd565b5b50919050565b60008190508160005260206000209050919050565b60006020601f8301049050919050565b600082821b905092915050565b600060088302620002957fffffffffffffffffffffffffffffffffffffffffffffffffffffffffffffffff8262000256565b620002a1868362000256565b95508019841693508086168417925050509392505050565b6000819050919050565b6000819050919050565b6000620002ee620002e8620002e284620002b9565b620002c3565b620002b9565b9050919050565b6000819050919050565b6200030a83620002cd565b620003226200031982620002f5565b84845462000263565b825550505050565b600090565b620003396200032a565b62000346818484620002ff565b505050565b5b818110156200036e57620003626000826200032f565b6001810190506200034c565b5050565b601f821115620003bd57620003878162000231565b620003928462000246565b81016020851015620003a2578190505b620003ba620003b18562000246565b8301826200034b565b50505b505050565b600082821c905092915050565b6000620003e260001984600802620003c2565b1980831691505092915050565b6000620003fd8383620003cf565b9150826002028217905092915050565b620004188262000193565b67ffffffffffffffff8111156200043457620004336200019e565b5b620004408254620001fc565b6200044d82828562000372565b600060209050601f83116001811462000485576000841562000470578287015190505b6200047c8582620003ef565b865550620004ec565b601f198416620004958662000231565b60005b82811015620004bf5784890151825560018201915060208501945060208101905062000498565b86831015620004df5784890151620004db601f891682620003cf565b8355505b6001600288020188555050505b505050505050565b61547480620005046000396000f3fe6080604052600436106101805760003560e01c80638456cb59116100d1578063b9a2de3a1161008a578063e4b50cb811610064578063e4b50cb814610531578063e985e9c51461056e578063f242432a146105ab578063f2fde38b146105d457610180565b8063b9a2de3a146104bc578063bd85b039146104d8578063d9fb8a231461051557610180565b80638456cb59146103ee5780638a157df3146104055780638ce0519b146104215780638da5cb5b1461043d578063a22cb46514610468578063a945bf801461049157610180565b80633f4ba83a1161013e5780634f558e79116101185780634f558e7914610329578063571a26a0146103665780635c975abb146103ac578063715018a6146103d757610180565b80633f4ba83a146102b9578063454a2ab3146102d05780634e1273f4146102ec57610180565b8062fdd58e1461018557806301ffc9a7146101c257806302fe5305146101ff57806304764089146102285780630e89341c146102535780632eb2c2d614610290575b600080fd5b34801561019157600080fd5b506101ac60048036038101906101a7919061308c565b6105fd565b6040516101b991906130db565b60405180910390f35b3480156101ce57600080fd5b506101e960048036038101906101e4919061314e565b6106c5565b6040516101f69190613196565b60405180910390f35b34801561020b57600080fd5b50610226600480360381019061022191906132f7565b6107a7565b005b34801561023457600080fd5b5061023d6107bb565b60405161024a91906133fe565b60405180910390f35b34801561025f57600080fd5b5061027a60048036038101906102759190613420565b610813565b60405161028791906134cc565b60405180910390f35b34801561029c57600080fd5b506102b760048036038101906102b29190613657565b6108b8565b005b3480156102c557600080fd5b506102ce610959565b005b6102ea60048036038101906102e59190613420565b61096b565b005b3480156102f857600080fd5b50610313600480360381019061030e91906137e9565b610c0e565b60405161032091906133fe565b60405180910390f35b34801561033557600080fd5b50610350600480360381019061034b9190613420565b610d27565b60405161035d9190613196565b60405180910390f35b34801561037257600080fd5b5061038d60048036038101906103889190613420565b610d3b565b6040516103a39a9998979695949392919061388c565b60405180910390f35b3480156103b857600080fd5b506103c1610ddc565b6040516103ce9190613196565b60405180910390f35b3480156103e357600080fd5b506103ec610df3565b005b3480156103fa57600080fd5b50610403610e07565b005b61041f600480360381019061041a9190613928565b610e19565b005b61043b600480360381019061043691906139a3565b6110df565b005b34801561044957600080fd5b50610452611225565b60405161045f91906139e3565b60405180910390f35b34801561047457600080fd5b5061048f600480360381019061048a9190613a2a565b61124f565b005b34801561049d57600080fd5b506104a6611265565b6040516104b391906130db565b60405180910390f35b6104d660048036038101906104d19190613420565b61126b565b005b3480156104e457600080fd5b506104ff60048036038101906104fa9190613420565b6114b6565b60405161050c91906130db565b60405180910390f35b61052f600480360381019061052a9190613a6a565b6114d3565b005b34801561053d57600080fd5b5061055860048036038101906105539190613420565b6117f0565b6040516105659190613be1565b60405180910390f35b34801561057a57600080fd5b5061059560048036038101906105909190613c03565b6119d3565b6040516105a29190613196565b60405180910390f35b3480156105b757600080fd5b506105d260048036038101906105cd9190613c43565b611a67565b005b3480156105e057600080fd5b506105fb60048036038101906105f69190613cda565b611b08565b005b60008073ffffffffffffffffffffffffffffffffffffffff168373ffffffffffffffffffffffffffffffffffffffff160361066d576040517f08c379a000000000000000000000000000000000000000000000000000000000815260040161066490613d79565b60405180910390fd5b60008083815260200190815260200160002060008473ffffffffffffffffffffffffffffffffffffffff1673ffffffffffffffffffffffffffffffffffffffff16815260200190815260200160002054905092915050565b60007fd9b67a26000000000000000000000000000000000000000000000000000000007bffffffffffffffffffffffffffffffffffffffffffffffffffffffff1916827bffffffffffffffffffffffffffffffffffffffffffffffffffffffff1916148061079057507f0e89341c000000000000000000000000000000000000000000000000000000007bffffffffffffffffffffffffffffffffffffffffffffffffffffffff1916827bffffffffffffffffffffffffffffffffffffffffffffffffffffffff1916145b806107a0575061079f82611b8b565b5b9050919050565b6107af611bf5565b6107b881611c73565b50565b6060600c80548060200260200160405190810160405280929190818152602001828054801561080957602002820191906000526020600020905b8154815260200190600101908083116107f5575b5050505050905090565b606060066000838152602001908152602001600020805461083390613dc8565b80601f016020809104026020016040519081016040528092919081815260200182805461085f90613dc8565b80156108ac5780601f10610881576101008083540402835291602001916108ac565b820191906000526020600020905b81548152906001019060200180831161088f57829003601f168201915b50505050509050919050565b6108c0611c86565b73ffffffffffffffffffffffffffffffffffffffff168573ffffffffffffffffffffffffffffffffffffffff161480610906575061090585610900611c86565b6119d3565b5b610945576040517f08c379a000000000000000000000000000000000000000000000000000000000815260040161093c90613e6b565b60405180910390fd5b6109528585858585611c8e565b5050505050565b610961611bf5565b610969611faf565b565b6000600e6000838152602001908152602001600020600b0160009054906101000a900460ff1660ff16146109d4576040517f08c379a00000000000000000000000000000000000000000000000000000000081526004016109cb90613ed7565b60405180910390fd5b600e6000828152602001908152602001600020600401543411610a2c576040517f08c379a0000000000000000000000000000000000000000000000000000000008152600401610a2390613f43565b60405180910390fd5b600f548110610a70576040517f08c379a0000000000000000000000000000000000000000000000000000000008152600401610a6790613faf565b60405180910390fd5b600e6000828152602001908152602001600020600801544210610ac8576040517f08c379a0000000000000000000000000000000000000000000000000000000008152600401610abf90613ed7565b60405180910390fd5b6000600e60008381526020019081526020016000209050610ae882612012565b348160040181905550338160050160006101000a81548173ffffffffffffffffffffffffffffffffffffffff021916908373ffffffffffffffffffffffffffffffffffffffff16021790555080600901339080600181540180825580915050600190039060005260206000200160009091909190916101000a81548173ffffffffffffffffffffffffffffffffffffffff021916908373ffffffffffffffffffffffffffffffffffffffff16021790555080600a013490806001815401808255809150506001900390600052602060002001600090919091909150553481600c0160003373ffffffffffffffffffffffffffffffffffffffff1673ffffffffffffffffffffffffffffffffffffffff168152602001908152602001600020819055505050565b60608151835114610c54576040517f08c379a0000000000000000000000000000000000000000000000000000000008152600401610c4b90614041565b60405180910390fd5b6000835167ffffffffffffffff811115610c7157610c706131cc565b5b604051908082528060200260200182016040528015610c9f5781602001602082028036833780820191505090505b50905060005b8451811015610d1c57610cec858281518110610cc457610cc3614061565b5b6020026020010151858381518110610cdf57610cde614061565b5b60200260200101516105fd565b828281518110610cff57610cfe614061565b5b60200260200101818152505080610d15906140bf565b9050610ca5565b508091505092915050565b600080610d33836114b6565b119050919050565b600e6020528060005260406000206000915090508060000154908060010154908060020154908060030160009054906101000a900473ffffffffffffffffffffffffffffffffffffffff16908060040154908060050160009054906101000a900473ffffffffffffffffffffffffffffffffffffffff169080600601549080600701549080600801549080600b0160009054906101000a900460ff1690508a565b6000600360149054906101000a900460ff16905090565b610dfb611bf5565b610e056000612178565b565b610e0f611bf5565b610e1761223e565b565b60016007600087815260200190815260200160002060009054906101000a900460ff1660ff1614610e7f576040517f08c379a0000000000000000000000000000000000000000000000000000000008152600401610e7690614153565b60405180910390fd5b60018414610ec2576040517f08c379a0000000000000000000000000000000000000000000000000000000008152600401610eb9906141bf565b60405180910390fd5b4282118015610ed15750818110155b610f10576040517f08c379a0000000000000000000000000000000000000000000000000000000008152600401610f0790614251565b60405180910390fd5b6000610f1c33876105fd565b11610f5c576040517f08c379a0000000000000000000000000000000000000000000000000000000008152600401610f53906142e3565b60405180910390fd5b6000600960008781526020019081526020016000205414610fb2576040517f08c379a0000000000000000000000000000000000000000000000000000000008152600401610fa990614375565b60405180910390fd5b6000600e6000600f5481526020019081526020016000209050858160010181905550848160020181905550338160030160006101000a81548173ffffffffffffffffffffffffffffffffffffffff021916908373ffffffffffffffffffffffffffffffffffffffff16021790555083816004018190555060008160050160006101000a81548173ffffffffffffffffffffffffffffffffffffffff021916908373ffffffffffffffffffffffffffffffffffffffff160217905550828160070181905550818160080181905550428160060181905550600081600b0160006101000a81548160ff021916908360ff160217905550600f60008154809291906110b9906140bf565b919050555060016009600088815260200190815260200160002081905550505050505050565b6110e7611bf5565b806005546110f59190614395565b341015611137576040517f08c379a000000000000000000000000000000000000000000000000000000000815260040161112e90614423565b60405180910390fd5b60016007600084815260200190815260200160002060009054906101000a900460ff1660ff161461119d576040517f08c379a00000000000000000000000000000000000000000000000000000000081526004016111949061448f565b60405180910390fd5b6008600083815260200190815260200160002054816111bb846114b6565b6111c591906144af565b1115611206576040517f08c379a00000000000000000000000000000000000000000000000000000000081526004016111fd90614555565b60405180910390fd5b611221338383604051806020016040528060008152506122a1565b5050565b6000600360009054906101000a900473ffffffffffffffffffffffffffffffffffffffff16905090565b61126161125a611c86565b8383612451565b5050565b60055481565b600f5481106112af576040517f08c379a00000000000000000000000000000000000000000000000000000000081526004016112a6906145c1565b60405180910390fd5b6000600e6000838152602001908152602001600020600b0160009054906101000a900460ff1660ff1614611318576040517f08c379a000000000000000000000000000000000000000000000000000000000815260040161130f9061462d565b60405180910390fd5b600e6000828152602001908152602001600020600701544211611370576040517f08c379a0000000000000000000000000000000000000000000000000000000008152600401611367906146bf565b60405180910390fd5b6000600e6000838152602001908152602001600020905060008160050160009054906101000a900473ffffffffffffffffffffffffffffffffffffffff1690506000826004015490506114018360030160009054906101000a900473ffffffffffffffffffffffffffffffffffffffff16838560010154866002015460405180602001604052806000815250611a67565b8260030160009054906101000a900473ffffffffffffffffffffffffffffffffffffffff1673ffffffffffffffffffffffffffffffffffffffff166108fc829081150290604051600060405180830381858888f1935050505015801561146b573d6000803e3d6000fd5b5061147584612012565b600183600b0160006101000a81548160ff021916908360ff160217905550600060096000856001015481526020019081526020016000208190555050505050565b600060046000838152602001908152602001600020549050919050565b6114db611bf5565b846005546114e99190614395565b34101561152b576040517f08c379a000000000000000000000000000000000000000000000000000000000815260040161152290614423565b60405180910390fd5b600060076000600d54815260200190815260200160002060009054906101000a900460ff1660ff1614611593576040517f08c379a000000000000000000000000000000000000000000000000000000000815260040161158a9061472b565b60405180910390fd5b8385106115d5576040517f08c379a00000000000000000000000000000000000000000000000000000000081526004016115cc90614555565b60405180910390fd5b6000835111611619576040517f08c379a000000000000000000000000000000000000000000000000000000000815260040161161090614797565b60405180910390fd5b6000600b8460405161162b91906147f3565b908152602001604051809103902060009054906101000a900460ff1660ff161461168a576040517f08c379a000000000000000000000000000000000000000000000000000000000815260040161168190614856565b60405180910390fd5b6116a733600d5487604051806020016040528060008152506122a1565b600c600d549080600181540180825580915050600190039060005260206000200160009091909190915055600160076000600d54815260200190815260200160002060006101000a81548160ff021916908360ff1602179055508360086000600d54815260200190815260200160002081905550611727600d54846125bd565b81600a6000600d548152602001908152602001600020600001908161174c9190614a22565b5080600a6000600d54815260200190815260200160002060010190816117729190614a22565b5082600a6000600d54815260200190815260200160002060020190816117989190614a22565b506001600b846040516117ab91906147f3565b908152602001604051809103902060006101000a81548160ff021916908360ff160217905550600d60008154809291906117e4906140bf565b91905055505050505050565b6117f8612fc3565b600a600083815260200190815260200160002060405180606001604052908160008201805461182690613dc8565b80601f016020809104026020016040519081016040528092919081815260200182805461185290613dc8565b801561189f5780601f106118745761010080835404028352916020019161189f565b820191906000526020600020905b81548152906001019060200180831161188257829003601f168201915b505050505081526020016001820180546118b890613dc8565b80601f01602080910402602001604051908101604052809291908181526020018280546118e490613dc8565b80156119315780601f1061190657610100808354040283529160200191611931565b820191906000526020600020905b81548152906001019060200180831161191457829003601f168201915b5050505050815260200160028201805461194a90613dc8565b80601f016020809104026020016040519081016040528092919081815260200182805461197690613dc8565b80156119c35780601f10611998576101008083540402835291602001916119c3565b820191906000526020600020905b8154815290600101906020018083116119a657829003601f168201915b5050505050815250509050919050565b6000600160008473ffffffffffffffffffffffffffffffffffffffff1673ffffffffffffffffffffffffffffffffffffffff16815260200190815260200160002060008373ffffffffffffffffffffffffffffffffffffffff1673ffffffffffffffffffffffffffffffffffffffff16815260200190815260200160002060009054906101000a900460ff16905092915050565b611a6f611c86565b73ffffffffffffffffffffffffffffffffffffffff168573ffffffffffffffffffffffffffffffffffffffff161480611ab55750611ab485611aaf611c86565b6119d3565b5b611af4576040517f08c379a0000000000000000000000000000000000000000000000000000000008152600401611aeb90613e6b565b60405180910390fd5b611b01858585858561264c565b5050505050565b611b10611bf5565b600073ffffffffffffffffffffffffffffffffffffffff168173ffffffffffffffffffffffffffffffffffffffff1603611b7f576040517f08c379a0000000000000000000000000000000000000000000000000000000008152600401611b7690614b66565b60405180910390fd5b611b8881612178565b50565b60007f01ffc9a7000000000000000000000000000000000000000000000000000000007bffffffffffffffffffffffffffffffffffffffffffffffffffffffff1916827bffffffffffffffffffffffffffffffffffffffffffffffffffffffff1916149050919050565b611bfd611c86565b73ffffffffffffffffffffffffffffffffffffffff16611c1b611225565b73ffffffffffffffffffffffffffffffffffffffff1614611c71576040517f08c379a0000000000000000000000000000000000000000000000000000000008152600401611c6890614bd2565b60405180910390fd5b565b8060029081611c829190614a22565b5050565b600033905090565b8151835114611cd2576040517f08c379a0000000000000000000000000000000000000000000000000000000008152600401611cc990614c64565b60405180910390fd5b600073ffffffffffffffffffffffffffffffffffffffff168473ffffffffffffffffffffffffffffffffffffffff1603611d41576040517f08c379a0000000000000000000000000000000000000000000000000000000008152600401611d3890614cf6565b60405180910390fd5b6000611d4b611c86565b9050611d5b8187878787876128e7565b60005b8451811015611f0c576000858281518110611d7c57611d7b614061565b5b602002602001015190506000858381518110611d9b57611d9a614061565b5b60200260200101519050600080600084815260200190815260200160002060008b73ffffffffffffffffffffffffffffffffffffffff1673ffffffffffffffffffffffffffffffffffffffff16815260200190815260200160002054905081811015611e3c576040517f08c379a0000000000000000000000000000000000000000000000000000000008152600401611e3390614d88565b60405180910390fd5b81810360008085815260200190815260200160002060008c73ffffffffffffffffffffffffffffffffffffffff1673ffffffffffffffffffffffffffffffffffffffff168152602001908152602001600020819055508160008085815260200190815260200160002060008b73ffffffffffffffffffffffffffffffffffffffff1673ffffffffffffffffffffffffffffffffffffffff1681526020019081526020016000206000828254611ef191906144af565b9250508190555050505080611f05906140bf565b9050611d5e565b508473ffffffffffffffffffffffffffffffffffffffff168673ffffffffffffffffffffffffffffffffffffffff168273ffffffffffffffffffffffffffffffffffffffff167f4a39dc06d4c0dbc64b70af90fd698a233a518aa5d07e595d983b8c0526c8f7fb8787604051611f83929190614da8565b60405180910390a4611f99818787878787612905565b611fa781878787878761290d565b505050505050565b611fb7612ae4565b6000600360146101000a81548160ff0219169083151502179055507f5db9ee0a495bf2e6ff9c91a7834c1ba4fdd244a5e8aa4e537bd38aeae4b073aa611ffb611c86565b60405161200891906139e3565b60405180910390a1565b6000600e6000838152602001908152602001600020905060005b816009018054905081101561217357600082600901828154811061205357612052614061565b5b9060005260206000200160009054906101000a900473ffffffffffffffffffffffffffffffffffffffff169050600083600c0160008373ffffffffffffffffffffffffffffffffffffffff1673ffffffffffffffffffffffffffffffffffffffff168152602001908152602001600020549050600081111561215e57600084600c0160008473ffffffffffffffffffffffffffffffffffffffff1673ffffffffffffffffffffffffffffffffffffffff168152602001908152602001600020819055508173ffffffffffffffffffffffffffffffffffffffff166108fc829081150290604051600060405180830381858888f1935050505015801561215c573d6000803e3d6000fd5b505b5050808061216b906140bf565b91505061202c565b505050565b6000600360009054906101000a900473ffffffffffffffffffffffffffffffffffffffff16905081600360006101000a81548173ffffffffffffffffffffffffffffffffffffffff021916908373ffffffffffffffffffffffffffffffffffffffff1602179055508173ffffffffffffffffffffffffffffffffffffffff168173ffffffffffffffffffffffffffffffffffffffff167f8be0079c531659141344cd1fd0a4f28419497f9722a3daafe3b4186f6b6457e060405160405180910390a35050565b612246612b2d565b6001600360146101000a81548160ff0219169083151502179055507f62e78cea01bee320cd4e420270b5ea74000d11b0c9f74754ebdbfc544b05a25861228a611c86565b60405161229791906139e3565b60405180910390a1565b600073ffffffffffffffffffffffffffffffffffffffff168473ffffffffffffffffffffffffffffffffffffffff1603612310576040517f08c379a000000000000000000000000000000000000000000000000000000000815260040161230790614e51565b60405180910390fd5b600061231a611c86565b9050600061232785612b77565b9050600061233485612b77565b9050612345836000898585896128e7565b8460008088815260200190815260200160002060008973ffffffffffffffffffffffffffffffffffffffff1673ffffffffffffffffffffffffffffffffffffffff16815260200190815260200160002060008282546123a491906144af565b925050819055508673ffffffffffffffffffffffffffffffffffffffff16600073ffffffffffffffffffffffffffffffffffffffff168473ffffffffffffffffffffffffffffffffffffffff167fc3d58168c5ae7397731d063d5bbf3d657854427343f4c083240f7aacaa2d0f628989604051612422929190614e71565b60405180910390a461243983600089858589612905565b61244883600089898989612bf1565b50505050505050565b8173ffffffffffffffffffffffffffffffffffffffff168373ffffffffffffffffffffffffffffffffffffffff16036124bf576040517f08c379a00000000000000000000000000000000000000000000000000000000081526004016124b690614f0c565b60405180910390fd5b80600160008573ffffffffffffffffffffffffffffffffffffffff1673ffffffffffffffffffffffffffffffffffffffff16815260200190815260200160002060008473ffffffffffffffffffffffffffffffffffffffff1673ffffffffffffffffffffffffffffffffffffffff16815260200190815260200160002060006101000a81548160ff0219169083151502179055508173ffffffffffffffffffffffffffffffffffffffff168373ffffffffffffffffffffffffffffffffffffffff167f17307eab39ab6107e8899845ad3d59bd9653f200f220920489ca2b5937696c31836040516125b09190613196565b60405180910390a3505050565b6125c5611bf5565b60006006600084815260200190815260200160002080546125e590613dc8565b905014612627576040517f08c379a000000000000000000000000000000000000000000000000000000000815260040161261e90614f78565b60405180910390fd5b806006600084815260200190815260200160002090816126479190614a22565b505050565b600073ffffffffffffffffffffffffffffffffffffffff168473ffffffffffffffffffffffffffffffffffffffff16036126bb576040517f08c379a00000000000000000000000000000000000000000000000000000000081526004016126b290614cf6565b60405180910390fd5b60006126c5611c86565b905060006126d285612b77565b905060006126df85612b77565b90506126ef8389898585896128e7565b600080600088815260200190815260200160002060008a73ffffffffffffffffffffffffffffffffffffffff1673ffffffffffffffffffffffffffffffffffffffff16815260200190815260200160002054905085811015612786576040517f08c379a000000000000000000000000000000000000000000000000000000000815260040161277d90614d88565b60405180910390fd5b85810360008089815260200190815260200160002060008b73ffffffffffffffffffffffffffffffffffffffff1673ffffffffffffffffffffffffffffffffffffffff168152602001908152602001600020819055508560008089815260200190815260200160002060008a73ffffffffffffffffffffffffffffffffffffffff1673ffffffffffffffffffffffffffffffffffffffff168152602001908152602001600020600082825461283b91906144af565b925050819055508773ffffffffffffffffffffffffffffffffffffffff168973ffffffffffffffffffffffffffffffffffffffff168573ffffffffffffffffffffffffffffffffffffffff167fc3d58168c5ae7397731d063d5bbf3d657854427343f4c083240f7aacaa2d0f628a8a6040516128b8929190614e71565b60405180910390a46128ce848a8a86868a612905565b6128dc848a8a8a8a8a612bf1565b505050505050505050565b6128ef612b2d565b6128fd868686868686612dc8565b505050505050565b505050505050565b61292c8473ffffffffffffffffffffffffffffffffffffffff16612f98565b15612adc578373ffffffffffffffffffffffffffffffffffffffff1663bc197c8187878686866040518663ffffffff1660e01b8152600401612972959493929190614fed565b6020604051808303816000875af19250505080156129ae57506040513d601f19601f820116820180604052508101906129ab919061506a565b60015b612a53576129ba6150a4565b806308c379a003612a1657506129ce6150c6565b806129d95750612a18565b806040517f08c379a0000000000000000000000000000000000000000000000000000000008152600401612a0d91906134cc565b60405180910390fd5b505b6040517f08c379a0000000000000000000000000000000000000000000000000000000008152600401612a4a906151c8565b60405180910390fd5b63bc197c8160e01b7bffffffffffffffffffffffffffffffffffffffffffffffffffffffff1916817bffffffffffffffffffffffffffffffffffffffffffffffffffffffff191614612ada576040517f08c379a0000000000000000000000000000000000000000000000000000000008152600401612ad19061525a565b60405180910390fd5b505b505050505050565b612aec610ddc565b612b2b576040517f08c379a0000000000000000000000000000000000000000000000000000000008152600401612b22906152c6565b60405180910390fd5b565b612b35610ddc565b15612b75576040517f08c379a0000000000000000000000000000000000000000000000000000000008152600401612b6c90615332565b60405180910390fd5b565b60606000600167ffffffffffffffff811115612b9657612b956131cc565b5b604051908082528060200260200182016040528015612bc45781602001602082028036833780820191505090505b5090508281600081518110612bdc57612bdb614061565b5b60200260200101818152505080915050919050565b612c108473ffffffffffffffffffffffffffffffffffffffff16612f98565b15612dc0578373ffffffffffffffffffffffffffffffffffffffff1663f23a6e6187878686866040518663ffffffff1660e01b8152600401612c56959493929190615352565b6020604051808303816000875af1925050508015612c9257506040513d601f19601f82011682018060405250810190612c8f919061506a565b60015b612d3757612c9e6150a4565b806308c379a003612cfa5750612cb26150c6565b80612cbd5750612cfc565b806040517f08c379a0000000000000000000000000000000000000000000000000000000008152600401612cf191906134cc565b60405180910390fd5b505b6040517f08c379a0000000000000000000000000000000000000000000000000000000008152600401612d2e906151c8565b60405180910390fd5b63f23a6e6160e01b7bffffffffffffffffffffffffffffffffffffffffffffffffffffffff1916817bffffffffffffffffffffffffffffffffffffffffffffffffffffffff191614612dbe576040517f08c379a0000000000000000000000000000000000000000000000000000000008152600401612db59061525a565b60405180910390fd5b505b505050505050565b612dd6868686868686612fbb565b600073ffffffffffffffffffffffffffffffffffffffff168573ffffffffffffffffffffffffffffffffffffffff1603612e875760005b8351811015612e8557828181518110612e2957612e28614061565b5b602002602001015160046000868481518110612e4857612e47614061565b5b602002602001015181526020019081526020016000206000828254612e6d91906144af565b9250508190555080612e7e906140bf565b9050612e0d565b505b600073ffffffffffffffffffffffffffffffffffffffff168473ffffffffffffffffffffffffffffffffffffffff1603612f905760005b8351811015612f8e576000848281518110612edc57612edb614061565b5b602002602001015190506000848381518110612efb57612efa614061565b5b6020026020010151905060006004600084815260200190815260200160002054905081811015612f60576040517f08c379a0000000000000000000000000000000000000000000000000000000008152600401612f579061541e565b60405180910390fd5b818103600460008581526020019081526020016000208190555050505080612f87906140bf565b9050612ebe565b505b505050505050565b6000808273ffffffffffffffffffffffffffffffffffffffff163b119050919050565b505050505050565b60405180606001604052806060815260200160608152602001606081525090565b6000604051905090565b600080fd5b600080fd5b600073ffffffffffffffffffffffffffffffffffffffff82169050919050565b600061302382612ff8565b9050919050565b61303381613018565b811461303e57600080fd5b50565b6000813590506130508161302a565b92915050565b6000819050919050565b61306981613056565b811461307457600080fd5b50565b60008135905061308681613060565b92915050565b600080604083850312156130a3576130a2612fee565b5b60006130b185828601613041565b92505060206130c285828601613077565b9150509250929050565b6130d581613056565b82525050565b60006020820190506130f060008301846130cc565b92915050565b60007fffffffff0000000000000000000000000000000000000000000000000000000082169050919050565b61312b816130f6565b811461313657600080fd5b50565b60008135905061314881613122565b92915050565b60006020828403121561316457613163612fee565b5b600061317284828501613139565b91505092915050565b60008115159050919050565b6131908161317b565b82525050565b60006020820190506131ab6000830184613187565b92915050565b600080fd5b600080fd5b6000601f19601f8301169050919050565b7f4e487b7100000000000000000000000000000000000000000000000000000000600052604160045260246000fd5b613204826131bb565b810181811067ffffffffffffffff82111715613223576132226131cc565b5b80604052505050565b6000613236612fe4565b905061324282826131fb565b919050565b600067ffffffffffffffff821115613262576132616131cc565b5b61326b826131bb565b9050602081019050919050565b82818337600083830152505050565b600061329a61329584613247565b61322c565b9050828152602081018484840111156132b6576132b56131b6565b5b6132c1848285613278565b509392505050565b600082601f8301126132de576132dd6131b1565b5b81356132ee848260208601613287565b91505092915050565b60006020828403121561330d5761330c612fee565b5b600082013567ffffffffffffffff81111561332b5761332a612ff3565b5b613337848285016132c9565b91505092915050565b600081519050919050565b600082825260208201905092915050565b6000819050602082019050919050565b61337581613056565b82525050565b6000613387838361336c565b60208301905092915050565b6000602082019050919050565b60006133ab82613340565b6133b5818561334b565b93506133c08361335c565b8060005b838110156133f15781516133d8888261337b565b97506133e383613393565b9250506001810190506133c4565b5085935050505092915050565b6000602082019050818103600083015261341881846133a0565b905092915050565b60006020828403121561343657613435612fee565b5b600061344484828501613077565b91505092915050565b600081519050919050565b600082825260208201905092915050565b60005b8381101561348757808201518184015260208101905061346c565b60008484015250505050565b600061349e8261344d565b6134a88185613458565b93506134b8818560208601613469565b6134c1816131bb565b840191505092915050565b600060208201905081810360008301526134e68184613493565b905092915050565b600067ffffffffffffffff821115613509576135086131cc565b5b602082029050602081019050919050565b600080fd5b600061353261352d846134ee565b61322c565b905080838252602082019050602084028301858111156135555761355461351a565b5b835b8181101561357e578061356a8882613077565b845260208401935050602081019050613557565b5050509392505050565b600082601f83011261359d5761359c6131b1565b5b81356135ad84826020860161351f565b91505092915050565b600067ffffffffffffffff8211156135d1576135d06131cc565b5b6135da826131bb565b9050602081019050919050565b60006135fa6135f5846135b6565b61322c565b905082815260208101848484011115613616576136156131b6565b5b613621848285613278565b509392505050565b600082601f83011261363e5761363d6131b1565b5b813561364e8482602086016135e7565b91505092915050565b600080600080600060a0868803121561367357613672612fee565b5b600061368188828901613041565b955050602061369288828901613041565b945050604086013567ffffffffffffffff8111156136b3576136b2612ff3565b5b6136bf88828901613588565b935050606086013567ffffffffffffffff8111156136e0576136df612ff3565b5b6136ec88828901613588565b925050608086013567ffffffffffffffff81111561370d5761370c612ff3565b5b61371988828901613629565b9150509295509295909350565b600067ffffffffffffffff821115613741576137406131cc565b5b602082029050602081019050919050565b600061376561376084613726565b61322c565b905080838252602082019050602084028301858111156137885761378761351a565b5b835b818110156137b1578061379d8882613041565b84526020840193505060208101905061378a565b5050509392505050565b600082601f8301126137d0576137cf6131b1565b5b81356137e0848260208601613752565b91505092915050565b60008060408385031215613800576137ff612fee565b5b600083013567ffffffffffffffff81111561381e5761381d612ff3565b5b61382a858286016137bb565b925050602083013567ffffffffffffffff81111561384b5761384a612ff3565b5b61385785828601613588565b9150509250929050565b61386a81613018565b82525050565b600060ff82169050919050565b61388681613870565b82525050565b6000610140820190506138a2600083018d6130cc565b6138af602083018c6130cc565b6138bc604083018b6130cc565b6138c9606083018a613861565b6138d660808301896130cc565b6138e360a0830188613861565b6138f060c08301876130cc565b6138fd60e08301866130cc565b61390b6101008301856130cc565b61391961012083018461387d565b9b9a5050505050505050505050565b600080600080600060a0868803121561394457613943612fee565b5b600061395288828901613077565b955050602061396388828901613077565b945050604061397488828901613077565b935050606061398588828901613077565b925050608061399688828901613077565b9150509295509295909350565b600080604083850312156139ba576139b9612fee565b5b60006139c885828601613077565b92505060206139d985828601613077565b9150509250929050565b60006020820190506139f86000830184613861565b92915050565b613a078161317b565b8114613a1257600080fd5b50565b600081359050613a24816139fe565b92915050565b60008060408385031215613a4157613a40612fee565b5b6000613a4f85828601613041565b9250506020613a6085828601613a15565b9150509250929050565b600080600080600060a08688031215613a8657613a85612fee565b5b6000613a9488828901613077565b9550506020613aa588828901613077565b945050604086013567ffffffffffffffff811115613ac657613ac5612ff3565b5b613ad2888289016132c9565b935050606086013567ffffffffffffffff811115613af357613af2612ff3565b5b613aff888289016132c9565b925050608086013567ffffffffffffffff811115613b2057613b1f612ff3565b5b613b2c888289016132c9565b9150509295509295909350565b600082825260208201905092915050565b6000613b558261344d565b613b5f8185613b39565b9350613b6f818560208601613469565b613b78816131bb565b840191505092915050565b60006060830160008301518482036000860152613ba08282613b4a565b91505060208301518482036020860152613bba8282613b4a565b91505060408301518482036040860152613bd48282613b4a565b9150508091505092915050565b60006020820190508181036000830152613bfb8184613b83565b905092915050565b60008060408385031215613c1a57613c19612fee565b5b6000613c2885828601613041565b9250506020613c3985828601613041565b9150509250929050565b600080600080600060a08688031215613c5f57613c5e612fee565b5b6000613c6d88828901613041565b9550506020613c7e88828901613041565b9450506040613c8f88828901613077565b9350506060613ca088828901613077565b925050608086013567ffffffffffffffff811115613cc157613cc0612ff3565b5b613ccd88828901613629565b9150509295509295909350565b600060208284031215613cf057613cef612fee565b5b6000613cfe84828501613041565b91505092915050565b7f455243313135353a2061646472657373207a65726f206973206e6f742061207660008201527f616c6964206f776e657200000000000000000000000000000000000000000000602082015250565b6000613d63602a83613458565b9150613d6e82613d07565b604082019050919050565b60006020820190508181036000830152613d9281613d56565b9050919050565b7f4e487b7100000000000000000000000000000000000000000000000000000000600052602260045260246000fd5b60006002820490506001821680613de057607f821691505b602082108103613df357613df2613d99565b5b50919050565b7f455243313135353a2063616c6c6572206973206e6f7420746f6b656e206f776e60008201527f6572206f7220617070726f766564000000000000000000000000000000000000602082015250565b6000613e55602e83613458565b9150613e6082613df9565b604082019050919050565b60006020820190508181036000830152613e8481613e48565b9050919050565b7f41756374696f6e2068617320656e646564000000000000000000000000000000600082015250565b6000613ec1601183613458565b9150613ecc82613e8b565b602082019050919050565b60006020820190508181036000830152613ef081613eb4565b9050919050565b7f4861766520746f20706179206120686967686572207072696365000000000000600082015250565b6000613f2d601a83613458565b9150613f3882613ef7565b602082019050919050565b60006020820190508181036000830152613f5c81613f20565b9050919050565b7f546869732061756374696f6e20646f6573206e6f742065786973740000000000600082015250565b6000613f99601b83613458565b9150613fa482613f63565b602082019050919050565b60006020820190508181036000830152613fc881613f8c565b9050919050565b7f455243313135353a206163636f756e747320616e6420696473206c656e67746860008201527f206d69736d617463680000000000000000000000000000000000000000000000602082015250565b600061402b602983613458565b915061403682613fcf565b604082019050919050565b6000602082019050818103600083015261405a8161401e565b9050919050565b7f4e487b7100000000000000000000000000000000000000000000000000000000600052603260045260246000fd5b7f4e487b7100000000000000000000000000000000000000000000000000000000600052601160045260246000fd5b60006140ca82613056565b91507fffffffffffffffffffffffffffffffffffffffffffffffffffffffffffffffff82036140fc576140fb614090565b5b600182019050919050565b7f4e6f74206578697473207468697320746f6b656e496400000000000000000000600082015250565b600061413d601683613458565b915061414882614107565b602082019050919050565b6000602082019050818103600083015261416c81614130565b9050919050565b7f616d6f756e74206973206e6f742076616c696400000000000000000000000000600082015250565b60006141a9601383613458565b91506141b482614173565b602082019050919050565b600060208201905081810360008301526141d88161419c565b9050919050565b7f54686520646561646c696e652073686f756c642062652061206461746520696e60008201527f20746865206675747572652e0000000000000000000000000000000000000000602082015250565b600061423b602c83613458565b9150614246826141df565b604082019050919050565b6000602082019050818103600083015261426a8161422e565b9050919050565b7f5468697320746f6b656e20646f6573206e6f7420657869737420696e20796f7560008201527f722077616c6c6574000000000000000000000000000000000000000000000000602082015250565b60006142cd602883613458565b91506142d882614271565b604082019050919050565b600060208201905081810360008301526142fc816142c0565b9050919050565b7f416e2061756374696f6e20666f72207468697320746f6b656e20616c7265616460008201527f7920657869737473000000000000000000000000000000000000000000000000602082015250565b600061435f602883613458565b915061436a82614303565b604082019050919050565b6000602082019050818103600083015261438e81614352565b9050919050565b60006143a082613056565b91506143ab83613056565b92508282026143b981613056565b915082820484148315176143d0576143cf614090565b5b5092915050565b7f57524f4e472c204e6f7420656e6f756768206d6f6e65792073656e7400000000600082015250565b600061440d601c83613458565b9150614418826143d7565b602082019050919050565b6000602082019050818103600083015261443c81614400565b9050919050565b7f4e6f7420657869747320746f6b656e0000000000000000000000000000000000600082015250565b6000614479600f83613458565b915061448482614443565b602082019050919050565b600060208201905081810360008301526144a88161446c565b9050919050565b60006144ba82613056565b91506144c583613056565b92508282019050808211156144dd576144dc614090565b5b92915050565b7f596f7520686176652063726561746564206d6f7265207468616e20616c6c6f7760008201527f656420616d6f756e740000000000000000000000000000000000000000000000602082015250565b600061453f602983613458565b915061454a826144e3565b604082019050919050565b6000602082019050818103600083015261456e81614532565b9050919050565b7f41756374696f6e20646f6573206e6f7420657869737400000000000000000000600082015250565b60006145ab601683613458565b91506145b682614575565b602082019050919050565b600060208201905081810360008301526145da8161459e565b9050919050565b7f546869732061756374696f6e2068617320656e64656400000000000000000000600082015250565b6000614617601683613458565b9150614622826145e1565b602082019050919050565b600060208201905081810360008301526146468161460a565b9050919050565b7f546865206d696e696d756d2074696d6520686173206e6f74206265656e20726560008201527f616368656420746f20656e640000000000000000000000000000000000000000602082015250565b60006146a9602c83613458565b91506146b48261464d565b604082019050919050565b600060208201905081810360008301526146d88161469c565b9050919050565b7f45786974656420746f6b656e0000000000000000000000000000000000000000600082015250565b6000614715600c83613458565b9150614720826146df565b602082019050919050565b6000602082019050818103600083015261474481614708565b9050919050565b7f506c6561736520616464206461746120746f2074686973206e66740000000000600082015250565b6000614781601b83613458565b915061478c8261474b565b602082019050919050565b600060208201905081810360008301526147b081614774565b9050919050565b600081905092915050565b60006147cd8261344d565b6147d781856147b7565b93506147e7818560208601613469565b80840191505092915050565b60006147ff82846147c2565b915081905092915050565b7f496d616765206578697374656400000000000000000000000000000000000000600082015250565b6000614840600d83613458565b915061484b8261480a565b602082019050919050565b6000602082019050818103600083015261486f81614833565b9050919050565b60008190508160005260206000209050919050565b60006020601f8301049050919050565b600082821b905092915050565b6000600883026148d87fffffffffffffffffffffffffffffffffffffffffffffffffffffffffffffffff8261489b565b6148e2868361489b565b95508019841693508086168417925050509392505050565b6000819050919050565b600061491f61491a61491584613056565b6148fa565b613056565b9050919050565b6000819050919050565b61493983614904565b61494d61494582614926565b8484546148a8565b825550505050565b600090565b614962614955565b61496d818484614930565b505050565b5b818110156149915761498660008261495a565b600181019050614973565b5050565b601f8211156149d6576149a781614876565b6149b08461488b565b810160208510156149bf578190505b6149d36149cb8561488b565b830182614972565b50505b505050565b600082821c905092915050565b60006149f9600019846008026149db565b1980831691505092915050565b6000614a1283836149e8565b9150826002028217905092915050565b614a2b8261344d565b67ffffffffffffffff811115614a4457614a436131cc565b5b614a4e8254613dc8565b614a59828285614995565b600060209050601f831160018114614a8c5760008415614a7a578287015190505b614a848582614a06565b865550614aec565b601f198416614a9a86614876565b60005b82811015614ac257848901518255600182019150602085019450602081019050614a9d565b86831015614adf5784890151614adb601f8916826149e8565b8355505b6001600288020188555050505b505050505050565b7f4f776e61626c653a206e6577206f776e657220697320746865207a65726f206160008201527f6464726573730000000000000000000000000000000000000000000000000000602082015250565b6000614b50602683613458565b9150614b5b82614af4565b604082019050919050565b60006020820190508181036000830152614b7f81614b43565b9050919050565b7f4f776e61626c653a2063616c6c6572206973206e6f7420746865206f776e6572600082015250565b6000614bbc602083613458565b9150614bc782614b86565b602082019050919050565b60006020820190508181036000830152614beb81614baf565b9050919050565b7f455243313135353a2069647320616e6420616d6f756e7473206c656e6774682060008201527f6d69736d61746368000000000000000000000000000000000000000000000000602082015250565b6000614c4e602883613458565b9150614c5982614bf2565b604082019050919050565b60006020820190508181036000830152614c7d81614c41565b9050919050565b7f455243313135353a207472616e7366657220746f20746865207a65726f20616460008201527f6472657373000000000000000000000000000000000000000000000000000000602082015250565b6000614ce0602583613458565b9150614ceb82614c84565b604082019050919050565b60006020820190508181036000830152614d0f81614cd3565b9050919050565b7f455243313135353a20696e73756666696369656e742062616c616e636520666f60008201527f72207472616e7366657200000000000000000000000000000000000000000000602082015250565b6000614d72602a83613458565b9150614d7d82614d16565b604082019050919050565b60006020820190508181036000830152614da181614d65565b9050919050565b60006040820190508181036000830152614dc281856133a0565b90508181036020830152614dd681846133a0565b90509392505050565b7f455243313135353a206d696e7420746f20746865207a65726f2061646472657360008201527f7300000000000000000000000000000000000000000000000000000000000000602082015250565b6000614e3b602183613458565b9150614e4682614ddf565b604082019050919050565b60006020820190508181036000830152614e6a81614e2e565b9050919050565b6000604082019050614e8660008301856130cc565b614e9360208301846130cc565b9392505050565b7f455243313135353a2073657474696e6720617070726f76616c2073746174757360008201527f20666f722073656c660000000000000000000000000000000000000000000000602082015250565b6000614ef6602983613458565b9150614f0182614e9a565b604082019050919050565b60006020820190508181036000830152614f2581614ee9565b9050919050565b7f43616e6e6f742073657420757269207477696365000000000000000000000000600082015250565b6000614f62601483613458565b9150614f6d82614f2c565b602082019050919050565b60006020820190508181036000830152614f9181614f55565b9050919050565b600081519050919050565b600082825260208201905092915050565b6000614fbf82614f98565b614fc98185614fa3565b9350614fd9818560208601613469565b614fe2816131bb565b840191505092915050565b600060a0820190506150026000830188613861565b61500f6020830187613861565b818103604083015261502181866133a0565b9050818103606083015261503581856133a0565b905081810360808301526150498184614fb4565b90509695505050505050565b60008151905061506481613122565b92915050565b6000602082840312156150805761507f612fee565b5b600061508e84828501615055565b91505092915050565b60008160e01c9050919050565b600060033d11156150c35760046000803e6150c0600051615097565b90505b90565b600060443d10615153576150d8612fe4565b60043d036004823e80513d602482011167ffffffffffffffff82111715615100575050615153565b808201805167ffffffffffffffff81111561511e5750505050615153565b80602083010160043d03850181111561513b575050505050615153565b61514a826020018501866131fb565b82955050505050505b90565b7f455243313135353a207472616e7366657220746f206e6f6e2d4552433131353560008201527f526563656976657220696d706c656d656e746572000000000000000000000000602082015250565b60006151b2603483613458565b91506151bd82615156565b604082019050919050565b600060208201905081810360008301526151e1816151a5565b9050919050565b7f455243313135353a204552433131353552656365697665722072656a6563746560008201527f6420746f6b656e73000000000000000000000000000000000000000000000000602082015250565b6000615244602883613458565b915061524f826151e8565b604082019050919050565b6000602082019050818103600083015261527381615237565b9050919050565b7f5061757361626c653a206e6f7420706175736564000000000000000000000000600082015250565b60006152b0601483613458565b91506152bb8261527a565b602082019050919050565b600060208201905081810360008301526152df816152a3565b9050919050565b7f5061757361626c653a2070617573656400000000000000000000000000000000600082015250565b600061531c601083613458565b9150615327826152e6565b602082019050919050565b6000602082019050818103600083015261534b8161530f565b9050919050565b600060a0820190506153676000830188613861565b6153746020830187613861565b61538160408301866130cc565b61538e60608301856130cc565b81810360808301526153a08184614fb4565b90509695505050505050565b7f455243313135353a206275726e20616d6f756e74206578636565647320746f7460008201527f616c537570706c79000000000000000000000000000000000000000000000000602082015250565b6000615408602883613458565b9150615413826153ac565b604082019050919050565b60006020820190508181036000830152615437816153fb565b905091905056fea26469706673582212208a58da46e0fa78f85546020da78d0d1b27eb62784632d72d45ce27dcd2ac944064736f6c63430008130033",
  "linkReferences": {},
  "deployedLinkReferences": {}
}