{
  "_format": "hh-sol-artifact-1",
  "contractName": "AuctionContract",
  "sourceName": "contracts/AuctionContract.sol",
  "abi": [
    {
      "inputs": [],
      "stateMutability": "nonpayable",
      "type": "constructor"
    },
    {
      "anonymous": false,
      "inputs": [
        {
          "indexed": true,
          "internalType": "address",
          "name": "account",
          "type": "address"
        },
        {
          "indexed": true,
          "internalType": "address",
          "name": "operator",
          "type": "address"
        },
        {
          "indexed": false,
          "internalType": "bool",
          "name": "approved",
          "type": "bool"
        }
      ],
      "name": "ApprovalForAll",
      "type": "event"
    },
    {
      "anonymous": false,
      "inputs": [
        {
          "indexed": true,
          "internalType": "address",
          "name": "previousOwner",
          "type": "address"
        },
        {
          "indexed": true,
          "internalType": "address",
          "name": "newOwner",
          "type": "address"
        }
      ],
      "name": "OwnershipTransferred",
      "type": "event"
    },
    {
      "anonymous": false,
      "inputs": [
        {
          "indexed": false,
          "internalType": "address",
          "name": "account",
          "type": "address"
        }
      ],
      "name": "Paused",
      "type": "event"
    },
    {
      "anonymous": false,
      "inputs": [
        {
          "indexed": true,
          "internalType": "address",
          "name": "operator",
          "type": "address"
        },
        {
          "indexed": true,
          "internalType": "address",
          "name": "from",
          "type": "address"
        },
        {
          "indexed": true,
          "internalType": "address",
          "name": "to",
          "type": "address"
        },
        {
          "indexed": false,
          "internalType": "uint256[]",
          "name": "ids",
          "type": "uint256[]"
        },
        {
          "indexed": false,
          "internalType": "uint256[]",
          "name": "values",
          "type": "uint256[]"
        }
      ],
      "name": "TransferBatch",
      "type": "event"
    },
    {
      "anonymous": false,
      "inputs": [
        {
          "indexed": true,
          "internalType": "address",
          "name": "operator",
          "type": "address"
        },
        {
          "indexed": true,
          "internalType": "address",
          "name": "from",
          "type": "address"
        },
        {
          "indexed": true,
          "internalType": "address",
          "name": "to",
          "type": "address"
        },
        {
          "indexed": false,
          "internalType": "uint256",
          "name": "id",
          "type": "uint256"
        },
        {
          "indexed": false,
          "internalType": "uint256",
          "name": "value",
          "type": "uint256"
        }
      ],
      "name": "TransferSingle",
      "type": "event"
    },
    {
      "anonymous": false,
      "inputs": [
        {
          "indexed": false,
          "internalType": "string",
          "name": "value",
          "type": "string"
        },
        {
          "indexed": true,
          "internalType": "uint256",
          "name": "id",
          "type": "uint256"
        }
      ],
      "name": "URI",
      "type": "event"
    },
    {
      "anonymous": false,
      "inputs": [
        {
          "indexed": false,
          "internalType": "address",
          "name": "account",
          "type": "address"
        }
      ],
      "name": "Unpaused",
      "type": "event"
    },
    {
      "inputs": [
        {
          "internalType": "uint256",
          "name": "id",
          "type": "uint256"
        },
        {
          "internalType": "uint256",
          "name": "amount",
          "type": "uint256"
        }
      ],
      "name": "addMint",
      "outputs": [],
      "stateMutability": "payable",
      "type": "function"
    },
    {
      "inputs": [
        {
          "internalType": "uint256",
          "name": "",
          "type": "uint256"
        }
      ],
      "name": "auctions",
      "outputs": [
        {
          "internalType": "uint256",
          "name": "id",
          "type": "uint256"
        },
        {
          "internalType": "uint256",
          "name": "tokenId",
          "type": "uint256"
        },
        {
          "internalType": "uint256",
          "name": "amount",
          "type": "uint256"
        },
        {
          "internalType": "address",
          "name": "owner",
          "type": "address"
        },
        {
          "internalType": "uint256",
          "name": "currentCost",
          "type": "uint256"
        },
        {
          "internalType": "address",
          "name": "currentBidder",
          "type": "address"
        },
        {
          "internalType": "uint256",
          "name": "timeStart",
          "type": "uint256"
        },
        {
          "internalType": "uint256",
          "name": "timeLimit",
          "type": "uint256"
        },
        {
          "internalType": "uint256",
          "name": "timeEnd",
          "type": "uint256"
        },
        {
          "internalType": "uint8",
          "name": "isEnd",
          "type": "uint8"
        }
      ],
      "stateMutability": "view",
      "type": "function"
    },
    {
      "inputs": [
        {
          "internalType": "address",
          "name": "account",
          "type": "address"
        },
        {
          "internalType": "uint256",
          "name": "id",
          "type": "uint256"
        }
      ],
      "name": "balanceOf",
      "outputs": [
        {
          "internalType": "uint256",
          "name": "",
          "type": "uint256"
        }
      ],
      "stateMutability": "view",
      "type": "function"
    },
    {
      "inputs": [
        {
          "internalType": "address[]",
          "name": "accounts",
          "type": "address[]"
        },
        {
          "internalType": "uint256[]",
          "name": "ids",
          "type": "uint256[]"
        }
      ],
      "name": "balanceOfBatch",
      "outputs": [
        {
          "internalType": "uint256[]",
          "name": "",
          "type": "uint256[]"
        }
      ],
      "stateMutability": "view",
      "type": "function"
    },
    {
      "inputs": [
        {
          "internalType": "uint256",
          "name": "idAuction",
          "type": "uint256"
        }
      ],
      "name": "bid",
      "outputs": [],
      "stateMutability": "payable",
      "type": "function"
    },
    {
      "inputs": [
        {
          "internalType": "uint256",
          "name": "tokenId",
          "type": "uint256"
        },
        {
          "internalType": "uint256",
          "name": "amount",
          "type": "uint256"
        },
        {
          "internalType": "uint256",
          "name": "currentCost",
          "type": "uint256"
        },
        {
          "internalType": "uint256",
          "name": "timeLimitDuration",
          "type": "uint256"
        },
        {
          "internalType": "uint256",
          "name": "timeEndDuration",
          "type": "uint256"
        }
      ],
      "name": "createAuction",
      "outputs": [],
      "stateMutability": "payable",
      "type": "function"
    },
    {
      "inputs": [
        {
          "internalType": "uint256",
          "name": "auctionId",
          "type": "uint256"
        }
      ],
      "name": "endAuction",
      "outputs": [],
      "stateMutability": "payable",
      "type": "function"
    },
    {
      "inputs": [
        {
          "internalType": "uint256",
          "name": "id",
          "type": "uint256"
        }
      ],
      "name": "exists",
      "outputs": [
        {
          "internalType": "bool",
          "name": "",
          "type": "bool"
        }
      ],
      "stateMutability": "view",
      "type": "function"
    },
    {
      "inputs": [],
      "name": "getAllTokenId",
      "outputs": [
        {
          "internalType": "uint256[]",
          "name": "",
          "type": "uint256[]"
        }
      ],
      "stateMutability": "view",
      "type": "function"
    },
    {
      "inputs": [
        {
          "internalType": "uint256",
          "name": "auctionId",
          "type": "uint256"
        }
      ],
      "name": "getBidder",
      "outputs": [
        {
          "internalType": "address[]",
          "name": "",
          "type": "address[]"
        }
      ],
      "stateMutability": "view",
      "type": "function"
    },
    {
      "inputs": [
        {
          "internalType": "uint256",
          "name": "auctionId",
          "type": "uint256"
        }
      ],
      "name": "getBiddingPrice",
      "outputs": [
        {
          "internalType": "uint256[]",
          "name": "",
          "type": "uint256[]"
        }
      ],
      "stateMutability": "view",
      "type": "function"
    },
    {
      "inputs": [
        {
          "internalType": "uint256",
          "name": "tokenId",
          "type": "uint256"
        }
      ],
      "name": "getToken",
      "outputs": [
        {
          "components": [
            {
              "internalType": "string",
              "name": "name",
              "type": "string"
            },
            {
              "internalType": "string",
              "name": "description",
              "type": "string"
            },
            {
              "internalType": "string",
              "name": "uri",
              "type": "string"
            },
            {
              "internalType": "uint256",
              "name": "limit",
              "type": "uint256"
            }
          ],
          "internalType": "struct AuctionContract.Token",
          "name": "",
          "type": "tuple"
        }
      ],
      "stateMutability": "view",
      "type": "function"
    },
    {
      "inputs": [],
      "name": "idAuctionsCount",
      "outputs": [
        {
          "internalType": "uint256",
          "name": "",
          "type": "uint256"
        }
      ],
      "stateMutability": "view",
      "type": "function"
    },
    {
      "inputs": [
        {
          "internalType": "address",
          "name": "account",
          "type": "address"
        },
        {
          "internalType": "address",
          "name": "operator",
          "type": "address"
        }
      ],
      "name": "isApprovedForAll",
      "outputs": [
        {
          "internalType": "bool",
          "name": "",
          "type": "bool"
        }
      ],
      "stateMutability": "view",
      "type": "function"
    },
    {
      "inputs": [
        {
          "internalType": "uint256",
          "name": "amount",
          "type": "uint256"
        },
        {
          "internalType": "uint256",
          "name": "_limit",
          "type": "uint256"
        },
        {
          "internalType": "string",
          "name": "_uri",
          "type": "string"
        },
        {
          "internalType": "string",
          "name": "name",
          "type": "string"
        },
        {
          "internalType": "string",
          "name": "description",
          "type": "string"
        }
      ],
      "name": "newMint",
      "outputs": [],
      "stateMutability": "payable",
      "type": "function"
    },
    {
      "inputs": [],
      "name": "owner",
      "outputs": [
        {
          "internalType": "address",
          "name": "",
          "type": "address"
        }
      ],
      "stateMutability": "view",
      "type": "function"
    },
    {
      "inputs": [],
      "name": "pause",
      "outputs": [],
      "stateMutability": "nonpayable",
      "type": "function"
    },
    {
      "inputs": [],
      "name": "paused",
      "outputs": [
        {
          "internalType": "bool",
          "name": "",
          "type": "bool"
        }
      ],
      "stateMutability": "view",
      "type": "function"
    },
    {
      "inputs": [],
      "name": "publicPrice",
      "outputs": [
        {
          "internalType": "uint256",
          "name": "",
          "type": "uint256"
        }
      ],
      "stateMutability": "view",
      "type": "function"
    },
    {
      "inputs": [],
      "name": "renounceOwnership",
      "outputs": [],
      "stateMutability": "nonpayable",
      "type": "function"
    },
    {
      "inputs": [
        {
          "internalType": "address",
          "name": "from",
          "type": "address"
        },
        {
          "internalType": "address",
          "name": "to",
          "type": "address"
        },
        {
          "internalType": "uint256[]",
          "name": "ids",
          "type": "uint256[]"
        },
        {
          "internalType": "uint256[]",
          "name": "amounts",
          "type": "uint256[]"
        },
        {
          "internalType": "bytes",
          "name": "data",
          "type": "bytes"
        }
      ],
      "name": "safeBatchTransferFrom",
      "outputs": [],
      "stateMutability": "nonpayable",
      "type": "function"
    },
    {
      "inputs": [
        {
          "internalType": "address",
          "name": "from",
          "type": "address"
        },
        {
          "internalType": "address",
          "name": "to",
          "type": "address"
        },
        {
          "internalType": "uint256",
          "name": "id",
          "type": "uint256"
        },
        {
          "internalType": "uint256",
          "name": "amount",
          "type": "uint256"
        },
        {
          "internalType": "bytes",
          "name": "data",
          "type": "bytes"
        }
      ],
      "name": "safeTransferFrom",
      "outputs": [],
      "stateMutability": "nonpayable",
      "type": "function"
    },
    {
      "inputs": [
        {
          "internalType": "address",
          "name": "operator",
          "type": "address"
        },
        {
          "internalType": "bool",
          "name": "approved",
          "type": "bool"
        }
      ],
      "name": "setApprovalForAll",
      "outputs": [],
      "stateMutability": "nonpayable",
      "type": "function"
    },
    {
      "inputs": [
        {
          "internalType": "string",
          "name": "newuri",
          "type": "string"
        }
      ],
      "name": "setURI",
      "outputs": [],
      "stateMutability": "nonpayable",
      "type": "function"
    },
    {
      "inputs": [
        {
          "internalType": "bytes4",
          "name": "interfaceId",
          "type": "bytes4"
        }
      ],
      "name": "supportsInterface",
      "outputs": [
        {
          "internalType": "bool",
          "name": "",
          "type": "bool"
        }
      ],
      "stateMutability": "view",
      "type": "function"
    },
    {
      "inputs": [
        {
          "internalType": "uint256",
          "name": "id",
          "type": "uint256"
        }
      ],
      "name": "totalSupply",
      "outputs": [
        {
          "internalType": "uint256",
          "name": "",
          "type": "uint256"
        }
      ],
      "stateMutability": "view",
      "type": "function"
    },
    {
      "inputs": [
        {
          "internalType": "address",
          "name": "newOwner",
          "type": "address"
        }
      ],
      "name": "transferOwnership",
      "outputs": [],
      "stateMutability": "nonpayable",
      "type": "function"
    },
    {
      "inputs": [],
      "name": "unpause",
      "outputs": [],
      "stateMutability": "nonpayable",
      "type": "function"
    },
    {
      "inputs": [
        {
          "internalType": "uint256",
          "name": "tokenId",
          "type": "uint256"
        }
      ],
      "name": "uri",
      "outputs": [
        {
          "internalType": "string",
          "name": "",
          "type": "string"
        }
      ],
      "stateMutability": "view",
      "type": "function"
    }
  ],
  "bytecode": "0x6080604052662386f26fc100006005556000600d556000600f553480156200002657600080fd5b506040518060400160405280601b81526020017f68747470733a2f2f697066732e696e667572612e696f3a3530303100000000008152506200006e81620000b060201b60201c565b506200008f62000083620000c560201b60201c565b620000cd60201b60201c565b6000600360146101000a81548160ff021916908315150217905550620004f4565b8060029081620000c191906200040d565b5050565b600033905090565b6000600360009054906101000a900473ffffffffffffffffffffffffffffffffffffffff16905081600360006101000a81548173ffffffffffffffffffffffffffffffffffffffff021916908373ffffffffffffffffffffffffffffffffffffffff1602179055508173ffffffffffffffffffffffffffffffffffffffff168173ffffffffffffffffffffffffffffffffffffffff167f8be0079c531659141344cd1fd0a4f28419497f9722a3daafe3b4186f6b6457e060405160405180910390a35050565b600081519050919050565b7f4e487b7100000000000000000000000000000000000000000000000000000000600052604160045260246000fd5b7f4e487b7100000000000000000000000000000000000000000000000000000000600052602260045260246000fd5b600060028204905060018216806200021557607f821691505b6020821081036200022b576200022a620001cd565b5b50919050565b60008190508160005260206000209050919050565b60006020601f8301049050919050565b600082821b905092915050565b600060088302620002957fffffffffffffffffffffffffffffffffffffffffffffffffffffffffffffffff8262000256565b620002a1868362000256565b95508019841693508086168417925050509392505050565b6000819050919050565b6000819050919050565b6000620002ee620002e8620002e284620002b9565b620002c3565b620002b9565b9050919050565b6000819050919050565b6200030a83620002cd565b620003226200031982620002f5565b84845462000263565b825550505050565b600090565b620003396200032a565b62000346818484620002ff565b505050565b5b818110156200036e57620003626000826200032f565b6001810190506200034c565b5050565b601f821115620003bd57620003878162000231565b620003928462000246565b81016020851015620003a2578190505b620003ba620003b18562000246565b8301826200034b565b50505b505050565b600082821c905092915050565b6000620003e260001984600802620003c2565b1980831691505092915050565b6000620003fd8383620003cf565b9150826002028217905092915050565b620004188262000193565b67ffffffffffffffff8111156200043457620004336200019e565b5b620004408254620001fc565b6200044d82828562000372565b600060209050601f83116001811462000485576000841562000470578287015190505b6200047c8582620003ef565b865550620004ec565b601f198416620004958662000231565b60005b82811015620004bf5784890151825560018201915060208501945060208101905062000498565b86831015620004df5784890151620004db601f891682620003cf565b8355505b6001600288020188555050505b505050505050565b615c4d80620005046000396000f3fe6080604052600436106101c15760003560e01c80638456cb59116100f7578063a9a35ceb11610095578063e4b50cb811610064578063e4b50cb814610617578063e985e9c514610654578063f242432a14610691578063f2fde38b146106ba576101c1565b8063a9a35ceb14610577578063b9a2de3a146105a2578063bd85b039146105be578063d9fb8a23146105fb576101c1565b80638ce0519b116100d15780638ce0519b146104dc5780638da5cb5b146104f8578063a22cb46514610523578063a945bf801461054c576101c1565b80638456cb591461046c578063865109f2146104835780638a157df3146104c0576101c1565b80633f4ba83a116101645780634f558e791161013e5780634f558e79146103a7578063571a26a0146103e45780635c975abb1461042a578063715018a614610455576101c1565b80633f4ba83a14610337578063454a2ab31461034e5780634e1273f41461036a576101c1565b806304764089116101a057806304764089146102695780630e89341c146102945780632eb2c2d6146102d1578063388cd93f146102fa576101c1565b8062fdd58e146101c657806301ffc9a71461020357806302fe530514610240575b600080fd5b3480156101d257600080fd5b506101ed60048036038101906101e89190613674565b6106e3565b6040516101fa91906136c3565b60405180910390f35b34801561020f57600080fd5b5061022a60048036038101906102259190613736565b6107ab565b604051610237919061377e565b60405180910390f35b34801561024c57600080fd5b50610267600480360381019061026291906138df565b61088d565b005b34801561027557600080fd5b5061027e6108a1565b60405161028b91906139e6565b60405180910390f35b3480156102a057600080fd5b506102bb60048036038101906102b69190613a08565b6108f9565b6040516102c89190613ab4565b60405180910390f35b3480156102dd57600080fd5b506102f860048036038101906102f39190613c3f565b61099e565b005b34801561030657600080fd5b50610321600480360381019061031c9190613a08565b610a3f565b60405161032e91906139e6565b60405180910390f35b34801561034357600080fd5b5061034c610aad565b005b61036860048036038101906103639190613a08565b610abf565b005b34801561037657600080fd5b50610391600480360381019061038c9190613dd1565b610d62565b60405161039e91906139e6565b60405180910390f35b3480156103b357600080fd5b506103ce60048036038101906103c99190613a08565b610e7b565b6040516103db919061377e565b60405180910390f35b3480156103f057600080fd5b5061040b60048036038101906104069190613a08565b610e8f565b6040516104219a99989796959493929190613e74565b60405180910390f35b34801561043657600080fd5b5061043f610f30565b60405161044c919061377e565b60405180910390f35b34801561046157600080fd5b5061046a610f47565b005b34801561047857600080fd5b50610481610f5b565b005b34801561048f57600080fd5b506104aa60048036038101906104a59190613a08565b610f6d565b6040516104b79190613fce565b60405180910390f35b6104da60048036038101906104d59190613ff0565b611011565b005b6104f660048036038101906104f1919061406b565b6112bb565b005b34801561050457600080fd5b5061050d611401565b60405161051a91906140ab565b60405180910390f35b34801561052f57600080fd5b5061054a600480360381019061054591906140f2565b61142b565b005b34801561055857600080fd5b50610561611441565b60405161056e91906136c3565b60405180910390f35b34801561058357600080fd5b5061058c611447565b60405161059991906136c3565b60405180910390f35b6105bc60048036038101906105b79190613a08565b61144d565b005b3480156105ca57600080fd5b506105e560048036038101906105e09190613a08565b61177d565b6040516105f291906136c3565b60405180910390f35b61061560048036038101906106109190614132565b61182a565b005b34801561062357600080fd5b5061063e60048036038101906106399190613a08565b611b64565b60405161064b91906142bc565b60405180910390f35b34801561066057600080fd5b5061067b600480360381019061067691906142de565b611d51565b604051610688919061377e565b60405180910390f35b34801561069d57600080fd5b506106b860048036038101906106b3919061431e565b611de5565b005b3480156106c657600080fd5b506106e160048036038101906106dc91906143b5565b611e86565b005b60008073ffffffffffffffffffffffffffffffffffffffff168373ffffffffffffffffffffffffffffffffffffffff1603610753576040517f08c379a000000000000000000000000000000000000000000000000000000000815260040161074a90614454565b60405180910390fd5b60008083815260200190815260200160002060008473ffffffffffffffffffffffffffffffffffffffff1673ffffffffffffffffffffffffffffffffffffffff16815260200190815260200160002054905092915050565b60007fd9b67a26000000000000000000000000000000000000000000000000000000007bffffffffffffffffffffffffffffffffffffffffffffffffffffffff1916827bffffffffffffffffffffffffffffffffffffffffffffffffffffffff1916148061087657507f0e89341c000000000000000000000000000000000000000000000000000000007bffffffffffffffffffffffffffffffffffffffffffffffffffffffff1916827bffffffffffffffffffffffffffffffffffffffffffffffffffffffff1916145b80610886575061088582611f09565b5b9050919050565b610895611f73565b61089e81611ff1565b50565b6060600c8054806020026020016040519081016040528092919081815260200182805480156108ef57602002820191906000526020600020905b8154815260200190600101908083116108db575b5050505050905090565b6060600660008381526020019081526020016000208054610919906144a3565b80601f0160208091040260200160405190810160405280929190818152602001828054610945906144a3565b80156109925780601f1061096757610100808354040283529160200191610992565b820191906000526020600020905b81548152906001019060200180831161097557829003601f168201915b50505050509050919050565b6109a6612004565b73ffffffffffffffffffffffffffffffffffffffff168573ffffffffffffffffffffffffffffffffffffffff1614806109ec57506109eb856109e6612004565b611d51565b5b610a2b576040517f08c379a0000000000000000000000000000000000000000000000000000000008152600401610a2290614546565b60405180910390fd5b610a38858585858561200c565b5050505050565b6060600e6000838152602001908152602001600020600a01805480602002602001604051908101604052809291908181526020018280548015610aa157602002820191906000526020600020905b815481526020019060010190808311610a8d575b50505050509050919050565b610ab5611f73565b610abd61232d565b565b6000600e6000838152602001908152602001600020600b0160009054906101000a900460ff1660ff1614610b28576040517f08c379a0000000000000000000000000000000000000000000000000000000008152600401610b1f906145b2565b60405180910390fd5b600e6000828152602001908152602001600020600401543411610b80576040517f08c379a0000000000000000000000000000000000000000000000000000000008152600401610b779061461e565b60405180910390fd5b600f548110610bc4576040517f08c379a0000000000000000000000000000000000000000000000000000000008152600401610bbb9061468a565b60405180910390fd5b600e6000828152602001908152602001600020600801544210610c1c576040517f08c379a0000000000000000000000000000000000000000000000000000000008152600401610c13906145b2565b60405180910390fd5b6000600e60008381526020019081526020016000209050610c3c82612390565b348160040181905550338160050160006101000a81548173ffffffffffffffffffffffffffffffffffffffff021916908373ffffffffffffffffffffffffffffffffffffffff16021790555080600901339080600181540180825580915050600190039060005260206000200160009091909190916101000a81548173ffffffffffffffffffffffffffffffffffffffff021916908373ffffffffffffffffffffffffffffffffffffffff16021790555080600a013490806001815401808255809150506001900390600052602060002001600090919091909150553481600c0160003373ffffffffffffffffffffffffffffffffffffffff1673ffffffffffffffffffffffffffffffffffffffff168152602001908152602001600020819055505050565b60608151835114610da8576040517f08c379a0000000000000000000000000000000000000000000000000000000008152600401610d9f9061471c565b60405180910390fd5b6000835167ffffffffffffffff811115610dc557610dc46137b4565b5b604051908082528060200260200182016040528015610df35781602001602082028036833780820191505090505b50905060005b8451811015610e7057610e40858281518110610e1857610e1761473c565b5b6020026020010151858381518110610e3357610e3261473c565b5b60200260200101516106e3565b828281518110610e5357610e5261473c565b5b60200260200101818152505080610e699061479a565b9050610df9565b508091505092915050565b600080610e87836124f6565b119050919050565b600e6020528060005260406000206000915090508060000154908060010154908060020154908060030160009054906101000a900473ffffffffffffffffffffffffffffffffffffffff16908060040154908060050160009054906101000a900473ffffffffffffffffffffffffffffffffffffffff169080600601549080600701549080600801549080600b0160009054906101000a900460ff1690508a565b6000600360149054906101000a900460ff16905090565b610f4f611f73565b610f596000612513565b565b610f63611f73565b610f6b6125d9565b565b6060600e600083815260200190815260200160002060090180548060200260200160405190810160405280929190818152602001828054801561100557602002820191906000526020600020905b8160009054906101000a900473ffffffffffffffffffffffffffffffffffffffff1673ffffffffffffffffffffffffffffffffffffffff1681526020019060010190808311610fbb575b50505050509050919050565b60016007600087815260200190815260200160002060009054906101000a900460ff1660ff1614611077576040517f08c379a000000000000000000000000000000000000000000000000000000000815260040161106e9061482e565b60405180910390fd5b600184146110ba576040517f08c379a00000000000000000000000000000000000000000000000000000000081526004016110b19061489a565b60405180910390fd5b60006110c633876106e3565b11611106576040517f08c379a00000000000000000000000000000000000000000000000000000000081526004016110fd9061492c565b60405180910390fd5b600060096000878152602001908152602001600020541461115c576040517f08c379a0000000000000000000000000000000000000000000000000000000008152600401611153906149be565b60405180910390fd5b60004290506000600e6000600f548152602001908152602001600020905061118533888861263c565b600f548160000181905550868160010181905550858160020181905550338160030160006101000a81548173ffffffffffffffffffffffffffffffffffffffff021916908373ffffffffffffffffffffffffffffffffffffffff16021790555084816004018190555060008160050160006101000a81548173ffffffffffffffffffffffffffffffffffffffff021916908373ffffffffffffffffffffffffffffffffffffffff160217905550838261123e91906149de565b8160070181905550828261125291906149de565b8160080181905550428160060181905550600081600b0160006101000a81548160ff021916908360ff160217905550600f60008154809291906112949061479a565b91905055506001600960008981526020019081526020016000208190555050505050505050565b6112c3611f73565b806005546112d19190614a12565b341015611313576040517f08c379a000000000000000000000000000000000000000000000000000000000815260040161130a90614aa0565b60405180910390fd5b60016007600084815260200190815260200160002060009054906101000a900460ff1660ff1614611379576040517f08c379a000000000000000000000000000000000000000000000000000000000815260040161137090614b0c565b60405180910390fd5b6008600083815260200190815260200160002054816113978461177d565b6113a191906149de565b11156113e2576040517f08c379a00000000000000000000000000000000000000000000000000000000081526004016113d990614b9e565b60405180910390fd5b6113fd33838360405180602001604052806000815250612882565b5050565b6000600360009054906101000a900473ffffffffffffffffffffffffffffffffffffffff16905090565b61143d611436612004565b8383612a32565b5050565b60055481565b600f5481565b600f548110611491576040517f08c379a000000000000000000000000000000000000000000000000000000000815260040161148890614c0a565b60405180910390fd5b6000600e6000838152602001908152602001600020600b0160009054906101000a900460ff1660ff16146114fa576040517f08c379a00000000000000000000000000000000000000000000000000000000081526004016114f190614c76565b60405180910390fd5b600e6000828152602001908152602001600020600701544211611552576040517f08c379a000000000000000000000000000000000000000000000000000000000815260040161154990614d08565b60405180910390fd5b6000600e600083815260200190815260200160002090508060030160009054906101000a900473ffffffffffffffffffffffffffffffffffffffff1673ffffffffffffffffffffffffffffffffffffffff163373ffffffffffffffffffffffffffffffffffffffff16146115fb576040517f08c379a00000000000000000000000000000000000000000000000000000000081526004016115f290614d74565b60405180910390fd5b60008160050160009054906101000a900473ffffffffffffffffffffffffffffffffffffffff169050600082600401549050600073ffffffffffffffffffffffffffffffffffffffff168360050160009054906101000a900473ffffffffffffffffffffffffffffffffffffffff1673ffffffffffffffffffffffffffffffffffffffff16036116ad576116a8338460010154856002015460405180602001604052806000815250612882565b61173c565b6116d0828460010154856002015460405180602001604052806000815250612882565b8260030160009054906101000a900473ffffffffffffffffffffffffffffffffffffffff1673ffffffffffffffffffffffffffffffffffffffff166108fc829081150290604051600060405180830381858888f1935050505015801561173a573d6000803e3d6000fd5b505b600183600b0160006101000a81548160ff021916908360ff160217905550600060096000856001015481526020019081526020016000208190555050505050565b600080611789836124f6565b905060005b600f548110156118205783600e6000838152602001908152602001600020600101541480156117e357506000600e6000838152602001908152602001600020600b0160009054906101000a900460ff1660ff16145b1561180d57600e6000828152602001908152602001600020600201548261180a91906149de565b91505b80806118189061479a565b91505061178e565b5080915050919050565b611832611f73565b846005546118409190614a12565b341015611882576040517f08c379a000000000000000000000000000000000000000000000000000000000815260040161187990614aa0565b60405180910390fd5b600060076000600d54815260200190815260200160002060009054906101000a900460ff1660ff16146118ea576040517f08c379a00000000000000000000000000000000000000000000000000000000081526004016118e190614de0565b60405180910390fd5b83851061192c576040517f08c379a000000000000000000000000000000000000000000000000000000000815260040161192390614b9e565b60405180910390fd5b6000835111611970576040517f08c379a000000000000000000000000000000000000000000000000000000000815260040161196790614e4c565b60405180910390fd5b6000600b846040516119829190614ea8565b908152602001604051809103902060009054906101000a900460ff1660ff16146119e1576040517f08c379a00000000000000000000000000000000000000000000000000000000081526004016119d890614f0b565b60405180910390fd5b6119fe33600d548760405180602001604052806000815250612882565b600c600d549080600181540180825580915050600190039060005260206000200160009091909190915055600160076000600d54815260200190815260200160002060006101000a81548160ff021916908360ff1602179055508360086000600d54815260200190815260200160002081905550611a7e600d5484612b9e565b81600a6000600d5481526020019081526020016000206000019081611aa391906150d7565b5080600a6000600d5481526020019081526020016000206001019081611ac991906150d7565b5082600a6000600d5481526020019081526020016000206002019081611aef91906150d7565b5083600a6000600d548152602001908152602001600020600301819055506001600b84604051611b1f9190614ea8565b908152602001604051809103902060006101000a81548160ff021916908360ff160217905550600d6000815480929190611b589061479a565b91905055505050505050565b611b6c6135a4565b600a6000838152602001908152602001600020604051806080016040529081600082018054611b9a906144a3565b80601f0160208091040260200160405190810160405280929190818152602001828054611bc6906144a3565b8015611c135780601f10611be857610100808354040283529160200191611c13565b820191906000526020600020905b815481529060010190602001808311611bf657829003601f168201915b50505050508152602001600182018054611c2c906144a3565b80601f0160208091040260200160405190810160405280929190818152602001828054611c58906144a3565b8015611ca55780601f10611c7a57610100808354040283529160200191611ca5565b820191906000526020600020905b815481529060010190602001808311611c8857829003601f168201915b50505050508152602001600282018054611cbe906144a3565b80601f0160208091040260200160405190810160405280929190818152602001828054611cea906144a3565b8015611d375780601f10611d0c57610100808354040283529160200191611d37565b820191906000526020600020905b815481529060010190602001808311611d1a57829003601f168201915b505050505081526020016003820154815250509050919050565b6000600160008473ffffffffffffffffffffffffffffffffffffffff1673ffffffffffffffffffffffffffffffffffffffff16815260200190815260200160002060008373ffffffffffffffffffffffffffffffffffffffff1673ffffffffffffffffffffffffffffffffffffffff16815260200190815260200160002060009054906101000a900460ff16905092915050565b611ded612004565b73ffffffffffffffffffffffffffffffffffffffff168573ffffffffffffffffffffffffffffffffffffffff161480611e335750611e3285611e2d612004565b611d51565b5b611e72576040517f08c379a0000000000000000000000000000000000000000000000000000000008152600401611e6990614546565b60405180910390fd5b611e7f8585858585612c2d565b5050505050565b611e8e611f73565b600073ffffffffffffffffffffffffffffffffffffffff168173ffffffffffffffffffffffffffffffffffffffff1603611efd576040517f08c379a0000000000000000000000000000000000000000000000000000000008152600401611ef49061521b565b60405180910390fd5b611f0681612513565b50565b60007f01ffc9a7000000000000000000000000000000000000000000000000000000007bffffffffffffffffffffffffffffffffffffffffffffffffffffffff1916827bffffffffffffffffffffffffffffffffffffffffffffffffffffffff1916149050919050565b611f7b612004565b73ffffffffffffffffffffffffffffffffffffffff16611f99611401565b73ffffffffffffffffffffffffffffffffffffffff1614611fef576040517f08c379a0000000000000000000000000000000000000000000000000000000008152600401611fe690615287565b60405180910390fd5b565b806002908161200091906150d7565b5050565b600033905090565b8151835114612050576040517f08c379a000000000000000000000000000000000000000000000000000000000815260040161204790615319565b60405180910390fd5b600073ffffffffffffffffffffffffffffffffffffffff168473ffffffffffffffffffffffffffffffffffffffff16036120bf576040517f08c379a00000000000000000000000000000000000000000000000000000000081526004016120b6906153ab565b60405180910390fd5b60006120c9612004565b90506120d9818787878787612ec8565b60005b845181101561228a5760008582815181106120fa576120f961473c565b5b6020026020010151905060008583815181106121195761211861473c565b5b60200260200101519050600080600084815260200190815260200160002060008b73ffffffffffffffffffffffffffffffffffffffff1673ffffffffffffffffffffffffffffffffffffffff168152602001908152602001600020549050818110156121ba576040517f08c379a00000000000000000000000000000000000000000000000000000000081526004016121b19061543d565b60405180910390fd5b81810360008085815260200190815260200160002060008c73ffffffffffffffffffffffffffffffffffffffff1673ffffffffffffffffffffffffffffffffffffffff168152602001908152602001600020819055508160008085815260200190815260200160002060008b73ffffffffffffffffffffffffffffffffffffffff1673ffffffffffffffffffffffffffffffffffffffff168152602001908152602001600020600082825461226f91906149de565b92505081905550505050806122839061479a565b90506120dc565b508473ffffffffffffffffffffffffffffffffffffffff168673ffffffffffffffffffffffffffffffffffffffff168273ffffffffffffffffffffffffffffffffffffffff167f4a39dc06d4c0dbc64b70af90fd698a233a518aa5d07e595d983b8c0526c8f7fb878760405161230192919061545d565b60405180910390a4612317818787878787612ee6565b612325818787878787612eee565b505050505050565b6123356130c5565b6000600360146101000a81548160ff0219169083151502179055507f5db9ee0a495bf2e6ff9c91a7834c1ba4fdd244a5e8aa4e537bd38aeae4b073aa612379612004565b60405161238691906140ab565b60405180910390a1565b6000600e6000838152602001908152602001600020905060005b81600901805490508110156124f15760008260090182815481106123d1576123d061473c565b5b9060005260206000200160009054906101000a900473ffffffffffffffffffffffffffffffffffffffff169050600083600c0160008373ffffffffffffffffffffffffffffffffffffffff1673ffffffffffffffffffffffffffffffffffffffff16815260200190815260200160002054905060008111156124dc57600084600c0160008473ffffffffffffffffffffffffffffffffffffffff1673ffffffffffffffffffffffffffffffffffffffff168152602001908152602001600020819055508173ffffffffffffffffffffffffffffffffffffffff166108fc829081150290604051600060405180830381858888f193505050501580156124da573d6000803e3d6000fd5b505b505080806124e99061479a565b9150506123aa565b505050565b600060046000838152602001908152602001600020549050919050565b6000600360009054906101000a900473ffffffffffffffffffffffffffffffffffffffff16905081600360006101000a81548173ffffffffffffffffffffffffffffffffffffffff021916908373ffffffffffffffffffffffffffffffffffffffff1602179055508173ffffffffffffffffffffffffffffffffffffffff168173ffffffffffffffffffffffffffffffffffffffff167f8be0079c531659141344cd1fd0a4f28419497f9722a3daafe3b4186f6b6457e060405160405180910390a35050565b6125e161310e565b6001600360146101000a81548160ff0219169083151502179055507f62e78cea01bee320cd4e420270b5ea74000d11b0c9f74754ebdbfc544b05a258612625612004565b60405161263291906140ab565b60405180910390a1565b600073ffffffffffffffffffffffffffffffffffffffff168373ffffffffffffffffffffffffffffffffffffffff16036126ab576040517f08c379a00000000000000000000000000000000000000000000000000000000081526004016126a290615506565b60405180910390fd5b60006126b5612004565b905060006126c284613158565b905060006126cf84613158565b90506126ef83876000858560405180602001604052806000815250612ec8565b600080600087815260200190815260200160002060008873ffffffffffffffffffffffffffffffffffffffff1673ffffffffffffffffffffffffffffffffffffffff16815260200190815260200160002054905084811015612786576040517f08c379a000000000000000000000000000000000000000000000000000000000815260040161277d90615598565b60405180910390fd5b84810360008088815260200190815260200160002060008973ffffffffffffffffffffffffffffffffffffffff1673ffffffffffffffffffffffffffffffffffffffff16815260200190815260200160002081905550600073ffffffffffffffffffffffffffffffffffffffff168773ffffffffffffffffffffffffffffffffffffffff168573ffffffffffffffffffffffffffffffffffffffff167fc3d58168c5ae7397731d063d5bbf3d657854427343f4c083240f7aacaa2d0f6289896040516128539291906155b8565b60405180910390a461287984886000868660405180602001604052806000815250612ee6565b50505050505050565b600073ffffffffffffffffffffffffffffffffffffffff168473ffffffffffffffffffffffffffffffffffffffff16036128f1576040517f08c379a00000000000000000000000000000000000000000000000000000000081526004016128e890615653565b60405180910390fd5b60006128fb612004565b9050600061290885613158565b9050600061291585613158565b905061292683600089858589612ec8565b8460008088815260200190815260200160002060008973ffffffffffffffffffffffffffffffffffffffff1673ffffffffffffffffffffffffffffffffffffffff168152602001908152602001600020600082825461298591906149de565b925050819055508673ffffffffffffffffffffffffffffffffffffffff16600073ffffffffffffffffffffffffffffffffffffffff168473ffffffffffffffffffffffffffffffffffffffff167fc3d58168c5ae7397731d063d5bbf3d657854427343f4c083240f7aacaa2d0f628989604051612a039291906155b8565b60405180910390a4612a1a83600089858589612ee6565b612a29836000898989896131d2565b50505050505050565b8173ffffffffffffffffffffffffffffffffffffffff168373ffffffffffffffffffffffffffffffffffffffff1603612aa0576040517f08c379a0000000000000000000000000000000000000000000000000000000008152600401612a97906156e5565b60405180910390fd5b80600160008573ffffffffffffffffffffffffffffffffffffffff1673ffffffffffffffffffffffffffffffffffffffff16815260200190815260200160002060008473ffffffffffffffffffffffffffffffffffffffff1673ffffffffffffffffffffffffffffffffffffffff16815260200190815260200160002060006101000a81548160ff0219169083151502179055508173ffffffffffffffffffffffffffffffffffffffff168373ffffffffffffffffffffffffffffffffffffffff167f17307eab39ab6107e8899845ad3d59bd9653f200f220920489ca2b5937696c3183604051612b91919061377e565b60405180910390a3505050565b612ba6611f73565b6000600660008481526020019081526020016000208054612bc6906144a3565b905014612c08576040517f08c379a0000000000000000000000000000000000000000000000000000000008152600401612bff90615751565b60405180910390fd5b80600660008481526020019081526020016000209081612c2891906150d7565b505050565b600073ffffffffffffffffffffffffffffffffffffffff168473ffffffffffffffffffffffffffffffffffffffff1603612c9c576040517f08c379a0000000000000000000000000000000000000000000000000000000008152600401612c93906153ab565b60405180910390fd5b6000612ca6612004565b90506000612cb385613158565b90506000612cc085613158565b9050612cd0838989858589612ec8565b600080600088815260200190815260200160002060008a73ffffffffffffffffffffffffffffffffffffffff1673ffffffffffffffffffffffffffffffffffffffff16815260200190815260200160002054905085811015612d67576040517f08c379a0000000000000000000000000000000000000000000000000000000008152600401612d5e9061543d565b60405180910390fd5b85810360008089815260200190815260200160002060008b73ffffffffffffffffffffffffffffffffffffffff1673ffffffffffffffffffffffffffffffffffffffff168152602001908152602001600020819055508560008089815260200190815260200160002060008a73ffffffffffffffffffffffffffffffffffffffff1673ffffffffffffffffffffffffffffffffffffffff1681526020019081526020016000206000828254612e1c91906149de565b925050819055508773ffffffffffffffffffffffffffffffffffffffff168973ffffffffffffffffffffffffffffffffffffffff168573ffffffffffffffffffffffffffffffffffffffff167fc3d58168c5ae7397731d063d5bbf3d657854427343f4c083240f7aacaa2d0f628a8a604051612e999291906155b8565b60405180910390a4612eaf848a8a86868a612ee6565b612ebd848a8a8a8a8a6131d2565b505050505050505050565b612ed061310e565b612ede8686868686866133a9565b505050505050565b505050505050565b612f0d8473ffffffffffffffffffffffffffffffffffffffff16613579565b156130bd578373ffffffffffffffffffffffffffffffffffffffff1663bc197c8187878686866040518663ffffffff1660e01b8152600401612f539594939291906157c6565b6020604051808303816000875af1925050508015612f8f57506040513d601f19601f82011682018060405250810190612f8c9190615843565b60015b61303457612f9b61587d565b806308c379a003612ff75750612faf61589f565b80612fba5750612ff9565b806040517f08c379a0000000000000000000000000000000000000000000000000000000008152600401612fee9190613ab4565b60405180910390fd5b505b6040517f08c379a000000000000000000000000000000000000000000000000000000000815260040161302b906159a1565b60405180910390fd5b63bc197c8160e01b7bffffffffffffffffffffffffffffffffffffffffffffffffffffffff1916817bffffffffffffffffffffffffffffffffffffffffffffffffffffffff1916146130bb576040517f08c379a00000000000000000000000000000000000000000000000000000000081526004016130b290615a33565b60405180910390fd5b505b505050505050565b6130cd610f30565b61310c576040517f08c379a000000000000000000000000000000000000000000000000000000000815260040161310390615a9f565b60405180910390fd5b565b613116610f30565b15613156576040517f08c379a000000000000000000000000000000000000000000000000000000000815260040161314d90615b0b565b60405180910390fd5b565b60606000600167ffffffffffffffff811115613177576131766137b4565b5b6040519080825280602002602001820160405280156131a55781602001602082028036833780820191505090505b50905082816000815181106131bd576131bc61473c565b5b60200260200101818152505080915050919050565b6131f18473ffffffffffffffffffffffffffffffffffffffff16613579565b156133a1578373ffffffffffffffffffffffffffffffffffffffff1663f23a6e6187878686866040518663ffffffff1660e01b8152600401613237959493929190615b2b565b6020604051808303816000875af192505050801561327357506040513d601f19601f820116820180604052508101906132709190615843565b60015b6133185761327f61587d565b806308c379a0036132db575061329361589f565b8061329e57506132dd565b806040517f08c379a00000000000000000000000000000000000000000000000000000000081526004016132d29190613ab4565b60405180910390fd5b505b6040517f08c379a000000000000000000000000000000000000000000000000000000000815260040161330f906159a1565b60405180910390fd5b63f23a6e6160e01b7bffffffffffffffffffffffffffffffffffffffffffffffffffffffff1916817bffffffffffffffffffffffffffffffffffffffffffffffffffffffff19161461339f576040517f08c379a000000000000000000000000000000000000000000000000000000000815260040161339690615a33565b60405180910390fd5b505b505050505050565b6133b786868686868661359c565b600073ffffffffffffffffffffffffffffffffffffffff168573ffffffffffffffffffffffffffffffffffffffff16036134685760005b83518110156134665782818151811061340a5761340961473c565b5b6020026020010151600460008684815181106134295761342861473c565b5b60200260200101518152602001908152602001600020600082825461344e91906149de565b925050819055508061345f9061479a565b90506133ee565b505b600073ffffffffffffffffffffffffffffffffffffffff168473ffffffffffffffffffffffffffffffffffffffff16036135715760005b835181101561356f5760008482815181106134bd576134bc61473c565b5b6020026020010151905060008483815181106134dc576134db61473c565b5b6020026020010151905060006004600084815260200190815260200160002054905081811015613541576040517f08c379a000000000000000000000000000000000000000000000000000000000815260040161353890615bf7565b60405180910390fd5b8181036004600085815260200190815260200160002081905550505050806135689061479a565b905061349f565b505b505050505050565b6000808273ffffffffffffffffffffffffffffffffffffffff163b119050919050565b505050505050565b6040518060800160405280606081526020016060815260200160608152602001600081525090565b6000604051905090565b600080fd5b600080fd5b600073ffffffffffffffffffffffffffffffffffffffff82169050919050565b600061360b826135e0565b9050919050565b61361b81613600565b811461362657600080fd5b50565b60008135905061363881613612565b92915050565b6000819050919050565b6136518161363e565b811461365c57600080fd5b50565b60008135905061366e81613648565b92915050565b6000806040838503121561368b5761368a6135d6565b5b600061369985828601613629565b92505060206136aa8582860161365f565b9150509250929050565b6136bd8161363e565b82525050565b60006020820190506136d860008301846136b4565b92915050565b60007fffffffff0000000000000000000000000000000000000000000000000000000082169050919050565b613713816136de565b811461371e57600080fd5b50565b6000813590506137308161370a565b92915050565b60006020828403121561374c5761374b6135d6565b5b600061375a84828501613721565b91505092915050565b60008115159050919050565b61377881613763565b82525050565b6000602082019050613793600083018461376f565b92915050565b600080fd5b600080fd5b6000601f19601f8301169050919050565b7f4e487b7100000000000000000000000000000000000000000000000000000000600052604160045260246000fd5b6137ec826137a3565b810181811067ffffffffffffffff8211171561380b5761380a6137b4565b5b80604052505050565b600061381e6135cc565b905061382a82826137e3565b919050565b600067ffffffffffffffff82111561384a576138496137b4565b5b613853826137a3565b9050602081019050919050565b82818337600083830152505050565b600061388261387d8461382f565b613814565b90508281526020810184848401111561389e5761389d61379e565b5b6138a9848285613860565b509392505050565b600082601f8301126138c6576138c5613799565b5b81356138d684826020860161386f565b91505092915050565b6000602082840312156138f5576138f46135d6565b5b600082013567ffffffffffffffff811115613913576139126135db565b5b61391f848285016138b1565b91505092915050565b600081519050919050565b600082825260208201905092915050565b6000819050602082019050919050565b61395d8161363e565b82525050565b600061396f8383613954565b60208301905092915050565b6000602082019050919050565b600061399382613928565b61399d8185613933565b93506139a883613944565b8060005b838110156139d95781516139c08882613963565b97506139cb8361397b565b9250506001810190506139ac565b5085935050505092915050565b60006020820190508181036000830152613a008184613988565b905092915050565b600060208284031215613a1e57613a1d6135d6565b5b6000613a2c8482850161365f565b91505092915050565b600081519050919050565b600082825260208201905092915050565b60005b83811015613a6f578082015181840152602081019050613a54565b60008484015250505050565b6000613a8682613a35565b613a908185613a40565b9350613aa0818560208601613a51565b613aa9816137a3565b840191505092915050565b60006020820190508181036000830152613ace8184613a7b565b905092915050565b600067ffffffffffffffff821115613af157613af06137b4565b5b602082029050602081019050919050565b600080fd5b6000613b1a613b1584613ad6565b613814565b90508083825260208201905060208402830185811115613b3d57613b3c613b02565b5b835b81811015613b665780613b52888261365f565b845260208401935050602081019050613b3f565b5050509392505050565b600082601f830112613b8557613b84613799565b5b8135613b95848260208601613b07565b91505092915050565b600067ffffffffffffffff821115613bb957613bb86137b4565b5b613bc2826137a3565b9050602081019050919050565b6000613be2613bdd84613b9e565b613814565b905082815260208101848484011115613bfe57613bfd61379e565b5b613c09848285613860565b509392505050565b600082601f830112613c2657613c25613799565b5b8135613c36848260208601613bcf565b91505092915050565b600080600080600060a08688031215613c5b57613c5a6135d6565b5b6000613c6988828901613629565b9550506020613c7a88828901613629565b945050604086013567ffffffffffffffff811115613c9b57613c9a6135db565b5b613ca788828901613b70565b935050606086013567ffffffffffffffff811115613cc857613cc76135db565b5b613cd488828901613b70565b925050608086013567ffffffffffffffff811115613cf557613cf46135db565b5b613d0188828901613c11565b9150509295509295909350565b600067ffffffffffffffff821115613d2957613d286137b4565b5b602082029050602081019050919050565b6000613d4d613d4884613d0e565b613814565b90508083825260208201905060208402830185811115613d7057613d6f613b02565b5b835b81811015613d995780613d858882613629565b845260208401935050602081019050613d72565b5050509392505050565b600082601f830112613db857613db7613799565b5b8135613dc8848260208601613d3a565b91505092915050565b60008060408385031215613de857613de76135d6565b5b600083013567ffffffffffffffff811115613e0657613e056135db565b5b613e1285828601613da3565b925050602083013567ffffffffffffffff811115613e3357613e326135db565b5b613e3f85828601613b70565b9150509250929050565b613e5281613600565b82525050565b600060ff82169050919050565b613e6e81613e58565b82525050565b600061014082019050613e8a600083018d6136b4565b613e97602083018c6136b4565b613ea4604083018b6136b4565b613eb1606083018a613e49565b613ebe60808301896136b4565b613ecb60a0830188613e49565b613ed860c08301876136b4565b613ee560e08301866136b4565b613ef36101008301856136b4565b613f01610120830184613e65565b9b9a5050505050505050505050565b600081519050919050565b600082825260208201905092915050565b6000819050602082019050919050565b613f4581613600565b82525050565b6000613f578383613f3c565b60208301905092915050565b6000602082019050919050565b6000613f7b82613f10565b613f858185613f1b565b9350613f9083613f2c565b8060005b83811015613fc1578151613fa88882613f4b565b9750613fb383613f63565b925050600181019050613f94565b5085935050505092915050565b60006020820190508181036000830152613fe88184613f70565b905092915050565b600080600080600060a0868803121561400c5761400b6135d6565b5b600061401a8882890161365f565b955050602061402b8882890161365f565b945050604061403c8882890161365f565b935050606061404d8882890161365f565b925050608061405e8882890161365f565b9150509295509295909350565b60008060408385031215614082576140816135d6565b5b60006140908582860161365f565b92505060206140a18582860161365f565b9150509250929050565b60006020820190506140c06000830184613e49565b92915050565b6140cf81613763565b81146140da57600080fd5b50565b6000813590506140ec816140c6565b92915050565b60008060408385031215614109576141086135d6565b5b600061411785828601613629565b9250506020614128858286016140dd565b9150509250929050565b600080600080600060a0868803121561414e5761414d6135d6565b5b600061415c8882890161365f565b955050602061416d8882890161365f565b945050604086013567ffffffffffffffff81111561418e5761418d6135db565b5b61419a888289016138b1565b935050606086013567ffffffffffffffff8111156141bb576141ba6135db565b5b6141c7888289016138b1565b925050608086013567ffffffffffffffff8111156141e8576141e76135db565b5b6141f4888289016138b1565b9150509295509295909350565b600082825260208201905092915050565b600061421d82613a35565b6142278185614201565b9350614237818560208601613a51565b614240816137a3565b840191505092915050565b600060808301600083015184820360008601526142688282614212565b915050602083015184820360208601526142828282614212565b9150506040830151848203604086015261429c8282614212565b91505060608301516142b16060860182613954565b508091505092915050565b600060208201905081810360008301526142d6818461424b565b905092915050565b600080604083850312156142f5576142f46135d6565b5b600061430385828601613629565b925050602061431485828601613629565b9150509250929050565b600080600080600060a0868803121561433a576143396135d6565b5b600061434888828901613629565b955050602061435988828901613629565b945050604061436a8882890161365f565b935050606061437b8882890161365f565b925050608086013567ffffffffffffffff81111561439c5761439b6135db565b5b6143a888828901613c11565b9150509295509295909350565b6000602082840312156143cb576143ca6135d6565b5b60006143d984828501613629565b91505092915050565b7f455243313135353a2061646472657373207a65726f206973206e6f742061207660008201527f616c6964206f776e657200000000000000000000000000000000000000000000602082015250565b600061443e602a83613a40565b9150614449826143e2565b604082019050919050565b6000602082019050818103600083015261446d81614431565b9050919050565b7f4e487b7100000000000000000000000000000000000000000000000000000000600052602260045260246000fd5b600060028204905060018216806144bb57607f821691505b6020821081036144ce576144cd614474565b5b50919050565b7f455243313135353a2063616c6c6572206973206e6f7420746f6b656e206f776e60008201527f6572206f7220617070726f766564000000000000000000000000000000000000602082015250565b6000614530602e83613a40565b915061453b826144d4565b604082019050919050565b6000602082019050818103600083015261455f81614523565b9050919050565b7f41756374696f6e2068617320656e646564000000000000000000000000000000600082015250565b600061459c601183613a40565b91506145a782614566565b602082019050919050565b600060208201905081810360008301526145cb8161458f565b9050919050565b7f4861766520746f20706179206120686967686572207072696365000000000000600082015250565b6000614608601a83613a40565b9150614613826145d2565b602082019050919050565b60006020820190508181036000830152614637816145fb565b9050919050565b7f546869732061756374696f6e20646f6573206e6f742065786973740000000000600082015250565b6000614674601b83613a40565b915061467f8261463e565b602082019050919050565b600060208201905081810360008301526146a381614667565b9050919050565b7f455243313135353a206163636f756e747320616e6420696473206c656e67746860008201527f206d69736d617463680000000000000000000000000000000000000000000000602082015250565b6000614706602983613a40565b9150614711826146aa565b604082019050919050565b60006020820190508181036000830152614735816146f9565b9050919050565b7f4e487b7100000000000000000000000000000000000000000000000000000000600052603260045260246000fd5b7f4e487b7100000000000000000000000000000000000000000000000000000000600052601160045260246000fd5b60006147a58261363e565b91507fffffffffffffffffffffffffffffffffffffffffffffffffffffffffffffffff82036147d7576147d661476b565b5b600182019050919050565b7f4e6f74206578697473207468697320746f6b656e496400000000000000000000600082015250565b6000614818601683613a40565b9150614823826147e2565b602082019050919050565b600060208201905081810360008301526148478161480b565b9050919050565b7f616d6f756e74206973206e6f742076616c696400000000000000000000000000600082015250565b6000614884601383613a40565b915061488f8261484e565b602082019050919050565b600060208201905081810360008301526148b381614877565b9050919050565b7f5468697320746f6b656e20646f6573206e6f7420657869737420696e20796f7560008201527f722077616c6c6574000000000000000000000000000000000000000000000000602082015250565b6000614916602883613a40565b9150614921826148ba565b604082019050919050565b6000602082019050818103600083015261494581614909565b9050919050565b7f416e2061756374696f6e20666f72207468697320746f6b656e20616c7265616460008201527f7920657869737473000000000000000000000000000000000000000000000000602082015250565b60006149a8602883613a40565b91506149b38261494c565b604082019050919050565b600060208201905081810360008301526149d78161499b565b9050919050565b60006149e98261363e565b91506149f48361363e565b9250828201905080821115614a0c57614a0b61476b565b5b92915050565b6000614a1d8261363e565b9150614a288361363e565b9250828202614a368161363e565b91508282048414831517614a4d57614a4c61476b565b5b5092915050565b7f57524f4e472c204e6f7420656e6f756768206d6f6e65792073656e7400000000600082015250565b6000614a8a601c83613a40565b9150614a9582614a54565b602082019050919050565b60006020820190508181036000830152614ab981614a7d565b9050919050565b7f4e6f7420657869747320746f6b656e0000000000000000000000000000000000600082015250565b6000614af6600f83613a40565b9150614b0182614ac0565b602082019050919050565b60006020820190508181036000830152614b2581614ae9565b9050919050565b7f596f7520686176652063726561746564206d6f7265207468616e20616c6c6f7760008201527f656420616d6f756e740000000000000000000000000000000000000000000000602082015250565b6000614b88602983613a40565b9150614b9382614b2c565b604082019050919050565b60006020820190508181036000830152614bb781614b7b565b9050919050565b7f41756374696f6e20646f6573206e6f7420657869737400000000000000000000600082015250565b6000614bf4601683613a40565b9150614bff82614bbe565b602082019050919050565b60006020820190508181036000830152614c2381614be7565b9050919050565b7f546869732061756374696f6e2068617320656e64656400000000000000000000600082015250565b6000614c60601683613a40565b9150614c6b82614c2a565b602082019050919050565b60006020820190508181036000830152614c8f81614c53565b9050919050565b7f546865206d696e696d756d2074696d6520686173206e6f74206265656e20726560008201527f616368656420746f20656e640000000000000000000000000000000000000000602082015250565b6000614cf2602c83613a40565b9150614cfd82614c96565b604082019050919050565b60006020820190508181036000830152614d2181614ce5565b9050919050565b7f596f7520617265206e6f74206f776e6572206f66207468697320746f6b656e00600082015250565b6000614d5e601f83613a40565b9150614d6982614d28565b602082019050919050565b60006020820190508181036000830152614d8d81614d51565b9050919050565b7f45786974656420746f6b656e0000000000000000000000000000000000000000600082015250565b6000614dca600c83613a40565b9150614dd582614d94565b602082019050919050565b60006020820190508181036000830152614df981614dbd565b9050919050565b7f506c6561736520616464206461746120746f2074686973206e66740000000000600082015250565b6000614e36601b83613a40565b9150614e4182614e00565b602082019050919050565b60006020820190508181036000830152614e6581614e29565b9050919050565b600081905092915050565b6000614e8282613a35565b614e8c8185614e6c565b9350614e9c818560208601613a51565b80840191505092915050565b6000614eb48284614e77565b915081905092915050565b7f496d616765206578697374656400000000000000000000000000000000000000600082015250565b6000614ef5600d83613a40565b9150614f0082614ebf565b602082019050919050565b60006020820190508181036000830152614f2481614ee8565b9050919050565b60008190508160005260206000209050919050565b60006020601f8301049050919050565b600082821b905092915050565b600060088302614f8d7fffffffffffffffffffffffffffffffffffffffffffffffffffffffffffffffff82614f50565b614f978683614f50565b95508019841693508086168417925050509392505050565b6000819050919050565b6000614fd4614fcf614fca8461363e565b614faf565b61363e565b9050919050565b6000819050919050565b614fee83614fb9565b615002614ffa82614fdb565b848454614f5d565b825550505050565b600090565b61501761500a565b615022818484614fe5565b505050565b5b818110156150465761503b60008261500f565b600181019050615028565b5050565b601f82111561508b5761505c81614f2b565b61506584614f40565b81016020851015615074578190505b61508861508085614f40565b830182615027565b50505b505050565b600082821c905092915050565b60006150ae60001984600802615090565b1980831691505092915050565b60006150c7838361509d565b9150826002028217905092915050565b6150e082613a35565b67ffffffffffffffff8111156150f9576150f86137b4565b5b61510382546144a3565b61510e82828561504a565b600060209050601f831160018114615141576000841561512f578287015190505b61513985826150bb565b8655506151a1565b601f19841661514f86614f2b565b60005b8281101561517757848901518255600182019150602085019450602081019050615152565b868310156151945784890151615190601f89168261509d565b8355505b6001600288020188555050505b505050505050565b7f4f776e61626c653a206e6577206f776e657220697320746865207a65726f206160008201527f6464726573730000000000000000000000000000000000000000000000000000602082015250565b6000615205602683613a40565b9150615210826151a9565b604082019050919050565b60006020820190508181036000830152615234816151f8565b9050919050565b7f4f776e61626c653a2063616c6c6572206973206e6f7420746865206f776e6572600082015250565b6000615271602083613a40565b915061527c8261523b565b602082019050919050565b600060208201905081810360008301526152a081615264565b9050919050565b7f455243313135353a2069647320616e6420616d6f756e7473206c656e6774682060008201527f6d69736d61746368000000000000000000000000000000000000000000000000602082015250565b6000615303602883613a40565b915061530e826152a7565b604082019050919050565b60006020820190508181036000830152615332816152f6565b9050919050565b7f455243313135353a207472616e7366657220746f20746865207a65726f20616460008201527f6472657373000000000000000000000000000000000000000000000000000000602082015250565b6000615395602583613a40565b91506153a082615339565b604082019050919050565b600060208201905081810360008301526153c481615388565b9050919050565b7f455243313135353a20696e73756666696369656e742062616c616e636520666f60008201527f72207472616e7366657200000000000000000000000000000000000000000000602082015250565b6000615427602a83613a40565b9150615432826153cb565b604082019050919050565b600060208201905081810360008301526154568161541a565b9050919050565b600060408201905081810360008301526154778185613988565b9050818103602083015261548b8184613988565b90509392505050565b7f455243313135353a206275726e2066726f6d20746865207a65726f206164647260008201527f6573730000000000000000000000000000000000000000000000000000000000602082015250565b60006154f0602383613a40565b91506154fb82615494565b604082019050919050565b6000602082019050818103600083015261551f816154e3565b9050919050565b7f455243313135353a206275726e20616d6f756e7420657863656564732062616c60008201527f616e636500000000000000000000000000000000000000000000000000000000602082015250565b6000615582602483613a40565b915061558d82615526565b604082019050919050565b600060208201905081810360008301526155b181615575565b9050919050565b60006040820190506155cd60008301856136b4565b6155da60208301846136b4565b9392505050565b7f455243313135353a206d696e7420746f20746865207a65726f2061646472657360008201527f7300000000000000000000000000000000000000000000000000000000000000602082015250565b600061563d602183613a40565b9150615648826155e1565b604082019050919050565b6000602082019050818103600083015261566c81615630565b9050919050565b7f455243313135353a2073657474696e6720617070726f76616c2073746174757360008201527f20666f722073656c660000000000000000000000000000000000000000000000602082015250565b60006156cf602983613a40565b91506156da82615673565b604082019050919050565b600060208201905081810360008301526156fe816156c2565b9050919050565b7f43616e6e6f742073657420757269207477696365000000000000000000000000600082015250565b600061573b601483613a40565b915061574682615705565b602082019050919050565b6000602082019050818103600083015261576a8161572e565b9050919050565b600081519050919050565b600082825260208201905092915050565b600061579882615771565b6157a2818561577c565b93506157b2818560208601613a51565b6157bb816137a3565b840191505092915050565b600060a0820190506157db6000830188613e49565b6157e86020830187613e49565b81810360408301526157fa8186613988565b9050818103606083015261580e8185613988565b90508181036080830152615822818461578d565b90509695505050505050565b60008151905061583d8161370a565b92915050565b600060208284031215615859576158586135d6565b5b60006158678482850161582e565b91505092915050565b60008160e01c9050919050565b600060033d111561589c5760046000803e615899600051615870565b90505b90565b600060443d1061592c576158b16135cc565b60043d036004823e80513d602482011167ffffffffffffffff821117156158d957505061592c565b808201805167ffffffffffffffff8111156158f7575050505061592c565b80602083010160043d03850181111561591457505050505061592c565b615923826020018501866137e3565b82955050505050505b90565b7f455243313135353a207472616e7366657220746f206e6f6e2d4552433131353560008201527f526563656976657220696d706c656d656e746572000000000000000000000000602082015250565b600061598b603483613a40565b91506159968261592f565b604082019050919050565b600060208201905081810360008301526159ba8161597e565b9050919050565b7f455243313135353a204552433131353552656365697665722072656a6563746560008201527f6420746f6b656e73000000000000000000000000000000000000000000000000602082015250565b6000615a1d602883613a40565b9150615a28826159c1565b604082019050919050565b60006020820190508181036000830152615a4c81615a10565b9050919050565b7f5061757361626c653a206e6f7420706175736564000000000000000000000000600082015250565b6000615a89601483613a40565b9150615a9482615a53565b602082019050919050565b60006020820190508181036000830152615ab881615a7c565b9050919050565b7f5061757361626c653a2070617573656400000000000000000000000000000000600082015250565b6000615af5601083613a40565b9150615b0082615abf565b602082019050919050565b60006020820190508181036000830152615b2481615ae8565b9050919050565b600060a082019050615b406000830188613e49565b615b4d6020830187613e49565b615b5a60408301866136b4565b615b6760608301856136b4565b8181036080830152615b79818461578d565b90509695505050505050565b7f455243313135353a206275726e20616d6f756e74206578636565647320746f7460008201527f616c537570706c79000000000000000000000000000000000000000000000000602082015250565b6000615be1602883613a40565b9150615bec82615b85565b604082019050919050565b60006020820190508181036000830152615c1081615bd4565b905091905056fea2646970667358221220e1131a66c6d806b08ceab76229d43ddc15dc92aaa55e570348b3392dffef1e6064736f6c63430008130033",
  "linkReferences": {},
  "deployedLinkReferences": {}
}