{
  "_format": "hh-sol-artifact-1",
  "contractName": "AuctionContract",
  "sourceName": "contracts/AuctionContract.sol",
  "abi": [
    {
      "inputs": [],
      "stateMutability": "nonpayable",
      "type": "constructor"
    },
    {
      "anonymous": false,
      "inputs": [
        {
          "indexed": true,
          "internalType": "address",
          "name": "account",
          "type": "address"
        },
        {
          "indexed": true,
          "internalType": "address",
          "name": "operator",
          "type": "address"
        },
        {
          "indexed": false,
          "internalType": "bool",
          "name": "approved",
          "type": "bool"
        }
      ],
      "name": "ApprovalForAll",
      "type": "event"
    },
    {
      "anonymous": false,
      "inputs": [
        {
          "indexed": true,
          "internalType": "address",
          "name": "previousOwner",
          "type": "address"
        },
        {
          "indexed": true,
          "internalType": "address",
          "name": "newOwner",
          "type": "address"
        }
      ],
      "name": "OwnershipTransferred",
      "type": "event"
    },
    {
      "anonymous": false,
      "inputs": [
        {
          "indexed": false,
          "internalType": "address",
          "name": "account",
          "type": "address"
        }
      ],
      "name": "Paused",
      "type": "event"
    },
    {
      "anonymous": false,
      "inputs": [
        {
          "indexed": true,
          "internalType": "address",
          "name": "operator",
          "type": "address"
        },
        {
          "indexed": true,
          "internalType": "address",
          "name": "from",
          "type": "address"
        },
        {
          "indexed": true,
          "internalType": "address",
          "name": "to",
          "type": "address"
        },
        {
          "indexed": false,
          "internalType": "uint256[]",
          "name": "ids",
          "type": "uint256[]"
        },
        {
          "indexed": false,
          "internalType": "uint256[]",
          "name": "values",
          "type": "uint256[]"
        }
      ],
      "name": "TransferBatch",
      "type": "event"
    },
    {
      "anonymous": false,
      "inputs": [
        {
          "indexed": true,
          "internalType": "address",
          "name": "operator",
          "type": "address"
        },
        {
          "indexed": true,
          "internalType": "address",
          "name": "from",
          "type": "address"
        },
        {
          "indexed": true,
          "internalType": "address",
          "name": "to",
          "type": "address"
        },
        {
          "indexed": false,
          "internalType": "uint256",
          "name": "id",
          "type": "uint256"
        },
        {
          "indexed": false,
          "internalType": "uint256",
          "name": "value",
          "type": "uint256"
        }
      ],
      "name": "TransferSingle",
      "type": "event"
    },
    {
      "anonymous": false,
      "inputs": [
        {
          "indexed": false,
          "internalType": "string",
          "name": "value",
          "type": "string"
        },
        {
          "indexed": true,
          "internalType": "uint256",
          "name": "id",
          "type": "uint256"
        }
      ],
      "name": "URI",
      "type": "event"
    },
    {
      "anonymous": false,
      "inputs": [
        {
          "indexed": false,
          "internalType": "address",
          "name": "account",
          "type": "address"
        }
      ],
      "name": "Unpaused",
      "type": "event"
    },
    {
      "inputs": [
        {
          "internalType": "uint256",
          "name": "id",
          "type": "uint256"
        },
        {
          "internalType": "uint256",
          "name": "amount",
          "type": "uint256"
        }
      ],
      "name": "addMint",
      "outputs": [],
      "stateMutability": "payable",
      "type": "function"
    },
    {
      "inputs": [
        {
          "internalType": "uint256",
          "name": "",
          "type": "uint256"
        }
      ],
      "name": "auctions",
      "outputs": [
        {
          "internalType": "uint256",
          "name": "id",
          "type": "uint256"
        },
        {
          "internalType": "uint256",
          "name": "tokenId",
          "type": "uint256"
        },
        {
          "internalType": "uint256",
          "name": "amount",
          "type": "uint256"
        },
        {
          "internalType": "address",
          "name": "owner",
          "type": "address"
        },
        {
          "internalType": "uint256",
          "name": "currentCost",
          "type": "uint256"
        },
        {
          "internalType": "address",
          "name": "currentBidder",
          "type": "address"
        },
        {
          "internalType": "uint256",
          "name": "timeStart",
          "type": "uint256"
        },
        {
          "internalType": "uint256",
          "name": "timeLimit",
          "type": "uint256"
        },
        {
          "internalType": "uint256",
          "name": "timeEnd",
          "type": "uint256"
        },
        {
          "internalType": "uint8",
          "name": "isEnd",
          "type": "uint8"
        }
      ],
      "stateMutability": "view",
      "type": "function"
    },
    {
      "inputs": [
        {
          "internalType": "address",
          "name": "account",
          "type": "address"
        },
        {
          "internalType": "uint256",
          "name": "id",
          "type": "uint256"
        }
      ],
      "name": "balanceOf",
      "outputs": [
        {
          "internalType": "uint256",
          "name": "",
          "type": "uint256"
        }
      ],
      "stateMutability": "view",
      "type": "function"
    },
    {
      "inputs": [
        {
          "internalType": "address[]",
          "name": "accounts",
          "type": "address[]"
        },
        {
          "internalType": "uint256[]",
          "name": "ids",
          "type": "uint256[]"
        }
      ],
      "name": "balanceOfBatch",
      "outputs": [
        {
          "internalType": "uint256[]",
          "name": "",
          "type": "uint256[]"
        }
      ],
      "stateMutability": "view",
      "type": "function"
    },
    {
      "inputs": [
        {
          "internalType": "uint256",
          "name": "idAuction",
          "type": "uint256"
        }
      ],
      "name": "bid",
      "outputs": [],
      "stateMutability": "payable",
      "type": "function"
    },
    {
      "inputs": [
        {
          "internalType": "uint256",
          "name": "tokenId",
          "type": "uint256"
        },
        {
          "internalType": "uint256",
          "name": "amount",
          "type": "uint256"
        },
        {
          "internalType": "uint256",
          "name": "currentCost",
          "type": "uint256"
        },
        {
          "internalType": "uint256",
          "name": "timeLimit",
          "type": "uint256"
        },
        {
          "internalType": "uint256",
          "name": "timeEnd",
          "type": "uint256"
        }
      ],
      "name": "createAuction",
      "outputs": [],
      "stateMutability": "payable",
      "type": "function"
    },
    {
      "inputs": [
        {
          "internalType": "uint256",
          "name": "auctionId",
          "type": "uint256"
        }
      ],
      "name": "endAuction",
      "outputs": [],
      "stateMutability": "payable",
      "type": "function"
    },
    {
      "inputs": [
        {
          "internalType": "uint256",
          "name": "id",
          "type": "uint256"
        }
      ],
      "name": "exists",
      "outputs": [
        {
          "internalType": "bool",
          "name": "",
          "type": "bool"
        }
      ],
      "stateMutability": "view",
      "type": "function"
    },
    {
      "inputs": [],
      "name": "getAllTokenId",
      "outputs": [
        {
          "internalType": "uint256[]",
          "name": "",
          "type": "uint256[]"
        }
      ],
      "stateMutability": "view",
      "type": "function"
    },
    {
      "inputs": [
        {
          "internalType": "uint256",
          "name": "tokenId",
          "type": "uint256"
        }
      ],
      "name": "getToken",
      "outputs": [
        {
          "components": [
            {
              "internalType": "string",
              "name": "name",
              "type": "string"
            },
            {
              "internalType": "string",
              "name": "description",
              "type": "string"
            },
            {
              "internalType": "string",
              "name": "uri",
              "type": "string"
            },
            {
              "internalType": "uint256",
              "name": "limit",
              "type": "uint256"
            }
          ],
          "internalType": "struct AuctionContract.Token",
          "name": "",
          "type": "tuple"
        }
      ],
      "stateMutability": "view",
      "type": "function"
    },
    {
      "inputs": [
        {
          "internalType": "address",
          "name": "account",
          "type": "address"
        },
        {
          "internalType": "address",
          "name": "operator",
          "type": "address"
        }
      ],
      "name": "isApprovedForAll",
      "outputs": [
        {
          "internalType": "bool",
          "name": "",
          "type": "bool"
        }
      ],
      "stateMutability": "view",
      "type": "function"
    },
    {
      "inputs": [
        {
          "internalType": "uint256",
          "name": "amount",
          "type": "uint256"
        },
        {
          "internalType": "uint256",
          "name": "_limit",
          "type": "uint256"
        },
        {
          "internalType": "string",
          "name": "_uri",
          "type": "string"
        },
        {
          "internalType": "string",
          "name": "name",
          "type": "string"
        },
        {
          "internalType": "string",
          "name": "description",
          "type": "string"
        }
      ],
      "name": "newMint",
      "outputs": [],
      "stateMutability": "payable",
      "type": "function"
    },
    {
      "inputs": [],
      "name": "owner",
      "outputs": [
        {
          "internalType": "address",
          "name": "",
          "type": "address"
        }
      ],
      "stateMutability": "view",
      "type": "function"
    },
    {
      "inputs": [],
      "name": "pause",
      "outputs": [],
      "stateMutability": "nonpayable",
      "type": "function"
    },
    {
      "inputs": [],
      "name": "paused",
      "outputs": [
        {
          "internalType": "bool",
          "name": "",
          "type": "bool"
        }
      ],
      "stateMutability": "view",
      "type": "function"
    },
    {
      "inputs": [],
      "name": "publicPrice",
      "outputs": [
        {
          "internalType": "uint256",
          "name": "",
          "type": "uint256"
        }
      ],
      "stateMutability": "view",
      "type": "function"
    },
    {
      "inputs": [],
      "name": "renounceOwnership",
      "outputs": [],
      "stateMutability": "nonpayable",
      "type": "function"
    },
    {
      "inputs": [
        {
          "internalType": "address",
          "name": "from",
          "type": "address"
        },
        {
          "internalType": "address",
          "name": "to",
          "type": "address"
        },
        {
          "internalType": "uint256[]",
          "name": "ids",
          "type": "uint256[]"
        },
        {
          "internalType": "uint256[]",
          "name": "amounts",
          "type": "uint256[]"
        },
        {
          "internalType": "bytes",
          "name": "data",
          "type": "bytes"
        }
      ],
      "name": "safeBatchTransferFrom",
      "outputs": [],
      "stateMutability": "nonpayable",
      "type": "function"
    },
    {
      "inputs": [
        {
          "internalType": "address",
          "name": "from",
          "type": "address"
        },
        {
          "internalType": "address",
          "name": "to",
          "type": "address"
        },
        {
          "internalType": "uint256",
          "name": "id",
          "type": "uint256"
        },
        {
          "internalType": "uint256",
          "name": "amount",
          "type": "uint256"
        },
        {
          "internalType": "bytes",
          "name": "data",
          "type": "bytes"
        }
      ],
      "name": "safeTransferFrom",
      "outputs": [],
      "stateMutability": "nonpayable",
      "type": "function"
    },
    {
      "inputs": [
        {
          "internalType": "address",
          "name": "operator",
          "type": "address"
        },
        {
          "internalType": "bool",
          "name": "approved",
          "type": "bool"
        }
      ],
      "name": "setApprovalForAll",
      "outputs": [],
      "stateMutability": "nonpayable",
      "type": "function"
    },
    {
      "inputs": [
        {
          "internalType": "string",
          "name": "newuri",
          "type": "string"
        }
      ],
      "name": "setURI",
      "outputs": [],
      "stateMutability": "nonpayable",
      "type": "function"
    },
    {
      "inputs": [
        {
          "internalType": "bytes4",
          "name": "interfaceId",
          "type": "bytes4"
        }
      ],
      "name": "supportsInterface",
      "outputs": [
        {
          "internalType": "bool",
          "name": "",
          "type": "bool"
        }
      ],
      "stateMutability": "view",
      "type": "function"
    },
    {
      "inputs": [
        {
          "internalType": "uint256",
          "name": "id",
          "type": "uint256"
        }
      ],
      "name": "totalSupply",
      "outputs": [
        {
          "internalType": "uint256",
          "name": "",
          "type": "uint256"
        }
      ],
      "stateMutability": "view",
      "type": "function"
    },
    {
      "inputs": [
        {
          "internalType": "address",
          "name": "newOwner",
          "type": "address"
        }
      ],
      "name": "transferOwnership",
      "outputs": [],
      "stateMutability": "nonpayable",
      "type": "function"
    },
    {
      "inputs": [],
      "name": "unpause",
      "outputs": [],
      "stateMutability": "nonpayable",
      "type": "function"
    },
    {
      "inputs": [
        {
          "internalType": "uint256",
          "name": "tokenId",
          "type": "uint256"
        }
      ],
      "name": "uri",
      "outputs": [
        {
          "internalType": "string",
          "name": "",
          "type": "string"
        }
      ],
      "stateMutability": "view",
      "type": "function"
    }
  ],
  "bytecode": "0x6080604052662386f26fc100006005556000600d556000600f553480156200002657600080fd5b506040518060400160405280601b81526020017f68747470733a2f2f697066732e696e667572612e696f3a3530303100000000008152506200006e81620000b060201b60201c565b506200008f62000083620000c560201b60201c565b620000cd60201b60201c565b6000600360146101000a81548160ff021916908315150217905550620004f4565b8060029081620000c191906200040d565b5050565b600033905090565b6000600360009054906101000a900473ffffffffffffffffffffffffffffffffffffffff16905081600360006101000a81548173ffffffffffffffffffffffffffffffffffffffff021916908373ffffffffffffffffffffffffffffffffffffffff1602179055508173ffffffffffffffffffffffffffffffffffffffff168173ffffffffffffffffffffffffffffffffffffffff167f8be0079c531659141344cd1fd0a4f28419497f9722a3daafe3b4186f6b6457e060405160405180910390a35050565b600081519050919050565b7f4e487b7100000000000000000000000000000000000000000000000000000000600052604160045260246000fd5b7f4e487b7100000000000000000000000000000000000000000000000000000000600052602260045260246000fd5b600060028204905060018216806200021557607f821691505b6020821081036200022b576200022a620001cd565b5b50919050565b60008190508160005260206000209050919050565b60006020601f8301049050919050565b600082821b905092915050565b600060088302620002957fffffffffffffffffffffffffffffffffffffffffffffffffffffffffffffffff8262000256565b620002a1868362000256565b95508019841693508086168417925050509392505050565b6000819050919050565b6000819050919050565b6000620002ee620002e8620002e284620002b9565b620002c3565b620002b9565b9050919050565b6000819050919050565b6200030a83620002cd565b620003226200031982620002f5565b84845462000263565b825550505050565b600090565b620003396200032a565b62000346818484620002ff565b505050565b5b818110156200036e57620003626000826200032f565b6001810190506200034c565b5050565b601f821115620003bd57620003878162000231565b620003928462000246565b81016020851015620003a2578190505b620003ba620003b18562000246565b8301826200034b565b50505b505050565b600082821c905092915050565b6000620003e260001984600802620003c2565b1980831691505092915050565b6000620003fd8383620003cf565b9150826002028217905092915050565b620004188262000193565b67ffffffffffffffff8111156200043457620004336200019e565b5b620004408254620001fc565b6200044d82828562000372565b600060209050601f83116001811462000485576000841562000470578287015190505b6200047c8582620003ef565b865550620004ec565b601f198416620004958662000231565b60005b82811015620004bf5784890151825560018201915060208501945060208101905062000498565b86831015620004df5784890151620004db601f891682620003cf565b8355505b6001600288020188555050505b505050505050565b6154b580620005046000396000f3fe6080604052600436106101805760003560e01c80638456cb59116100d1578063b9a2de3a1161008a578063e4b50cb811610064578063e4b50cb814610531578063e985e9c51461056e578063f242432a146105ab578063f2fde38b146105d457610180565b8063b9a2de3a146104bc578063bd85b039146104d8578063d9fb8a231461051557610180565b80638456cb59146103ee5780638a157df3146104055780638ce0519b146104215780638da5cb5b1461043d578063a22cb46514610468578063a945bf801461049157610180565b80633f4ba83a1161013e5780634f558e79116101185780634f558e7914610329578063571a26a0146103665780635c975abb146103ac578063715018a6146103d757610180565b80633f4ba83a146102b9578063454a2ab3146102d05780634e1273f4146102ec57610180565b8062fdd58e1461018557806301ffc9a7146101c257806302fe5305146101ff57806304764089146102285780630e89341c146102535780632eb2c2d614610290575b600080fd5b34801561019157600080fd5b506101ac60048036038101906101a791906130ba565b6105fd565b6040516101b99190613109565b60405180910390f35b3480156101ce57600080fd5b506101e960048036038101906101e4919061317c565b6106c5565b6040516101f691906131c4565b60405180910390f35b34801561020b57600080fd5b5061022660048036038101906102219190613325565b6107a7565b005b34801561023457600080fd5b5061023d6107bb565b60405161024a919061342c565b60405180910390f35b34801561025f57600080fd5b5061027a6004803603810190610275919061344e565b610813565b60405161028791906134fa565b60405180910390f35b34801561029c57600080fd5b506102b760048036038101906102b29190613685565b6108b8565b005b3480156102c557600080fd5b506102ce610959565b005b6102ea60048036038101906102e5919061344e565b61096b565b005b3480156102f857600080fd5b50610313600480360381019061030e9190613817565b610c0e565b604051610320919061342c565b60405180910390f35b34801561033557600080fd5b50610350600480360381019061034b919061344e565b610d27565b60405161035d91906131c4565b60405180910390f35b34801561037257600080fd5b5061038d6004803603810190610388919061344e565b610d3b565b6040516103a39a999897969594939291906138ba565b60405180910390f35b3480156103b857600080fd5b506103c1610ddc565b6040516103ce91906131c4565b60405180910390f35b3480156103e357600080fd5b506103ec610df3565b005b3480156103fa57600080fd5b50610403610e07565b005b61041f600480360381019061041a9190613956565b610e19565b005b61043b600480360381019061043691906139d1565b6110df565b005b34801561044957600080fd5b50610452611225565b60405161045f9190613a11565b60405180910390f35b34801561047457600080fd5b5061048f600480360381019061048a9190613a58565b61124f565b005b34801561049d57600080fd5b506104a6611265565b6040516104b39190613109565b60405180910390f35b6104d660048036038101906104d1919061344e565b61126b565b005b3480156104e457600080fd5b506104ff60048036038101906104fa919061344e565b6114b6565b60405161050c9190613109565b60405180910390f35b61052f600480360381019061052a9190613a98565b6114d3565b005b34801561053d57600080fd5b506105586004803603810190610553919061344e565b61180d565b6040516105659190613c22565b60405180910390f35b34801561057a57600080fd5b5061059560048036038101906105909190613c44565b6119fa565b6040516105a291906131c4565b60405180910390f35b3480156105b757600080fd5b506105d260048036038101906105cd9190613c84565b611a8e565b005b3480156105e057600080fd5b506105fb60048036038101906105f69190613d1b565b611b2f565b005b60008073ffffffffffffffffffffffffffffffffffffffff168373ffffffffffffffffffffffffffffffffffffffff160361066d576040517f08c379a000000000000000000000000000000000000000000000000000000000815260040161066490613dba565b60405180910390fd5b60008083815260200190815260200160002060008473ffffffffffffffffffffffffffffffffffffffff1673ffffffffffffffffffffffffffffffffffffffff16815260200190815260200160002054905092915050565b60007fd9b67a26000000000000000000000000000000000000000000000000000000007bffffffffffffffffffffffffffffffffffffffffffffffffffffffff1916827bffffffffffffffffffffffffffffffffffffffffffffffffffffffff1916148061079057507f0e89341c000000000000000000000000000000000000000000000000000000007bffffffffffffffffffffffffffffffffffffffffffffffffffffffff1916827bffffffffffffffffffffffffffffffffffffffffffffffffffffffff1916145b806107a0575061079f82611bb2565b5b9050919050565b6107af611c1c565b6107b881611c9a565b50565b6060600c80548060200260200160405190810160405280929190818152602001828054801561080957602002820191906000526020600020905b8154815260200190600101908083116107f5575b5050505050905090565b606060066000838152602001908152602001600020805461083390613e09565b80601f016020809104026020016040519081016040528092919081815260200182805461085f90613e09565b80156108ac5780601f10610881576101008083540402835291602001916108ac565b820191906000526020600020905b81548152906001019060200180831161088f57829003601f168201915b50505050509050919050565b6108c0611cad565b73ffffffffffffffffffffffffffffffffffffffff168573ffffffffffffffffffffffffffffffffffffffff161480610906575061090585610900611cad565b6119fa565b5b610945576040517f08c379a000000000000000000000000000000000000000000000000000000000815260040161093c90613eac565b60405180910390fd5b6109528585858585611cb5565b5050505050565b610961611c1c565b610969611fd6565b565b6000600e6000838152602001908152602001600020600b0160009054906101000a900460ff1660ff16146109d4576040517f08c379a00000000000000000000000000000000000000000000000000000000081526004016109cb90613f18565b60405180910390fd5b600e6000828152602001908152602001600020600401543411610a2c576040517f08c379a0000000000000000000000000000000000000000000000000000000008152600401610a2390613f84565b60405180910390fd5b600f548110610a70576040517f08c379a0000000000000000000000000000000000000000000000000000000008152600401610a6790613ff0565b60405180910390fd5b600e6000828152602001908152602001600020600801544210610ac8576040517f08c379a0000000000000000000000000000000000000000000000000000000008152600401610abf90613f18565b60405180910390fd5b6000600e60008381526020019081526020016000209050610ae882612039565b348160040181905550338160050160006101000a81548173ffffffffffffffffffffffffffffffffffffffff021916908373ffffffffffffffffffffffffffffffffffffffff16021790555080600901339080600181540180825580915050600190039060005260206000200160009091909190916101000a81548173ffffffffffffffffffffffffffffffffffffffff021916908373ffffffffffffffffffffffffffffffffffffffff16021790555080600a013490806001815401808255809150506001900390600052602060002001600090919091909150553481600c0160003373ffffffffffffffffffffffffffffffffffffffff1673ffffffffffffffffffffffffffffffffffffffff168152602001908152602001600020819055505050565b60608151835114610c54576040517f08c379a0000000000000000000000000000000000000000000000000000000008152600401610c4b90614082565b60405180910390fd5b6000835167ffffffffffffffff811115610c7157610c706131fa565b5b604051908082528060200260200182016040528015610c9f5781602001602082028036833780820191505090505b50905060005b8451811015610d1c57610cec858281518110610cc457610cc36140a2565b5b6020026020010151858381518110610cdf57610cde6140a2565b5b60200260200101516105fd565b828281518110610cff57610cfe6140a2565b5b60200260200101818152505080610d1590614100565b9050610ca5565b508091505092915050565b600080610d33836114b6565b119050919050565b600e6020528060005260406000206000915090508060000154908060010154908060020154908060030160009054906101000a900473ffffffffffffffffffffffffffffffffffffffff16908060040154908060050160009054906101000a900473ffffffffffffffffffffffffffffffffffffffff169080600601549080600701549080600801549080600b0160009054906101000a900460ff1690508a565b6000600360149054906101000a900460ff16905090565b610dfb611c1c565b610e05600061219f565b565b610e0f611c1c565b610e17612265565b565b60016007600087815260200190815260200160002060009054906101000a900460ff1660ff1614610e7f576040517f08c379a0000000000000000000000000000000000000000000000000000000008152600401610e7690614194565b60405180910390fd5b60018414610ec2576040517f08c379a0000000000000000000000000000000000000000000000000000000008152600401610eb990614200565b60405180910390fd5b4282118015610ed15750818110155b610f10576040517f08c379a0000000000000000000000000000000000000000000000000000000008152600401610f0790614292565b60405180910390fd5b6000610f1c33876105fd565b11610f5c576040517f08c379a0000000000000000000000000000000000000000000000000000000008152600401610f5390614324565b60405180910390fd5b6000600960008781526020019081526020016000205414610fb2576040517f08c379a0000000000000000000000000000000000000000000000000000000008152600401610fa9906143b6565b60405180910390fd5b6000600e6000600f5481526020019081526020016000209050858160010181905550848160020181905550338160030160006101000a81548173ffffffffffffffffffffffffffffffffffffffff021916908373ffffffffffffffffffffffffffffffffffffffff16021790555083816004018190555060008160050160006101000a81548173ffffffffffffffffffffffffffffffffffffffff021916908373ffffffffffffffffffffffffffffffffffffffff160217905550828160070181905550818160080181905550428160060181905550600081600b0160006101000a81548160ff021916908360ff160217905550600f60008154809291906110b990614100565b919050555060016009600088815260200190815260200160002081905550505050505050565b6110e7611c1c565b806005546110f591906143d6565b341015611137576040517f08c379a000000000000000000000000000000000000000000000000000000000815260040161112e90614464565b60405180910390fd5b60016007600084815260200190815260200160002060009054906101000a900460ff1660ff161461119d576040517f08c379a0000000000000000000000000000000000000000000000000000000008152600401611194906144d0565b60405180910390fd5b6008600083815260200190815260200160002054816111bb846114b6565b6111c591906144f0565b1115611206576040517f08c379a00000000000000000000000000000000000000000000000000000000081526004016111fd90614596565b60405180910390fd5b611221338383604051806020016040528060008152506122c8565b5050565b6000600360009054906101000a900473ffffffffffffffffffffffffffffffffffffffff16905090565b61126161125a611cad565b8383612478565b5050565b60055481565b600f5481106112af576040517f08c379a00000000000000000000000000000000000000000000000000000000081526004016112a690614602565b60405180910390fd5b6000600e6000838152602001908152602001600020600b0160009054906101000a900460ff1660ff1614611318576040517f08c379a000000000000000000000000000000000000000000000000000000000815260040161130f9061466e565b60405180910390fd5b600e6000828152602001908152602001600020600701544211611370576040517f08c379a000000000000000000000000000000000000000000000000000000000815260040161136790614700565b60405180910390fd5b6000600e6000838152602001908152602001600020905060008160050160009054906101000a900473ffffffffffffffffffffffffffffffffffffffff1690506000826004015490506114018360030160009054906101000a900473ffffffffffffffffffffffffffffffffffffffff16838560010154866002015460405180602001604052806000815250611a8e565b8260030160009054906101000a900473ffffffffffffffffffffffffffffffffffffffff1673ffffffffffffffffffffffffffffffffffffffff166108fc829081150290604051600060405180830381858888f1935050505015801561146b573d6000803e3d6000fd5b5061147584612039565b600183600b0160006101000a81548160ff021916908360ff160217905550600060096000856001015481526020019081526020016000208190555050505050565b600060046000838152602001908152602001600020549050919050565b6114db611c1c565b846005546114e991906143d6565b34101561152b576040517f08c379a000000000000000000000000000000000000000000000000000000000815260040161152290614464565b60405180910390fd5b600060076000600d54815260200190815260200160002060009054906101000a900460ff1660ff1614611593576040517f08c379a000000000000000000000000000000000000000000000000000000000815260040161158a9061476c565b60405180910390fd5b8385106115d5576040517f08c379a00000000000000000000000000000000000000000000000000000000081526004016115cc90614596565b60405180910390fd5b6000835111611619576040517f08c379a0000000000000000000000000000000000000000000000000000000008152600401611610906147d8565b60405180910390fd5b6000600b8460405161162b9190614834565b908152602001604051809103902060009054906101000a900460ff1660ff161461168a576040517f08c379a000000000000000000000000000000000000000000000000000000000815260040161168190614897565b60405180910390fd5b6116a733600d5487604051806020016040528060008152506122c8565b600c600d549080600181540180825580915050600190039060005260206000200160009091909190915055600160076000600d54815260200190815260200160002060006101000a81548160ff021916908360ff1602179055508360086000600d54815260200190815260200160002081905550611727600d54846125e4565b81600a6000600d548152602001908152602001600020600001908161174c9190614a63565b5080600a6000600d54815260200190815260200160002060010190816117729190614a63565b5082600a6000600d54815260200190815260200160002060020190816117989190614a63565b5083600a6000600d548152602001908152602001600020600301819055506001600b846040516117c89190614834565b908152602001604051809103902060006101000a81548160ff021916908360ff160217905550600d600081548092919061180190614100565b91905055505050505050565b611815612fea565b600a600083815260200190815260200160002060405180608001604052908160008201805461184390613e09565b80601f016020809104026020016040519081016040528092919081815260200182805461186f90613e09565b80156118bc5780601f10611891576101008083540402835291602001916118bc565b820191906000526020600020905b81548152906001019060200180831161189f57829003601f168201915b505050505081526020016001820180546118d590613e09565b80601f016020809104026020016040519081016040528092919081815260200182805461190190613e09565b801561194e5780601f106119235761010080835404028352916020019161194e565b820191906000526020600020905b81548152906001019060200180831161193157829003601f168201915b5050505050815260200160028201805461196790613e09565b80601f016020809104026020016040519081016040528092919081815260200182805461199390613e09565b80156119e05780601f106119b5576101008083540402835291602001916119e0565b820191906000526020600020905b8154815290600101906020018083116119c357829003601f168201915b505050505081526020016003820154815250509050919050565b6000600160008473ffffffffffffffffffffffffffffffffffffffff1673ffffffffffffffffffffffffffffffffffffffff16815260200190815260200160002060008373ffffffffffffffffffffffffffffffffffffffff1673ffffffffffffffffffffffffffffffffffffffff16815260200190815260200160002060009054906101000a900460ff16905092915050565b611a96611cad565b73ffffffffffffffffffffffffffffffffffffffff168573ffffffffffffffffffffffffffffffffffffffff161480611adc5750611adb85611ad6611cad565b6119fa565b5b611b1b576040517f08c379a0000000000000000000000000000000000000000000000000000000008152600401611b1290613eac565b60405180910390fd5b611b288585858585612673565b5050505050565b611b37611c1c565b600073ffffffffffffffffffffffffffffffffffffffff168173ffffffffffffffffffffffffffffffffffffffff1603611ba6576040517f08c379a0000000000000000000000000000000000000000000000000000000008152600401611b9d90614ba7565b60405180910390fd5b611baf8161219f565b50565b60007f01ffc9a7000000000000000000000000000000000000000000000000000000007bffffffffffffffffffffffffffffffffffffffffffffffffffffffff1916827bffffffffffffffffffffffffffffffffffffffffffffffffffffffff1916149050919050565b611c24611cad565b73ffffffffffffffffffffffffffffffffffffffff16611c42611225565b73ffffffffffffffffffffffffffffffffffffffff1614611c98576040517f08c379a0000000000000000000000000000000000000000000000000000000008152600401611c8f90614c13565b60405180910390fd5b565b8060029081611ca99190614a63565b5050565b600033905090565b8151835114611cf9576040517f08c379a0000000000000000000000000000000000000000000000000000000008152600401611cf090614ca5565b60405180910390fd5b600073ffffffffffffffffffffffffffffffffffffffff168473ffffffffffffffffffffffffffffffffffffffff1603611d68576040517f08c379a0000000000000000000000000000000000000000000000000000000008152600401611d5f90614d37565b60405180910390fd5b6000611d72611cad565b9050611d8281878787878761290e565b60005b8451811015611f33576000858281518110611da357611da26140a2565b5b602002602001015190506000858381518110611dc257611dc16140a2565b5b60200260200101519050600080600084815260200190815260200160002060008b73ffffffffffffffffffffffffffffffffffffffff1673ffffffffffffffffffffffffffffffffffffffff16815260200190815260200160002054905081811015611e63576040517f08c379a0000000000000000000000000000000000000000000000000000000008152600401611e5a90614dc9565b60405180910390fd5b81810360008085815260200190815260200160002060008c73ffffffffffffffffffffffffffffffffffffffff1673ffffffffffffffffffffffffffffffffffffffff168152602001908152602001600020819055508160008085815260200190815260200160002060008b73ffffffffffffffffffffffffffffffffffffffff1673ffffffffffffffffffffffffffffffffffffffff1681526020019081526020016000206000828254611f1891906144f0565b9250508190555050505080611f2c90614100565b9050611d85565b508473ffffffffffffffffffffffffffffffffffffffff168673ffffffffffffffffffffffffffffffffffffffff168273ffffffffffffffffffffffffffffffffffffffff167f4a39dc06d4c0dbc64b70af90fd698a233a518aa5d07e595d983b8c0526c8f7fb8787604051611faa929190614de9565b60405180910390a4611fc081878787878761292c565b611fce818787878787612934565b505050505050565b611fde612b0b565b6000600360146101000a81548160ff0219169083151502179055507f5db9ee0a495bf2e6ff9c91a7834c1ba4fdd244a5e8aa4e537bd38aeae4b073aa612022611cad565b60405161202f9190613a11565b60405180910390a1565b6000600e6000838152602001908152602001600020905060005b816009018054905081101561219a57600082600901828154811061207a576120796140a2565b5b9060005260206000200160009054906101000a900473ffffffffffffffffffffffffffffffffffffffff169050600083600c0160008373ffffffffffffffffffffffffffffffffffffffff1673ffffffffffffffffffffffffffffffffffffffff168152602001908152602001600020549050600081111561218557600084600c0160008473ffffffffffffffffffffffffffffffffffffffff1673ffffffffffffffffffffffffffffffffffffffff168152602001908152602001600020819055508173ffffffffffffffffffffffffffffffffffffffff166108fc829081150290604051600060405180830381858888f19350505050158015612183573d6000803e3d6000fd5b505b5050808061219290614100565b915050612053565b505050565b6000600360009054906101000a900473ffffffffffffffffffffffffffffffffffffffff16905081600360006101000a81548173ffffffffffffffffffffffffffffffffffffffff021916908373ffffffffffffffffffffffffffffffffffffffff1602179055508173ffffffffffffffffffffffffffffffffffffffff168173ffffffffffffffffffffffffffffffffffffffff167f8be0079c531659141344cd1fd0a4f28419497f9722a3daafe3b4186f6b6457e060405160405180910390a35050565b61226d612b54565b6001600360146101000a81548160ff0219169083151502179055507f62e78cea01bee320cd4e420270b5ea74000d11b0c9f74754ebdbfc544b05a2586122b1611cad565b6040516122be9190613a11565b60405180910390a1565b600073ffffffffffffffffffffffffffffffffffffffff168473ffffffffffffffffffffffffffffffffffffffff1603612337576040517f08c379a000000000000000000000000000000000000000000000000000000000815260040161232e90614e92565b60405180910390fd5b6000612341611cad565b9050600061234e85612b9e565b9050600061235b85612b9e565b905061236c8360008985858961290e565b8460008088815260200190815260200160002060008973ffffffffffffffffffffffffffffffffffffffff1673ffffffffffffffffffffffffffffffffffffffff16815260200190815260200160002060008282546123cb91906144f0565b925050819055508673ffffffffffffffffffffffffffffffffffffffff16600073ffffffffffffffffffffffffffffffffffffffff168473ffffffffffffffffffffffffffffffffffffffff167fc3d58168c5ae7397731d063d5bbf3d657854427343f4c083240f7aacaa2d0f628989604051612449929190614eb2565b60405180910390a46124608360008985858961292c565b61246f83600089898989612c18565b50505050505050565b8173ffffffffffffffffffffffffffffffffffffffff168373ffffffffffffffffffffffffffffffffffffffff16036124e6576040517f08c379a00000000000000000000000000000000000000000000000000000000081526004016124dd90614f4d565b60405180910390fd5b80600160008573ffffffffffffffffffffffffffffffffffffffff1673ffffffffffffffffffffffffffffffffffffffff16815260200190815260200160002060008473ffffffffffffffffffffffffffffffffffffffff1673ffffffffffffffffffffffffffffffffffffffff16815260200190815260200160002060006101000a81548160ff0219169083151502179055508173ffffffffffffffffffffffffffffffffffffffff168373ffffffffffffffffffffffffffffffffffffffff167f17307eab39ab6107e8899845ad3d59bd9653f200f220920489ca2b5937696c31836040516125d791906131c4565b60405180910390a3505050565b6125ec611c1c565b600060066000848152602001908152602001600020805461260c90613e09565b90501461264e576040517f08c379a000000000000000000000000000000000000000000000000000000000815260040161264590614fb9565b60405180910390fd5b8060066000848152602001908152602001600020908161266e9190614a63565b505050565b600073ffffffffffffffffffffffffffffffffffffffff168473ffffffffffffffffffffffffffffffffffffffff16036126e2576040517f08c379a00000000000000000000000000000000000000000000000000000000081526004016126d990614d37565b60405180910390fd5b60006126ec611cad565b905060006126f985612b9e565b9050600061270685612b9e565b905061271683898985858961290e565b600080600088815260200190815260200160002060008a73ffffffffffffffffffffffffffffffffffffffff1673ffffffffffffffffffffffffffffffffffffffff168152602001908152602001600020549050858110156127ad576040517f08c379a00000000000000000000000000000000000000000000000000000000081526004016127a490614dc9565b60405180910390fd5b85810360008089815260200190815260200160002060008b73ffffffffffffffffffffffffffffffffffffffff1673ffffffffffffffffffffffffffffffffffffffff168152602001908152602001600020819055508560008089815260200190815260200160002060008a73ffffffffffffffffffffffffffffffffffffffff1673ffffffffffffffffffffffffffffffffffffffff168152602001908152602001600020600082825461286291906144f0565b925050819055508773ffffffffffffffffffffffffffffffffffffffff168973ffffffffffffffffffffffffffffffffffffffff168573ffffffffffffffffffffffffffffffffffffffff167fc3d58168c5ae7397731d063d5bbf3d657854427343f4c083240f7aacaa2d0f628a8a6040516128df929190614eb2565b60405180910390a46128f5848a8a86868a61292c565b612903848a8a8a8a8a612c18565b505050505050505050565b612916612b54565b612924868686868686612def565b505050505050565b505050505050565b6129538473ffffffffffffffffffffffffffffffffffffffff16612fbf565b15612b03578373ffffffffffffffffffffffffffffffffffffffff1663bc197c8187878686866040518663ffffffff1660e01b815260040161299995949392919061502e565b6020604051808303816000875af19250505080156129d557506040513d601f19601f820116820180604052508101906129d291906150ab565b60015b612a7a576129e16150e5565b806308c379a003612a3d57506129f5615107565b80612a005750612a3f565b806040517f08c379a0000000000000000000000000000000000000000000000000000000008152600401612a3491906134fa565b60405180910390fd5b505b6040517f08c379a0000000000000000000000000000000000000000000000000000000008152600401612a7190615209565b60405180910390fd5b63bc197c8160e01b7bffffffffffffffffffffffffffffffffffffffffffffffffffffffff1916817bffffffffffffffffffffffffffffffffffffffffffffffffffffffff191614612b01576040517f08c379a0000000000000000000000000000000000000000000000000000000008152600401612af89061529b565b60405180910390fd5b505b505050505050565b612b13610ddc565b612b52576040517f08c379a0000000000000000000000000000000000000000000000000000000008152600401612b4990615307565b60405180910390fd5b565b612b5c610ddc565b15612b9c576040517f08c379a0000000000000000000000000000000000000000000000000000000008152600401612b9390615373565b60405180910390fd5b565b60606000600167ffffffffffffffff811115612bbd57612bbc6131fa565b5b604051908082528060200260200182016040528015612beb5781602001602082028036833780820191505090505b5090508281600081518110612c0357612c026140a2565b5b60200260200101818152505080915050919050565b612c378473ffffffffffffffffffffffffffffffffffffffff16612fbf565b15612de7578373ffffffffffffffffffffffffffffffffffffffff1663f23a6e6187878686866040518663ffffffff1660e01b8152600401612c7d959493929190615393565b6020604051808303816000875af1925050508015612cb957506040513d601f19601f82011682018060405250810190612cb691906150ab565b60015b612d5e57612cc56150e5565b806308c379a003612d215750612cd9615107565b80612ce45750612d23565b806040517f08c379a0000000000000000000000000000000000000000000000000000000008152600401612d1891906134fa565b60405180910390fd5b505b6040517f08c379a0000000000000000000000000000000000000000000000000000000008152600401612d5590615209565b60405180910390fd5b63f23a6e6160e01b7bffffffffffffffffffffffffffffffffffffffffffffffffffffffff1916817bffffffffffffffffffffffffffffffffffffffffffffffffffffffff191614612de5576040517f08c379a0000000000000000000000000000000000000000000000000000000008152600401612ddc9061529b565b60405180910390fd5b505b505050505050565b612dfd868686868686612fe2565b600073ffffffffffffffffffffffffffffffffffffffff168573ffffffffffffffffffffffffffffffffffffffff1603612eae5760005b8351811015612eac57828181518110612e5057612e4f6140a2565b5b602002602001015160046000868481518110612e6f57612e6e6140a2565b5b602002602001015181526020019081526020016000206000828254612e9491906144f0565b9250508190555080612ea590614100565b9050612e34565b505b600073ffffffffffffffffffffffffffffffffffffffff168473ffffffffffffffffffffffffffffffffffffffff1603612fb75760005b8351811015612fb5576000848281518110612f0357612f026140a2565b5b602002602001015190506000848381518110612f2257612f216140a2565b5b6020026020010151905060006004600084815260200190815260200160002054905081811015612f87576040517f08c379a0000000000000000000000000000000000000000000000000000000008152600401612f7e9061545f565b60405180910390fd5b818103600460008581526020019081526020016000208190555050505080612fae90614100565b9050612ee5565b505b505050505050565b6000808273ffffffffffffffffffffffffffffffffffffffff163b119050919050565b505050505050565b6040518060800160405280606081526020016060815260200160608152602001600081525090565b6000604051905090565b600080fd5b600080fd5b600073ffffffffffffffffffffffffffffffffffffffff82169050919050565b600061305182613026565b9050919050565b61306181613046565b811461306c57600080fd5b50565b60008135905061307e81613058565b92915050565b6000819050919050565b61309781613084565b81146130a257600080fd5b50565b6000813590506130b48161308e565b92915050565b600080604083850312156130d1576130d061301c565b5b60006130df8582860161306f565b92505060206130f0858286016130a5565b9150509250929050565b61310381613084565b82525050565b600060208201905061311e60008301846130fa565b92915050565b60007fffffffff0000000000000000000000000000000000000000000000000000000082169050919050565b61315981613124565b811461316457600080fd5b50565b60008135905061317681613150565b92915050565b6000602082840312156131925761319161301c565b5b60006131a084828501613167565b91505092915050565b60008115159050919050565b6131be816131a9565b82525050565b60006020820190506131d960008301846131b5565b92915050565b600080fd5b600080fd5b6000601f19601f8301169050919050565b7f4e487b7100000000000000000000000000000000000000000000000000000000600052604160045260246000fd5b613232826131e9565b810181811067ffffffffffffffff82111715613251576132506131fa565b5b80604052505050565b6000613264613012565b90506132708282613229565b919050565b600067ffffffffffffffff8211156132905761328f6131fa565b5b613299826131e9565b9050602081019050919050565b82818337600083830152505050565b60006132c86132c384613275565b61325a565b9050828152602081018484840111156132e4576132e36131e4565b5b6132ef8482856132a6565b509392505050565b600082601f83011261330c5761330b6131df565b5b813561331c8482602086016132b5565b91505092915050565b60006020828403121561333b5761333a61301c565b5b600082013567ffffffffffffffff81111561335957613358613021565b5b613365848285016132f7565b91505092915050565b600081519050919050565b600082825260208201905092915050565b6000819050602082019050919050565b6133a381613084565b82525050565b60006133b5838361339a565b60208301905092915050565b6000602082019050919050565b60006133d98261336e565b6133e38185613379565b93506133ee8361338a565b8060005b8381101561341f57815161340688826133a9565b9750613411836133c1565b9250506001810190506133f2565b5085935050505092915050565b6000602082019050818103600083015261344681846133ce565b905092915050565b6000602082840312156134645761346361301c565b5b6000613472848285016130a5565b91505092915050565b600081519050919050565b600082825260208201905092915050565b60005b838110156134b557808201518184015260208101905061349a565b60008484015250505050565b60006134cc8261347b565b6134d68185613486565b93506134e6818560208601613497565b6134ef816131e9565b840191505092915050565b6000602082019050818103600083015261351481846134c1565b905092915050565b600067ffffffffffffffff821115613537576135366131fa565b5b602082029050602081019050919050565b600080fd5b600061356061355b8461351c565b61325a565b9050808382526020820190506020840283018581111561358357613582613548565b5b835b818110156135ac578061359888826130a5565b845260208401935050602081019050613585565b5050509392505050565b600082601f8301126135cb576135ca6131df565b5b81356135db84826020860161354d565b91505092915050565b600067ffffffffffffffff8211156135ff576135fe6131fa565b5b613608826131e9565b9050602081019050919050565b6000613628613623846135e4565b61325a565b905082815260208101848484011115613644576136436131e4565b5b61364f8482856132a6565b509392505050565b600082601f83011261366c5761366b6131df565b5b813561367c848260208601613615565b91505092915050565b600080600080600060a086880312156136a1576136a061301c565b5b60006136af8882890161306f565b95505060206136c08882890161306f565b945050604086013567ffffffffffffffff8111156136e1576136e0613021565b5b6136ed888289016135b6565b935050606086013567ffffffffffffffff81111561370e5761370d613021565b5b61371a888289016135b6565b925050608086013567ffffffffffffffff81111561373b5761373a613021565b5b61374788828901613657565b9150509295509295909350565b600067ffffffffffffffff82111561376f5761376e6131fa565b5b602082029050602081019050919050565b600061379361378e84613754565b61325a565b905080838252602082019050602084028301858111156137b6576137b5613548565b5b835b818110156137df57806137cb888261306f565b8452602084019350506020810190506137b8565b5050509392505050565b600082601f8301126137fe576137fd6131df565b5b813561380e848260208601613780565b91505092915050565b6000806040838503121561382e5761382d61301c565b5b600083013567ffffffffffffffff81111561384c5761384b613021565b5b613858858286016137e9565b925050602083013567ffffffffffffffff81111561387957613878613021565b5b613885858286016135b6565b9150509250929050565b61389881613046565b82525050565b600060ff82169050919050565b6138b48161389e565b82525050565b6000610140820190506138d0600083018d6130fa565b6138dd602083018c6130fa565b6138ea604083018b6130fa565b6138f7606083018a61388f565b61390460808301896130fa565b61391160a083018861388f565b61391e60c08301876130fa565b61392b60e08301866130fa565b6139396101008301856130fa565b6139476101208301846138ab565b9b9a5050505050505050505050565b600080600080600060a086880312156139725761397161301c565b5b6000613980888289016130a5565b9550506020613991888289016130a5565b94505060406139a2888289016130a5565b93505060606139b3888289016130a5565b92505060806139c4888289016130a5565b9150509295509295909350565b600080604083850312156139e8576139e761301c565b5b60006139f6858286016130a5565b9250506020613a07858286016130a5565b9150509250929050565b6000602082019050613a26600083018461388f565b92915050565b613a35816131a9565b8114613a4057600080fd5b50565b600081359050613a5281613a2c565b92915050565b60008060408385031215613a6f57613a6e61301c565b5b6000613a7d8582860161306f565b9250506020613a8e85828601613a43565b9150509250929050565b600080600080600060a08688031215613ab457613ab361301c565b5b6000613ac2888289016130a5565b9550506020613ad3888289016130a5565b945050604086013567ffffffffffffffff811115613af457613af3613021565b5b613b00888289016132f7565b935050606086013567ffffffffffffffff811115613b2157613b20613021565b5b613b2d888289016132f7565b925050608086013567ffffffffffffffff811115613b4e57613b4d613021565b5b613b5a888289016132f7565b9150509295509295909350565b600082825260208201905092915050565b6000613b838261347b565b613b8d8185613b67565b9350613b9d818560208601613497565b613ba6816131e9565b840191505092915050565b60006080830160008301518482036000860152613bce8282613b78565b91505060208301518482036020860152613be88282613b78565b91505060408301518482036040860152613c028282613b78565b9150506060830151613c17606086018261339a565b508091505092915050565b60006020820190508181036000830152613c3c8184613bb1565b905092915050565b60008060408385031215613c5b57613c5a61301c565b5b6000613c698582860161306f565b9250506020613c7a8582860161306f565b9150509250929050565b600080600080600060a08688031215613ca057613c9f61301c565b5b6000613cae8882890161306f565b9550506020613cbf8882890161306f565b9450506040613cd0888289016130a5565b9350506060613ce1888289016130a5565b925050608086013567ffffffffffffffff811115613d0257613d01613021565b5b613d0e88828901613657565b9150509295509295909350565b600060208284031215613d3157613d3061301c565b5b6000613d3f8482850161306f565b91505092915050565b7f455243313135353a2061646472657373207a65726f206973206e6f742061207660008201527f616c6964206f776e657200000000000000000000000000000000000000000000602082015250565b6000613da4602a83613486565b9150613daf82613d48565b604082019050919050565b60006020820190508181036000830152613dd381613d97565b9050919050565b7f4e487b7100000000000000000000000000000000000000000000000000000000600052602260045260246000fd5b60006002820490506001821680613e2157607f821691505b602082108103613e3457613e33613dda565b5b50919050565b7f455243313135353a2063616c6c6572206973206e6f7420746f6b656e206f776e60008201527f6572206f7220617070726f766564000000000000000000000000000000000000602082015250565b6000613e96602e83613486565b9150613ea182613e3a565b604082019050919050565b60006020820190508181036000830152613ec581613e89565b9050919050565b7f41756374696f6e2068617320656e646564000000000000000000000000000000600082015250565b6000613f02601183613486565b9150613f0d82613ecc565b602082019050919050565b60006020820190508181036000830152613f3181613ef5565b9050919050565b7f4861766520746f20706179206120686967686572207072696365000000000000600082015250565b6000613f6e601a83613486565b9150613f7982613f38565b602082019050919050565b60006020820190508181036000830152613f9d81613f61565b9050919050565b7f546869732061756374696f6e20646f6573206e6f742065786973740000000000600082015250565b6000613fda601b83613486565b9150613fe582613fa4565b602082019050919050565b6000602082019050818103600083015261400981613fcd565b9050919050565b7f455243313135353a206163636f756e747320616e6420696473206c656e67746860008201527f206d69736d617463680000000000000000000000000000000000000000000000602082015250565b600061406c602983613486565b915061407782614010565b604082019050919050565b6000602082019050818103600083015261409b8161405f565b9050919050565b7f4e487b7100000000000000000000000000000000000000000000000000000000600052603260045260246000fd5b7f4e487b7100000000000000000000000000000000000000000000000000000000600052601160045260246000fd5b600061410b82613084565b91507fffffffffffffffffffffffffffffffffffffffffffffffffffffffffffffffff820361413d5761413c6140d1565b5b600182019050919050565b7f4e6f74206578697473207468697320746f6b656e496400000000000000000000600082015250565b600061417e601683613486565b915061418982614148565b602082019050919050565b600060208201905081810360008301526141ad81614171565b9050919050565b7f616d6f756e74206973206e6f742076616c696400000000000000000000000000600082015250565b60006141ea601383613486565b91506141f5826141b4565b602082019050919050565b60006020820190508181036000830152614219816141dd565b9050919050565b7f54686520646561646c696e652073686f756c642062652061206461746520696e60008201527f20746865206675747572652e0000000000000000000000000000000000000000602082015250565b600061427c602c83613486565b915061428782614220565b604082019050919050565b600060208201905081810360008301526142ab8161426f565b9050919050565b7f5468697320746f6b656e20646f6573206e6f7420657869737420696e20796f7560008201527f722077616c6c6574000000000000000000000000000000000000000000000000602082015250565b600061430e602883613486565b9150614319826142b2565b604082019050919050565b6000602082019050818103600083015261433d81614301565b9050919050565b7f416e2061756374696f6e20666f72207468697320746f6b656e20616c7265616460008201527f7920657869737473000000000000000000000000000000000000000000000000602082015250565b60006143a0602883613486565b91506143ab82614344565b604082019050919050565b600060208201905081810360008301526143cf81614393565b9050919050565b60006143e182613084565b91506143ec83613084565b92508282026143fa81613084565b91508282048414831517614411576144106140d1565b5b5092915050565b7f57524f4e472c204e6f7420656e6f756768206d6f6e65792073656e7400000000600082015250565b600061444e601c83613486565b915061445982614418565b602082019050919050565b6000602082019050818103600083015261447d81614441565b9050919050565b7f4e6f7420657869747320746f6b656e0000000000000000000000000000000000600082015250565b60006144ba600f83613486565b91506144c582614484565b602082019050919050565b600060208201905081810360008301526144e9816144ad565b9050919050565b60006144fb82613084565b915061450683613084565b925082820190508082111561451e5761451d6140d1565b5b92915050565b7f596f7520686176652063726561746564206d6f7265207468616e20616c6c6f7760008201527f656420616d6f756e740000000000000000000000000000000000000000000000602082015250565b6000614580602983613486565b915061458b82614524565b604082019050919050565b600060208201905081810360008301526145af81614573565b9050919050565b7f41756374696f6e20646f6573206e6f7420657869737400000000000000000000600082015250565b60006145ec601683613486565b91506145f7826145b6565b602082019050919050565b6000602082019050818103600083015261461b816145df565b9050919050565b7f546869732061756374696f6e2068617320656e64656400000000000000000000600082015250565b6000614658601683613486565b915061466382614622565b602082019050919050565b600060208201905081810360008301526146878161464b565b9050919050565b7f546865206d696e696d756d2074696d6520686173206e6f74206265656e20726560008201527f616368656420746f20656e640000000000000000000000000000000000000000602082015250565b60006146ea602c83613486565b91506146f58261468e565b604082019050919050565b60006020820190508181036000830152614719816146dd565b9050919050565b7f45786974656420746f6b656e0000000000000000000000000000000000000000600082015250565b6000614756600c83613486565b915061476182614720565b602082019050919050565b6000602082019050818103600083015261478581614749565b9050919050565b7f506c6561736520616464206461746120746f2074686973206e66740000000000600082015250565b60006147c2601b83613486565b91506147cd8261478c565b602082019050919050565b600060208201905081810360008301526147f1816147b5565b9050919050565b600081905092915050565b600061480e8261347b565b61481881856147f8565b9350614828818560208601613497565b80840191505092915050565b60006148408284614803565b915081905092915050565b7f496d616765206578697374656400000000000000000000000000000000000000600082015250565b6000614881600d83613486565b915061488c8261484b565b602082019050919050565b600060208201905081810360008301526148b081614874565b9050919050565b60008190508160005260206000209050919050565b60006020601f8301049050919050565b600082821b905092915050565b6000600883026149197fffffffffffffffffffffffffffffffffffffffffffffffffffffffffffffffff826148dc565b61492386836148dc565b95508019841693508086168417925050509392505050565b6000819050919050565b600061496061495b61495684613084565b61493b565b613084565b9050919050565b6000819050919050565b61497a83614945565b61498e61498682614967565b8484546148e9565b825550505050565b600090565b6149a3614996565b6149ae818484614971565b505050565b5b818110156149d2576149c760008261499b565b6001810190506149b4565b5050565b601f821115614a17576149e8816148b7565b6149f1846148cc565b81016020851015614a00578190505b614a14614a0c856148cc565b8301826149b3565b50505b505050565b600082821c905092915050565b6000614a3a60001984600802614a1c565b1980831691505092915050565b6000614a538383614a29565b9150826002028217905092915050565b614a6c8261347b565b67ffffffffffffffff811115614a8557614a846131fa565b5b614a8f8254613e09565b614a9a8282856149d6565b600060209050601f831160018114614acd5760008415614abb578287015190505b614ac58582614a47565b865550614b2d565b601f198416614adb866148b7565b60005b82811015614b0357848901518255600182019150602085019450602081019050614ade565b86831015614b205784890151614b1c601f891682614a29565b8355505b6001600288020188555050505b505050505050565b7f4f776e61626c653a206e6577206f776e657220697320746865207a65726f206160008201527f6464726573730000000000000000000000000000000000000000000000000000602082015250565b6000614b91602683613486565b9150614b9c82614b35565b604082019050919050565b60006020820190508181036000830152614bc081614b84565b9050919050565b7f4f776e61626c653a2063616c6c6572206973206e6f7420746865206f776e6572600082015250565b6000614bfd602083613486565b9150614c0882614bc7565b602082019050919050565b60006020820190508181036000830152614c2c81614bf0565b9050919050565b7f455243313135353a2069647320616e6420616d6f756e7473206c656e6774682060008201527f6d69736d61746368000000000000000000000000000000000000000000000000602082015250565b6000614c8f602883613486565b9150614c9a82614c33565b604082019050919050565b60006020820190508181036000830152614cbe81614c82565b9050919050565b7f455243313135353a207472616e7366657220746f20746865207a65726f20616460008201527f6472657373000000000000000000000000000000000000000000000000000000602082015250565b6000614d21602583613486565b9150614d2c82614cc5565b604082019050919050565b60006020820190508181036000830152614d5081614d14565b9050919050565b7f455243313135353a20696e73756666696369656e742062616c616e636520666f60008201527f72207472616e7366657200000000000000000000000000000000000000000000602082015250565b6000614db3602a83613486565b9150614dbe82614d57565b604082019050919050565b60006020820190508181036000830152614de281614da6565b9050919050565b60006040820190508181036000830152614e0381856133ce565b90508181036020830152614e1781846133ce565b90509392505050565b7f455243313135353a206d696e7420746f20746865207a65726f2061646472657360008201527f7300000000000000000000000000000000000000000000000000000000000000602082015250565b6000614e7c602183613486565b9150614e8782614e20565b604082019050919050565b60006020820190508181036000830152614eab81614e6f565b9050919050565b6000604082019050614ec760008301856130fa565b614ed460208301846130fa565b9392505050565b7f455243313135353a2073657474696e6720617070726f76616c2073746174757360008201527f20666f722073656c660000000000000000000000000000000000000000000000602082015250565b6000614f37602983613486565b9150614f4282614edb565b604082019050919050565b60006020820190508181036000830152614f6681614f2a565b9050919050565b7f43616e6e6f742073657420757269207477696365000000000000000000000000600082015250565b6000614fa3601483613486565b9150614fae82614f6d565b602082019050919050565b60006020820190508181036000830152614fd281614f96565b9050919050565b600081519050919050565b600082825260208201905092915050565b600061500082614fd9565b61500a8185614fe4565b935061501a818560208601613497565b615023816131e9565b840191505092915050565b600060a082019050615043600083018861388f565b615050602083018761388f565b818103604083015261506281866133ce565b9050818103606083015261507681856133ce565b9050818103608083015261508a8184614ff5565b90509695505050505050565b6000815190506150a581613150565b92915050565b6000602082840312156150c1576150c061301c565b5b60006150cf84828501615096565b91505092915050565b60008160e01c9050919050565b600060033d11156151045760046000803e6151016000516150d8565b90505b90565b600060443d1061519457615119613012565b60043d036004823e80513d602482011167ffffffffffffffff82111715615141575050615194565b808201805167ffffffffffffffff81111561515f5750505050615194565b80602083010160043d03850181111561517c575050505050615194565b61518b82602001850186613229565b82955050505050505b90565b7f455243313135353a207472616e7366657220746f206e6f6e2d4552433131353560008201527f526563656976657220696d706c656d656e746572000000000000000000000000602082015250565b60006151f3603483613486565b91506151fe82615197565b604082019050919050565b60006020820190508181036000830152615222816151e6565b9050919050565b7f455243313135353a204552433131353552656365697665722072656a6563746560008201527f6420746f6b656e73000000000000000000000000000000000000000000000000602082015250565b6000615285602883613486565b915061529082615229565b604082019050919050565b600060208201905081810360008301526152b481615278565b9050919050565b7f5061757361626c653a206e6f7420706175736564000000000000000000000000600082015250565b60006152f1601483613486565b91506152fc826152bb565b602082019050919050565b60006020820190508181036000830152615320816152e4565b9050919050565b7f5061757361626c653a2070617573656400000000000000000000000000000000600082015250565b600061535d601083613486565b915061536882615327565b602082019050919050565b6000602082019050818103600083015261538c81615350565b9050919050565b600060a0820190506153a8600083018861388f565b6153b5602083018761388f565b6153c260408301866130fa565b6153cf60608301856130fa565b81810360808301526153e18184614ff5565b90509695505050505050565b7f455243313135353a206275726e20616d6f756e74206578636565647320746f7460008201527f616c537570706c79000000000000000000000000000000000000000000000000602082015250565b6000615449602883613486565b9150615454826153ed565b604082019050919050565b600060208201905081810360008301526154788161543c565b905091905056fea2646970667358221220a9e1ca855814e5f62aecd9593dadb6575cdd8accb919b6efc503fc4957b27c3f64736f6c63430008130033",
  "linkReferences": {},
  "deployedLinkReferences": {}
}